{
  "contractName": "__unstable__ERC20Owned",
  "abi": [
    {
      "inputs": [
        {
          "internalType": "string",
          "name": "name",
          "type": "string"
        },
        {
          "internalType": "string",
          "name": "symbol",
          "type": "string"
        }
      ],
      "stateMutability": "nonpayable",
      "type": "constructor"
    },
    {
      "anonymous": false,
      "inputs": [
        {
          "indexed": true,
          "internalType": "address",
          "name": "owner",
          "type": "address"
        },
        {
          "indexed": true,
          "internalType": "address",
          "name": "spender",
          "type": "address"
        },
        {
          "indexed": false,
          "internalType": "uint256",
          "name": "value",
          "type": "uint256"
        }
      ],
      "name": "Approval",
      "type": "event"
    },
    {
      "anonymous": false,
      "inputs": [
        {
          "indexed": true,
          "internalType": "address",
          "name": "previousOwner",
          "type": "address"
        },
        {
          "indexed": true,
          "internalType": "address",
          "name": "newOwner",
          "type": "address"
        }
      ],
      "name": "OwnershipTransferred",
      "type": "event"
    },
    {
      "anonymous": false,
      "inputs": [
        {
          "indexed": true,
          "internalType": "address",
          "name": "from",
          "type": "address"
        },
        {
          "indexed": true,
          "internalType": "address",
          "name": "to",
          "type": "address"
        },
        {
          "indexed": false,
          "internalType": "uint256",
          "name": "value",
          "type": "uint256"
        }
      ],
      "name": "Transfer",
      "type": "event"
    },
    {
      "inputs": [
        {
          "internalType": "address",
          "name": "spender",
          "type": "address"
        },
        {
          "internalType": "uint256",
          "name": "amount",
          "type": "uint256"
        }
      ],
      "name": "approve",
      "outputs": [
        {
          "internalType": "bool",
          "name": "",
          "type": "bool"
        }
      ],
      "stateMutability": "nonpayable",
      "type": "function"
    },
    {
      "inputs": [
        {
          "internalType": "address",
          "name": "account",
          "type": "address"
        }
      ],
      "name": "balanceOf",
      "outputs": [
        {
          "internalType": "uint256",
          "name": "",
          "type": "uint256"
        }
      ],
      "stateMutability": "view",
      "type": "function"
    },
    {
      "inputs": [],
      "name": "decimals",
      "outputs": [
        {
          "internalType": "uint8",
          "name": "",
          "type": "uint8"
        }
      ],
      "stateMutability": "view",
      "type": "function"
    },
    {
      "inputs": [
        {
          "internalType": "address",
          "name": "spender",
          "type": "address"
        },
        {
          "internalType": "uint256",
          "name": "subtractedValue",
          "type": "uint256"
        }
      ],
      "name": "decreaseAllowance",
      "outputs": [
        {
          "internalType": "bool",
          "name": "",
          "type": "bool"
        }
      ],
      "stateMutability": "nonpayable",
      "type": "function"
    },
    {
      "inputs": [
        {
          "internalType": "address",
          "name": "spender",
          "type": "address"
        },
        {
          "internalType": "uint256",
          "name": "addedValue",
          "type": "uint256"
        }
      ],
      "name": "increaseAllowance",
      "outputs": [
        {
          "internalType": "bool",
          "name": "",
          "type": "bool"
        }
      ],
      "stateMutability": "nonpayable",
      "type": "function"
    },
    {
      "inputs": [
        {
          "internalType": "address",
          "name": "addr",
          "type": "address"
        }
      ],
      "name": "isOwner",
      "outputs": [
        {
          "internalType": "bool",
          "name": "",
          "type": "bool"
        }
      ],
      "stateMutability": "view",
      "type": "function"
    },
    {
      "inputs": [],
      "name": "name",
      "outputs": [
        {
          "internalType": "string",
          "name": "",
          "type": "string"
        }
      ],
      "stateMutability": "view",
      "type": "function"
    },
    {
      "inputs": [],
      "name": "owner",
      "outputs": [
        {
          "internalType": "address",
          "name": "",
          "type": "address"
        }
      ],
      "stateMutability": "view",
      "type": "function"
    },
    {
      "inputs": [],
      "name": "renounceOwnership",
      "outputs": [],
      "stateMutability": "nonpayable",
      "type": "function"
    },
    {
      "inputs": [],
      "name": "symbol",
      "outputs": [
        {
          "internalType": "string",
          "name": "",
          "type": "string"
        }
      ],
      "stateMutability": "view",
      "type": "function"
    },
    {
      "inputs": [],
      "name": "totalSupply",
      "outputs": [
        {
          "internalType": "uint256",
          "name": "",
          "type": "uint256"
        }
      ],
      "stateMutability": "view",
      "type": "function"
    },
    {
      "inputs": [
        {
          "internalType": "address",
          "name": "recipient",
          "type": "address"
        },
        {
          "internalType": "uint256",
          "name": "amount",
          "type": "uint256"
        }
      ],
      "name": "transfer",
      "outputs": [
        {
          "internalType": "bool",
          "name": "",
          "type": "bool"
        }
      ],
      "stateMutability": "nonpayable",
      "type": "function"
    },
    {
      "inputs": [
        {
          "internalType": "address",
          "name": "newOwner",
          "type": "address"
        }
      ],
      "name": "transferOwnership",
      "outputs": [],
      "stateMutability": "nonpayable",
      "type": "function"
    },
    {
      "inputs": [
        {
          "internalType": "address",
          "name": "account",
          "type": "address"
        },
        {
          "internalType": "uint256",
          "name": "amount",
          "type": "uint256"
        }
      ],
      "name": "mint",
      "outputs": [],
      "stateMutability": "nonpayable",
      "type": "function"
    },
    {
      "inputs": [
        {
          "internalType": "address",
          "name": "tokenOwner",
          "type": "address"
        },
        {
          "internalType": "address",
          "name": "spender",
          "type": "address"
        }
      ],
      "name": "allowance",
      "outputs": [
        {
          "internalType": "uint256",
          "name": "",
          "type": "uint256"
        }
      ],
      "stateMutability": "view",
      "type": "function"
    },
    {
      "inputs": [
        {
          "internalType": "address",
          "name": "sender",
          "type": "address"
        },
        {
          "internalType": "address",
          "name": "recipient",
          "type": "address"
        },
        {
          "internalType": "uint256",
          "name": "amount",
          "type": "uint256"
        }
      ],
      "name": "transferFrom",
      "outputs": [
        {
          "internalType": "bool",
          "name": "",
          "type": "bool"
        }
      ],
      "stateMutability": "nonpayable",
      "type": "function"
    }
  ],
  "bytecode": "0x60806040523480156200001157600080fd5b506040516200123738038062001237833981810160405260408110156200003757600080fd5b81019080805160405193929190846401000000008211156200005857600080fd5b9083019060208201858111156200006e57600080fd5b82516401000000008111828201881017156200008957600080fd5b82525081516020918201929091019080838360005b83811015620000b85781810151838201526020016200009e565b50505050905090810190601f168015620000e65780820380516001836020036101000a031916815260200191505b50604052602001805160405193929190846401000000008211156200010a57600080fd5b9083019060208201858111156200012057600080fd5b82516401000000008111828201881017156200013b57600080fd5b82525081516020918201929091019080838360005b838110156200016a57818101518382015260200162000150565b50505050905090810190601f168015620001985780820380516001836020036101000a031916815260200191505b50604052505082518391508290620001b89060039060208501906200024c565b508051620001ce9060049060208401906200024c565b50506005805460ff19166012179055506000620001ea62000248565b60058054610100600160a81b0319166101006001600160a01b03841690810291909117909155604051919250906000907f8be0079c531659141344cd1fd0a4f28419497f9722a3daafe3b4186f6b6457e0908290a3505050620002e8565b3390565b828054600181600116156101000203166002900490600052602060002090601f016020900481019282601f106200028f57805160ff1916838001178555620002bf565b82800160010185558215620002bf579182015b82811115620002bf578251825591602001919060010190620002a2565b50620002cd929150620002d1565b5090565b5b80821115620002cd5760008155600101620002d2565b610f3f80620002f86000396000f3fe608060405234801561001057600080fd5b50600436106101005760003560e01c806370a0823111610097578063a457c2d711610066578063a457c2d71461030a578063a9059cbb14610336578063dd62ed3e14610362578063f2fde38b1461039057610100565b806370a08231146102b0578063715018a6146102d65780638da5cb5b146102de57806395d89b411461030257610100565b80632f54bf6e116100d35780632f54bf6e14610212578063313ce56714610238578063395093511461025657806340c10f191461028257610100565b806306fdde0314610105578063095ea7b31461018257806318160ddd146101c257806323b872dd146101dc575b600080fd5b61010d6103b6565b6040805160208082528351818301528351919283929083019185019080838360005b8381101561014757818101518382015260200161012f565b50505050905090810190601f1680156101745780820380516001836020036101000a031916815260200191505b509250505060405180910390f35b6101ae6004803603604081101561019857600080fd5b506001600160a01b03813516906020013561044c565b604080519115158252519081900360200190f35b6101ca61046a565b60408051918252519081900360200190f35b6101ae600480360360608110156101f257600080fd5b506001600160a01b03813581169160208101359091169060400135610470565b6101ae6004803603602081101561022857600080fd5b50356001600160a01b03166104bb565b6102406104d7565b6040805160ff9092168252519081900360200190f35b6101ae6004803603604081101561026c57600080fd5b506001600160a01b0381351690602001356104e0565b6102ae6004803603604081101561029857600080fd5b506001600160a01b038135169060200135610533565b005b6101ca600480360360208110156102c657600080fd5b50356001600160a01b03166105b0565b6102ae6105cb565b6102e661068a565b604080516001600160a01b039092168252519081900360200190f35b61010d61069e565b6101ae6004803603604081101561032057600080fd5b506001600160a01b0381351690602001356106ff565b6101ae6004803603604081101561034c57600080fd5b506001600160a01b038135169060200135610767565b6101ca6004803603604081101561037857600080fd5b506001600160a01b038135811691602001351661077b565b6102ae600480360360208110156103a657600080fd5b50356001600160a01b03166107b8565b60038054604080516020601f60026000196101006001881615020190951694909404938401819004810282018101909252828152606093909290918301828280156104425780601f1061041757610100808354040283529160200191610442565b820191906000526020600020905b81548152906001019060200180831161042557829003601f168201915b5050505050905090565b60006104606104596108d3565b84846108d7565b5060015b92915050565b60025490565b600061047a61068a565b6001600160a01b0316836001600160a01b031614156104a65761049e84848461090d565b5060016104b4565b6104b1848484610a68565b90505b9392505050565b60055461010090046001600160a01b0390811690821614919050565b60055460ff1690565b60006104606104ed6108d3565b8461052e85600160006104fe6108d3565b6001600160a01b03908116825260208083019390935260409182016000908120918c168152925290205490610aea565b6108d7565b61053b6108d3565b60055461010090046001600160a01b039081169116146105a2576040805162461bcd60e51b815260206004820181905260248201527f4f776e61626c653a2063616c6c6572206973206e6f7420746865206f776e6572604482015290519081900360640190fd5b6105ac8282610b44565b5050565b6001600160a01b031660009081526020819052604090205490565b6105d36108d3565b60055461010090046001600160a01b0390811691161461063a576040805162461bcd60e51b815260206004820181905260248201527f4f776e61626c653a2063616c6c6572206973206e6f7420746865206f776e6572604482015290519081900360640190fd5b60055460405160009161010090046001600160a01b0316907f8be0079c531659141344cd1fd0a4f28419497f9722a3daafe3b4186f6b6457e0908390a360058054610100600160a81b0319169055565b60055461010090046001600160a01b031690565b60048054604080516020601f60026000196101006001881615020190951694909404938401819004810282018101909252828152606093909290918301828280156104425780601f1061041757610100808354040283529160200191610442565b600061046061070c6108d3565b8461052e85604051806060016040528060258152602001610ee560259139600160006107366108d3565b6001600160a01b03908116825260208083019390935260409182016000908120918d16815292529020549190610c34565b60006104606107746108d3565b848461090d565b600061078561068a565b6001600160a01b0316826001600160a01b031614156107a75750600019610464565b6107b18383610ccb565b9050610464565b6107c06108d3565b60055461010090046001600160a01b03908116911614610827576040805162461bcd60e51b815260206004820181905260248201527f4f776e61626c653a2063616c6c6572206973206e6f7420746865206f776e6572604482015290519081900360640190fd5b6001600160a01b03811661086c5760405162461bcd60e51b8152600401808060200182810382526026815260200180610e066026913960400191505060405180910390fd5b6005546040516001600160a01b0380841692610100900416907f8be0079c531659141344cd1fd0a4f28419497f9722a3daafe3b4186f6b6457e090600090a3600580546001600160a01b0390921661010002610100600160a81b0319909216919091179055565b3390565b6108df61068a565b6001600160a01b0316826001600160a01b031614156108fd57610908565b610908838383610cf6565b505050565b6001600160a01b0383166109525760405162461bcd60e51b8152600401808060200182810382526025815260200180610e9c6025913960400191505060405180910390fd5b6001600160a01b0382166109975760405162461bcd60e51b8152600401808060200182810382526023815260200180610de36023913960400191505060405180910390fd5b6109a2838383610908565b6109df81604051806060016040528060268152602001610e4e602691396001600160a01b0386166000908152602081905260409020549190610c34565b6001600160a01b038085166000908152602081905260408082209390935590841681522054610a0e9082610aea565b6001600160a01b038084166000818152602081815260409182902094909455805185815290519193928716927fddf252ad1be2c89b69c2b068fc378daa952ba7f163c4a11628f55a4df523b3ef92918290030190a3505050565b6000610a7584848461090d565b610ae084610a816108d3565b61052e85604051806060016040528060288152602001610e74602891396001600160a01b038a16600090815260016020526040812090610abf6108d3565b6001600160a01b031681526020810191909152604001600020549190610c34565b5060019392505050565b6000828201838110156104b4576040805162461bcd60e51b815260206004820152601b60248201527f536166654d6174683a206164646974696f6e206f766572666c6f770000000000604482015290519081900360640190fd5b6001600160a01b038216610b9f576040805162461bcd60e51b815260206004820152601f60248201527f45524332303a206d696e7420746f20746865207a65726f206164647265737300604482015290519081900360640190fd5b610bab60008383610908565b600254610bb89082610aea565b6002556001600160a01b038216600090815260208190526040902054610bde9082610aea565b6001600160a01b0383166000818152602081815260408083209490945583518581529351929391927fddf252ad1be2c89b69c2b068fc378daa952ba7f163c4a11628f55a4df523b3ef9281900390910190a35050565b60008184841115610cc35760405162461bcd60e51b81526004018080602001828103825283818151815260200191508051906020019080838360005b83811015610c88578181015183820152602001610c70565b50505050905090810190601f168015610cb55780820380516001836020036101000a031916815260200191505b509250505060405180910390fd5b505050900390565b6001600160a01b03918216600090815260016020908152604080832093909416825291909152205490565b6001600160a01b038316610d3b5760405162461bcd60e51b8152600401808060200182810382526024815260200180610ec16024913960400191505060405180910390fd5b6001600160a01b038216610d805760405162461bcd60e51b8152600401808060200182810382526022815260200180610e2c6022913960400191505060405180910390fd5b6001600160a01b03808416600081815260016020908152604080832094871680845294825291829020859055815185815291517f8c5be1e5ebec7d5bd14f71427d1e84f3dd0314c0f7b2291e5b200ac8c7c3b9259281900390910190a350505056fe45524332303a207472616e7366657220746f20746865207a65726f20616464726573734f776e61626c653a206e6577206f776e657220697320746865207a65726f206164647265737345524332303a20617070726f766520746f20746865207a65726f206164647265737345524332303a207472616e7366657220616d6f756e7420657863656564732062616c616e636545524332303a207472616e7366657220616d6f756e74206578636565647320616c6c6f77616e636545524332303a207472616e736665722066726f6d20746865207a65726f206164647265737345524332303a20617070726f76652066726f6d20746865207a65726f206164647265737345524332303a2064656372656173656420616c6c6f77616e63652062656c6f77207a65726fa2646970667358221220837a867e6e6fe1ff5ef783357c1493539d19e6bba8c28f2db0447f7d72d112cc64736f6c634300060c0033",
  "immutableReferences": {},
  "source": "// SPDX-License-Identifier: MIT\n\npragma solidity ^0.6.0;\n\nimport \"./GSNRecipient.sol\";\nimport \"../math/SafeMath.sol\";\nimport \"../access/Ownable.sol\";\nimport \"../token/ERC20/SafeERC20.sol\";\nimport \"../token/ERC20/ERC20.sol\";\n\n/**\n * @dev A xref:ROOT:gsn-strategies.adoc#gsn-strategies[GSN strategy] that charges transaction fees in a special purpose ERC20\n * token, which we refer to as the gas payment token. The amount charged is exactly the amount of Ether charged to the\n * recipient. This means that the token is essentially pegged to the value of Ether.\n *\n * The distribution strategy of the gas payment token to users is not defined by this contract. It's a mintable token\n * whose only minter is the recipient, so the strategy must be implemented in a derived contract, making use of the\n * internal {_mint} function.\n */\ncontract GSNRecipientERC20Fee is GSNRecipient {\n    using SafeERC20 for __unstable__ERC20Owned;\n    using SafeMath for uint256;\n\n    enum GSNRecipientERC20FeeErrorCodes {\n        INSUFFICIENT_BALANCE\n    }\n\n    __unstable__ERC20Owned private _token;\n\n    /**\n     * @dev The arguments to the constructor are the details that the gas payment token will have: `name` and `symbol`. `decimals` is hard-coded to 18.\n     */\n    constructor(string memory name, string memory symbol) public {\n        _token = new __unstable__ERC20Owned(name, symbol);\n    }\n\n    /**\n     * @dev Returns the gas payment token.\n     */\n    function token() public view returns (IERC20) {\n        return IERC20(_token);\n    }\n\n    /**\n     * @dev Internal function that mints the gas payment token. Derived contracts should expose this function in their public API, with proper access control mechanisms.\n     */\n    function _mint(address account, uint256 amount) internal virtual {\n        _token.mint(account, amount);\n    }\n\n    /**\n     * @dev Ensures that only users with enough gas payment token balance can have transactions relayed through the GSN.\n     */\n    function acceptRelayedCall(\n        address,\n        address from,\n        bytes memory,\n        uint256 transactionFee,\n        uint256 gasPrice,\n        uint256,\n        uint256,\n        bytes memory,\n        uint256 maxPossibleCharge\n    )\n        public\n        view\n        virtual\n        override\n        returns (uint256, bytes memory)\n    {\n        if (_token.balanceOf(from) < maxPossibleCharge) {\n            return _rejectRelayedCall(uint256(GSNRecipientERC20FeeErrorCodes.INSUFFICIENT_BALANCE));\n        }\n\n        return _approveRelayedCall(abi.encode(from, maxPossibleCharge, transactionFee, gasPrice));\n    }\n\n    /**\n     * @dev Implements the precharge to the user. The maximum possible charge (depending on gas limit, gas price, and\n     * fee) will be deducted from the user balance of gas payment token. Note that this is an overestimation of the\n     * actual charge, necessary because we cannot predict how much gas the execution will actually need. The remainder\n     * is returned to the user in {_postRelayedCall}.\n     */\n    function _preRelayedCall(bytes memory context) internal virtual override returns (bytes32) {\n        (address from, uint256 maxPossibleCharge) = abi.decode(context, (address, uint256));\n\n        // The maximum token charge is pre-charged from the user\n        _token.safeTransferFrom(from, address(this), maxPossibleCharge);\n    }\n\n    /**\n     * @dev Returns to the user the extra amount that was previously charged, once the actual execution cost is known.\n     */\n    function _postRelayedCall(bytes memory context, bool, uint256 actualCharge, bytes32) internal virtual override {\n        (address from, uint256 maxPossibleCharge, uint256 transactionFee, uint256 gasPrice) =\n            abi.decode(context, (address, uint256, uint256, uint256));\n\n        // actualCharge is an _estimated_ charge, which assumes postRelayedCall will use all available gas.\n        // This implementation's gas cost can be roughly estimated as 10k gas, for the two SSTORE operations in an\n        // ERC20 transfer.\n        uint256 overestimation = _computeCharge(_POST_RELAYED_CALL_MAX_GAS.sub(10000), gasPrice, transactionFee);\n        actualCharge = actualCharge.sub(overestimation);\n\n        // After the relayed call has been executed and the actual charge estimated, the excess pre-charge is returned\n        _token.safeTransfer(from, maxPossibleCharge.sub(actualCharge));\n    }\n}\n\n/**\n * @title __unstable__ERC20Owned\n * @dev An ERC20 token owned by another contract, which has minting permissions and can use transferFrom to receive\n * anyone's tokens. This contract is an internal helper for GSNRecipientERC20Fee, and should not be used\n * outside of this context.\n */\n// solhint-disable-next-line contract-name-camelcase\ncontract __unstable__ERC20Owned is ERC20, Ownable {\n    uint256 private constant _UINT256_MAX = 2**256 - 1;\n\n    constructor(string memory name, string memory symbol) public ERC20(name, symbol) { }\n\n    // The owner (GSNRecipientERC20Fee) can mint tokens\n    function mint(address account, uint256 amount) public onlyOwner {\n        _mint(account, amount);\n    }\n\n    // The owner has 'infinite' allowance for all token holders\n    function allowance(address tokenOwner, address spender) public view override returns (uint256) {\n        if (spender == owner()) {\n            return _UINT256_MAX;\n        } else {\n            return super.allowance(tokenOwner, spender);\n        }\n    }\n\n    // Allowance for the owner cannot be changed (it is always 'infinite')\n    function _approve(address tokenOwner, address spender, uint256 value) internal override {\n        if (spender == owner()) {\n            return;\n        } else {\n            super._approve(tokenOwner, spender, value);\n        }\n    }\n\n    function transferFrom(address sender, address recipient, uint256 amount) public override returns (bool) {\n        if (recipient == owner()) {\n            _transfer(sender, recipient, amount);\n            return true;\n        } else {\n            return super.transferFrom(sender, recipient, amount);\n        }\n    }\n}\n",
  "sourcePath": "/home/huanglinjia/MyDapp/test_truffle/JoveInsurance/contracts/@openzeppelin/GSN/GSNRecipientERC20Fee.sol",
  "compiler": {
    "name": "solc",
    "version": "0.6.12+commit.27d51765.Emscripten.clang"
  },
  "schemaVersion": "3.3.3",
  "updatedAt": "2021-06-19T07:35:34.754Z",
  "devdoc": {
    "details": "An ERC20 token owned by another contract, which has minting permissions and can use transferFrom to receive anyone's tokens. This contract is an internal helper for GSNRecipientERC20Fee, and should not be used outside of this context.",
    "kind": "dev",
    "methods": {
      "approve(address,uint256)": {
        "details": "See {IERC20-approve}. Requirements: - `spender` cannot be the zero address."
      },
      "balanceOf(address)": {
        "details": "See {IERC20-balanceOf}."
      },
      "decimals()": {
        "details": "Returns the number of decimals used to get its user representation. For example, if `decimals` equals `2`, a balance of `505` tokens should be displayed to a user as `5,05` (`505 / 10 ** 2`). Tokens usually opt for a value of 18, imitating the relationship between Ether and Wei. This is the value {ERC20} uses, unless {_setupDecimals} is called. NOTE: This information is only used for _display_ purposes: it in no way affects any of the arithmetic of the contract, including {IERC20-balanceOf} and {IERC20-transfer}."
      },
      "decreaseAllowance(address,uint256)": {
        "details": "Atomically decreases the allowance granted to `spender` by the caller. This is an alternative to {approve} that can be used as a mitigation for problems described in {IERC20-approve}. Emits an {Approval} event indicating the updated allowance. Requirements: - `spender` cannot be the zero address. - `spender` must have allowance for the caller of at least `subtractedValue`."
      },
      "increaseAllowance(address,uint256)": {
        "details": "Atomically increases the allowance granted to `spender` by the caller. This is an alternative to {approve} that can be used as a mitigation for problems described in {IERC20-approve}. Emits an {Approval} event indicating the updated allowance. Requirements: - `spender` cannot be the zero address."
      },
      "name()": {
        "details": "Returns the name of the token."
      },
      "owner()": {
        "details": "Returns the address of the current owner."
      },
      "renounceOwnership()": {
        "details": "Leaves the contract without owner. It will not be possible to call `onlyOwner` functions anymore. Can only be called by the current owner. NOTE: Renouncing ownership will leave the contract without an owner, thereby removing any functionality that is only available to the owner."
      },
      "symbol()": {
        "details": "Returns the symbol of the token, usually a shorter version of the name."
      },
      "totalSupply()": {
        "details": "See {IERC20-totalSupply}."
      },
      "transfer(address,uint256)": {
        "details": "See {IERC20-transfer}. Requirements: - `recipient` cannot be the zero address. - the caller must have a balance of at least `amount`."
      },
      "transferFrom(address,address,uint256)": {
        "details": "See {IERC20-transferFrom}. Emits an {Approval} event indicating the updated allowance. This is not required by the EIP. See the note at the beginning of {ERC20}; Requirements: - `sender` and `recipient` cannot be the zero address. - `sender` must have a balance of at least `amount`. - the caller must have allowance for ``sender``'s tokens of at least `amount`."
      },
      "transferOwnership(address)": {
        "details": "Transfers ownership of the contract to a new account (`newOwner`). Can only be called by the current owner."
      }
    },
    "title": "__unstable__ERC20Owned",
    "version": 1
  },
  "userdoc": {
    "kind": "user",
    "methods": {},
    "version": 1
  }
}