{
  "contractName": "AToken",
  "abi": [
    {
      "inputs": [],
      "stateMutability": "nonpayable",
      "type": "constructor"
    },
    {
      "anonymous": false,
      "inputs": [
        {
          "indexed": true,
          "internalType": "address",
          "name": "owner",
          "type": "address"
        },
        {
          "indexed": true,
          "internalType": "address",
          "name": "spender",
          "type": "address"
        },
        {
          "indexed": false,
          "internalType": "uint256",
          "name": "value",
          "type": "uint256"
        }
      ],
      "name": "Approval",
      "type": "event"
    },
    {
      "anonymous": false,
      "inputs": [
        {
          "indexed": true,
          "internalType": "address",
          "name": "previousOwner",
          "type": "address"
        },
        {
          "indexed": true,
          "internalType": "address",
          "name": "newOwner",
          "type": "address"
        }
      ],
      "name": "OwnershipTransferred",
      "type": "event"
    },
    {
      "anonymous": false,
      "inputs": [
        {
          "indexed": true,
          "internalType": "address",
          "name": "from",
          "type": "address"
        },
        {
          "indexed": true,
          "internalType": "address",
          "name": "to",
          "type": "address"
        },
        {
          "indexed": false,
          "internalType": "uint256",
          "name": "value",
          "type": "uint256"
        }
      ],
      "name": "Transfer",
      "type": "event"
    },
    {
      "inputs": [],
      "name": "admin",
      "outputs": [
        {
          "internalType": "address",
          "name": "",
          "type": "address"
        }
      ],
      "stateMutability": "view",
      "type": "function"
    },
    {
      "inputs": [
        {
          "internalType": "address",
          "name": "owner",
          "type": "address"
        },
        {
          "internalType": "address",
          "name": "spender",
          "type": "address"
        }
      ],
      "name": "allowance",
      "outputs": [
        {
          "internalType": "uint256",
          "name": "",
          "type": "uint256"
        }
      ],
      "stateMutability": "view",
      "type": "function"
    },
    {
      "inputs": [
        {
          "internalType": "address",
          "name": "spender",
          "type": "address"
        },
        {
          "internalType": "uint256",
          "name": "amount",
          "type": "uint256"
        }
      ],
      "name": "approve",
      "outputs": [
        {
          "internalType": "bool",
          "name": "",
          "type": "bool"
        }
      ],
      "stateMutability": "nonpayable",
      "type": "function"
    },
    {
      "inputs": [
        {
          "internalType": "address",
          "name": "account",
          "type": "address"
        }
      ],
      "name": "balanceOf",
      "outputs": [
        {
          "internalType": "uint256",
          "name": "",
          "type": "uint256"
        }
      ],
      "stateMutability": "view",
      "type": "function"
    },
    {
      "inputs": [],
      "name": "decimals",
      "outputs": [
        {
          "internalType": "uint8",
          "name": "",
          "type": "uint8"
        }
      ],
      "stateMutability": "view",
      "type": "function"
    },
    {
      "inputs": [
        {
          "internalType": "address",
          "name": "spender",
          "type": "address"
        },
        {
          "internalType": "uint256",
          "name": "subtractedValue",
          "type": "uint256"
        }
      ],
      "name": "decreaseAllowance",
      "outputs": [
        {
          "internalType": "bool",
          "name": "",
          "type": "bool"
        }
      ],
      "stateMutability": "nonpayable",
      "type": "function"
    },
    {
      "inputs": [
        {
          "internalType": "address",
          "name": "spender",
          "type": "address"
        },
        {
          "internalType": "uint256",
          "name": "addedValue",
          "type": "uint256"
        }
      ],
      "name": "increaseAllowance",
      "outputs": [
        {
          "internalType": "bool",
          "name": "",
          "type": "bool"
        }
      ],
      "stateMutability": "nonpayable",
      "type": "function"
    },
    {
      "inputs": [
        {
          "internalType": "address",
          "name": "addr",
          "type": "address"
        }
      ],
      "name": "isOwner",
      "outputs": [
        {
          "internalType": "bool",
          "name": "",
          "type": "bool"
        }
      ],
      "stateMutability": "view",
      "type": "function"
    },
    {
      "inputs": [],
      "name": "name",
      "outputs": [
        {
          "internalType": "string",
          "name": "",
          "type": "string"
        }
      ],
      "stateMutability": "view",
      "type": "function"
    },
    {
      "inputs": [],
      "name": "owner",
      "outputs": [
        {
          "internalType": "address",
          "name": "",
          "type": "address"
        }
      ],
      "stateMutability": "view",
      "type": "function"
    },
    {
      "inputs": [],
      "name": "renounceOwnership",
      "outputs": [],
      "stateMutability": "nonpayable",
      "type": "function"
    },
    {
      "inputs": [],
      "name": "symbol",
      "outputs": [
        {
          "internalType": "string",
          "name": "",
          "type": "string"
        }
      ],
      "stateMutability": "view",
      "type": "function"
    },
    {
      "inputs": [],
      "name": "totalSupply",
      "outputs": [
        {
          "internalType": "uint256",
          "name": "",
          "type": "uint256"
        }
      ],
      "stateMutability": "view",
      "type": "function"
    },
    {
      "inputs": [
        {
          "internalType": "address",
          "name": "recipient",
          "type": "address"
        },
        {
          "internalType": "uint256",
          "name": "amount",
          "type": "uint256"
        }
      ],
      "name": "transfer",
      "outputs": [
        {
          "internalType": "bool",
          "name": "",
          "type": "bool"
        }
      ],
      "stateMutability": "nonpayable",
      "type": "function"
    },
    {
      "inputs": [
        {
          "internalType": "address",
          "name": "sender",
          "type": "address"
        },
        {
          "internalType": "address",
          "name": "recipient",
          "type": "address"
        },
        {
          "internalType": "uint256",
          "name": "amount",
          "type": "uint256"
        }
      ],
      "name": "transferFrom",
      "outputs": [
        {
          "internalType": "bool",
          "name": "",
          "type": "bool"
        }
      ],
      "stateMutability": "nonpayable",
      "type": "function"
    },
    {
      "inputs": [
        {
          "internalType": "address",
          "name": "newOwner",
          "type": "address"
        }
      ],
      "name": "transferOwnership",
      "outputs": [],
      "stateMutability": "nonpayable",
      "type": "function"
    },
    {
      "inputs": [
        {
          "internalType": "address",
          "name": "account",
          "type": "address"
        },
        {
          "internalType": "uint256",
          "name": "amount",
          "type": "uint256"
        }
      ],
      "name": "mint",
      "outputs": [],
      "stateMutability": "nonpayable",
      "type": "function"
    }
  ],
  "bytecode": "0x60806040523480156200001157600080fd5b50604080518082018252600681526520aa37b5b2b760d11b602080830191825283518085019094526002845261105560f21b9084015281519192916200005a91600391620002ab565b50805162000070906004906020840190620002ab565b50506005805460ff191660121790555060006200008c620000fc565b60058054610100600160a81b0319166101006001600160a01b03841690810291909117909155604051919250906000907f8be0079c531659141344cd1fd0a4f28419497f9722a3daafe3b4186f6b6457e0908290a350620000f6620000f0620000fc565b62000100565b62000347565b3390565b6001600160a01b0381166200015c576040805162461bcd60e51b815260206004820152601a60248201527f7365744f776e61626c652073686f756c64206e6f742062652030000000000000604482015290519081900360640190fd5b6006546001600160a01b031615620001b0576040805162461bcd60e51b815260206004820152601260248201527105f6f776e65722073686f756c6420626520360741b604482015290519081900360640190fd5b600680546001600160a01b0319166001600160a01b038316179055620001d681620001d9565b50565b6001600160a01b03811662000235576040805162461bcd60e51b815260206004820152601a60248201527f7365744f776e61626c652073686f756c64206e6f742062652030000000000000604482015290519081900360640190fd5b6007546001600160a01b03161562000289576040805162461bcd60e51b815260206004820152601260248201527105f6f776e65722073686f756c6420626520360741b604482015290519081900360640190fd5b600780546001600160a01b0319166001600160a01b0392909216919091179055565b828054600181600116156101000203166002900490600052602060002090601f016020900481019282601f10620002ee57805160ff19168380011785556200031e565b828001600101855582156200031e579182015b828111156200031e57825182559160200191906001019062000301565b506200032c92915062000330565b5090565b5b808211156200032c576000815560010162000331565b610eae80620003576000396000f3fe608060405234801561001057600080fd5b506004361061010b5760003560e01c806370a08231116100a2578063a457c2d711610071578063a457c2d714610315578063a9059cbb14610341578063dd62ed3e1461036d578063f2fde38b1461039b578063f851a440146103c15761010b565b806370a08231146102bb578063715018a6146102e15780638da5cb5b146102e957806395d89b411461030d5761010b565b80632f54bf6e116100de5780632f54bf6e1461021d578063313ce56714610243578063395093511461026157806340c10f191461028d5761010b565b806306fdde0314610110578063095ea7b31461018d57806318160ddd146101cd57806323b872dd146101e7575b600080fd5b6101186103c9565b6040805160208082528351818301528351919283929083019185019080838360005b8381101561015257818101518382015260200161013a565b50505050905090810190601f16801561017f5780820380516001836020036101000a031916815260200191505b509250505060405180910390f35b6101b9600480360360408110156101a357600080fd5b506001600160a01b03813516906020013561045f565b604080519115158252519081900360200190f35b6101d561047c565b60408051918252519081900360200190f35b6101b9600480360360608110156101fd57600080fd5b506001600160a01b03813581169160208101359091169060400135610482565b6101b96004803603602081101561023357600080fd5b50356001600160a01b0316610509565b61024b610525565b6040805160ff9092168252519081900360200190f35b6101b96004803603604081101561027757600080fd5b506001600160a01b03813516906020013561052e565b6102b9600480360360408110156102a357600080fd5b506001600160a01b03813516906020013561057c565b005b6101d5600480360360208110156102d157600080fd5b50356001600160a01b03166105f9565b6102b9610614565b6102f16106d3565b604080516001600160a01b039092168252519081900360200190f35b6101186106e7565b6101b96004803603604081101561032b57600080fd5b506001600160a01b038135169060200135610748565b6101b96004803603604081101561035757600080fd5b506001600160a01b0381351690602001356107b0565b6101d56004803603604081101561038357600080fd5b506001600160a01b03813581169160200135166107c4565b6102b9600480360360208110156103b157600080fd5b50356001600160a01b03166107ef565b6102f161090a565b60038054604080516020601f60026000196101006001881615020190951694909404938401819004810282018101909252828152606093909290918301828280156104555780601f1061042a57610100808354040283529160200191610455565b820191906000526020600020905b81548152906001019060200180831161043857829003601f168201915b5050505050905090565b600061047361046c610919565b848461091d565b50600192915050565b60025490565b600061048f848484610a09565b6104ff8461049b610919565b6104fa85604051806060016040528060288152602001610de3602891396001600160a01b038a166000908152600160205260408120906104d9610919565b6001600160a01b031681526020810191909152604001600020549190610b64565b61091d565b5060019392505050565b60055461010090046001600160a01b0390811690821614919050565b60055460ff1690565b600061047361053b610919565b846104fa856001600061054c610919565b6001600160a01b03908116825260208083019390935260409182016000908120918c168152925290205490610bfb565b610584610919565b60055461010090046001600160a01b039081169116146105eb576040805162461bcd60e51b815260206004820181905260248201527f4f776e61626c653a2063616c6c6572206973206e6f7420746865206f776e6572604482015290519081900360640190fd5b6105f58282610c5c565b5050565b6001600160a01b031660009081526020819052604090205490565b61061c610919565b60055461010090046001600160a01b03908116911614610683576040805162461bcd60e51b815260206004820181905260248201527f4f776e61626c653a2063616c6c6572206973206e6f7420746865206f776e6572604482015290519081900360640190fd5b60055460405160009161010090046001600160a01b0316907f8be0079c531659141344cd1fd0a4f28419497f9722a3daafe3b4186f6b6457e0908390a360058054610100600160a81b0319169055565b60055461010090046001600160a01b031690565b60048054604080516020601f60026000196101006001881615020190951694909404938401819004810282018101909252828152606093909290918301828280156104555780601f1061042a57610100808354040283529160200191610455565b6000610473610755610919565b846104fa85604051806060016040528060258152602001610e54602591396001600061077f610919565b6001600160a01b03908116825260208083019390935260409182016000908120918d16815292529020549190610b64565b60006104736107bd610919565b8484610a09565b6001600160a01b03918216600090815260016020908152604080832093909416825291909152205490565b6107f7610919565b60055461010090046001600160a01b0390811691161461085e576040805162461bcd60e51b815260206004820181905260248201527f4f776e61626c653a2063616c6c6572206973206e6f7420746865206f776e6572604482015290519081900360640190fd5b6001600160a01b0381166108a35760405162461bcd60e51b8152600401808060200182810382526026815260200180610d756026913960400191505060405180910390fd5b6005546040516001600160a01b0380841692610100900416907f8be0079c531659141344cd1fd0a4f28419497f9722a3daafe3b4186f6b6457e090600090a3600580546001600160a01b0390921661010002610100600160a81b0319909216919091179055565b6007546001600160a01b031690565b3390565b6001600160a01b0383166109625760405162461bcd60e51b8152600401808060200182810382526024815260200180610e306024913960400191505060405180910390fd5b6001600160a01b0382166109a75760405162461bcd60e51b8152600401808060200182810382526022815260200180610d9b6022913960400191505060405180910390fd5b6001600160a01b03808416600081815260016020908152604080832094871680845294825291829020859055815185815291517f8c5be1e5ebec7d5bd14f71427d1e84f3dd0314c0f7b2291e5b200ac8c7c3b9259281900390910190a3505050565b6001600160a01b038316610a4e5760405162461bcd60e51b8152600401808060200182810382526025815260200180610e0b6025913960400191505060405180910390fd5b6001600160a01b038216610a935760405162461bcd60e51b8152600401808060200182810382526023815260200180610d526023913960400191505060405180910390fd5b610a9e838383610d4c565b610adb81604051806060016040528060268152602001610dbd602691396001600160a01b0386166000908152602081905260409020549190610b64565b6001600160a01b038085166000908152602081905260408082209390935590841681522054610b0a9082610bfb565b6001600160a01b038084166000818152602081815260409182902094909455805185815290519193928716927fddf252ad1be2c89b69c2b068fc378daa952ba7f163c4a11628f55a4df523b3ef92918290030190a3505050565b60008184841115610bf35760405162461bcd60e51b81526004018080602001828103825283818151815260200191508051906020019080838360005b83811015610bb8578181015183820152602001610ba0565b50505050905090810190601f168015610be55780820380516001836020036101000a031916815260200191505b509250505060405180910390fd5b505050900390565b600082820183811015610c55576040805162461bcd60e51b815260206004820152601b60248201527f536166654d6174683a206164646974696f6e206f766572666c6f770000000000604482015290519081900360640190fd5b9392505050565b6001600160a01b038216610cb7576040805162461bcd60e51b815260206004820152601f60248201527f45524332303a206d696e7420746f20746865207a65726f206164647265737300604482015290519081900360640190fd5b610cc360008383610d4c565b600254610cd09082610bfb565b6002556001600160a01b038216600090815260208190526040902054610cf69082610bfb565b6001600160a01b0383166000818152602081815260408083209490945583518581529351929391927fddf252ad1be2c89b69c2b068fc378daa952ba7f163c4a11628f55a4df523b3ef9281900390910190a35050565b50505056fe45524332303a207472616e7366657220746f20746865207a65726f20616464726573734f776e61626c653a206e6577206f776e657220697320746865207a65726f206164647265737345524332303a20617070726f766520746f20746865207a65726f206164647265737345524332303a207472616e7366657220616d6f756e7420657863656564732062616c616e636545524332303a207472616e7366657220616d6f756e74206578636565647320616c6c6f77616e636545524332303a207472616e736665722066726f6d20746865207a65726f206164647265737345524332303a20617070726f76652066726f6d20746865207a65726f206164647265737345524332303a2064656372656173656420616c6c6f77616e63652062656c6f77207a65726fa264697066735822122070ae471cca5ff3e4ffcbaf49f744daa61f12435637bc76336e0f6b9338d6d16e64736f6c634300060c0033",
  "immutableReferences": {},
  "source": "//SPDX-License-Identifier: SimPL-2.0\npragma solidity >=0.6.0 <0.7.0;\nimport \"./@openzeppelin/token/ERC20/ERC20.sol\";\nimport \"./@openzeppelin/token/ERC20/SafeERC20.sol\";\nimport \"./@openzeppelin/token/ERC20/IERC20.sol\";\nimport \"./ProxyOwnable1.sol\";\n\ncontract AToken is ERC20, ProxyOwnable {\n    using SafeERC20 for IERC20;\n    \n    constructor() ERC20(\"AToken\", \"AT\") public {\n    \tsetOwnable(_msgSender());\n    } \n    \n    function mint(address account, uint256 amount) public onlyOwner {\n    \t_mint(account, amount);\n    }\n}\n",
  "sourcePath": "/home/huanglinjia/MyDapp/test_truffle/JoveInsurance/contracts/AToken.sol",
  "compiler": {
    "name": "solc",
    "version": "0.6.12+commit.27d51765.Emscripten.clang"
  },
  "schemaVersion": "3.3.3",
  "updatedAt": "2021-06-19T07:35:34.929Z",
  "devdoc": {
    "kind": "dev",
    "methods": {
      "allowance(address,address)": {
        "details": "See {IERC20-allowance}."
      },
      "approve(address,uint256)": {
        "details": "See {IERC20-approve}. Requirements: - `spender` cannot be the zero address."
      },
      "balanceOf(address)": {
        "details": "See {IERC20-balanceOf}."
      },
      "decimals()": {
        "details": "Returns the number of decimals used to get its user representation. For example, if `decimals` equals `2`, a balance of `505` tokens should be displayed to a user as `5,05` (`505 / 10 ** 2`). Tokens usually opt for a value of 18, imitating the relationship between Ether and Wei. This is the value {ERC20} uses, unless {_setupDecimals} is called. NOTE: This information is only used for _display_ purposes: it in no way affects any of the arithmetic of the contract, including {IERC20-balanceOf} and {IERC20-transfer}."
      },
      "decreaseAllowance(address,uint256)": {
        "details": "Atomically decreases the allowance granted to `spender` by the caller. This is an alternative to {approve} that can be used as a mitigation for problems described in {IERC20-approve}. Emits an {Approval} event indicating the updated allowance. Requirements: - `spender` cannot be the zero address. - `spender` must have allowance for the caller of at least `subtractedValue`."
      },
      "increaseAllowance(address,uint256)": {
        "details": "Atomically increases the allowance granted to `spender` by the caller. This is an alternative to {approve} that can be used as a mitigation for problems described in {IERC20-approve}. Emits an {Approval} event indicating the updated allowance. Requirements: - `spender` cannot be the zero address."
      },
      "name()": {
        "details": "Returns the name of the token."
      },
      "owner()": {
        "details": "Returns the address of the current owner."
      },
      "renounceOwnership()": {
        "details": "Leaves the contract without owner. It will not be possible to call `onlyOwner` functions anymore. Can only be called by the current owner. NOTE: Renouncing ownership will leave the contract without an owner, thereby removing any functionality that is only available to the owner."
      },
      "symbol()": {
        "details": "Returns the symbol of the token, usually a shorter version of the name."
      },
      "totalSupply()": {
        "details": "See {IERC20-totalSupply}."
      },
      "transfer(address,uint256)": {
        "details": "See {IERC20-transfer}. Requirements: - `recipient` cannot be the zero address. - the caller must have a balance of at least `amount`."
      },
      "transferFrom(address,address,uint256)": {
        "details": "See {IERC20-transferFrom}. Emits an {Approval} event indicating the updated allowance. This is not required by the EIP. See the note at the beginning of {ERC20}; Requirements: - `sender` and `recipient` cannot be the zero address. - `sender` must have a balance of at least `amount`. - the caller must have allowance for ``sender``'s tokens of at least `amount`."
      },
      "transferOwnership(address)": {
        "details": "Transfers ownership of the contract to a new account (`newOwner`). Can only be called by the current owner."
      }
    },
    "version": 1
  },
  "userdoc": {
    "kind": "user",
    "methods": {},
    "version": 1
  }
}