{
  "contractName": "ERC1820Registry",
  "abi": [
    {
      "anonymous": false,
      "inputs": [
        {
          "indexed": true,
          "internalType": "address",
          "name": "addr",
          "type": "address"
        },
        {
          "indexed": true,
          "internalType": "bytes32",
          "name": "interfaceHash",
          "type": "bytes32"
        },
        {
          "indexed": true,
          "internalType": "address",
          "name": "implementer",
          "type": "address"
        }
      ],
      "name": "InterfaceImplementerSet",
      "type": "event"
    },
    {
      "anonymous": false,
      "inputs": [
        {
          "indexed": true,
          "internalType": "address",
          "name": "addr",
          "type": "address"
        },
        {
          "indexed": true,
          "internalType": "address",
          "name": "newManager",
          "type": "address"
        }
      ],
      "name": "ManagerChanged",
      "type": "event"
    },
    {
      "inputs": [
        {
          "internalType": "address",
          "name": "_addr",
          "type": "address"
        },
        {
          "internalType": "bytes32",
          "name": "_interfaceHash",
          "type": "bytes32"
        }
      ],
      "name": "getInterfaceImplementer",
      "outputs": [
        {
          "internalType": "address",
          "name": "",
          "type": "address"
        }
      ],
      "stateMutability": "view",
      "type": "function"
    },
    {
      "inputs": [
        {
          "internalType": "address",
          "name": "_addr",
          "type": "address"
        },
        {
          "internalType": "bytes32",
          "name": "_interfaceHash",
          "type": "bytes32"
        },
        {
          "internalType": "address",
          "name": "_implementer",
          "type": "address"
        }
      ],
      "name": "setInterfaceImplementer",
      "outputs": [],
      "stateMutability": "nonpayable",
      "type": "function"
    },
    {
      "inputs": [
        {
          "internalType": "address",
          "name": "_addr",
          "type": "address"
        },
        {
          "internalType": "address",
          "name": "_newManager",
          "type": "address"
        }
      ],
      "name": "setManager",
      "outputs": [],
      "stateMutability": "nonpayable",
      "type": "function"
    },
    {
      "inputs": [
        {
          "internalType": "address",
          "name": "_addr",
          "type": "address"
        }
      ],
      "name": "getManager",
      "outputs": [
        {
          "internalType": "address",
          "name": "",
          "type": "address"
        }
      ],
      "stateMutability": "view",
      "type": "function"
    },
    {
      "inputs": [
        {
          "internalType": "string",
          "name": "_interfaceName",
          "type": "string"
        }
      ],
      "name": "interfaceHash",
      "outputs": [
        {
          "internalType": "bytes32",
          "name": "",
          "type": "bytes32"
        }
      ],
      "stateMutability": "pure",
      "type": "function"
    },
    {
      "inputs": [
        {
          "internalType": "address",
          "name": "_contract",
          "type": "address"
        },
        {
          "internalType": "bytes4",
          "name": "_interfaceId",
          "type": "bytes4"
        }
      ],
      "name": "updateERC165Cache",
      "outputs": [],
      "stateMutability": "nonpayable",
      "type": "function"
    },
    {
      "inputs": [
        {
          "internalType": "address",
          "name": "_contract",
          "type": "address"
        },
        {
          "internalType": "bytes4",
          "name": "_interfaceId",
          "type": "bytes4"
        }
      ],
      "name": "implementsERC165Interface",
      "outputs": [
        {
          "internalType": "bool",
          "name": "",
          "type": "bool"
        }
      ],
      "stateMutability": "view",
      "type": "function"
    },
    {
      "inputs": [
        {
          "internalType": "address",
          "name": "_contract",
          "type": "address"
        },
        {
          "internalType": "bytes4",
          "name": "_interfaceId",
          "type": "bytes4"
        }
      ],
      "name": "implementsERC165InterfaceNoCache",
      "outputs": [
        {
          "internalType": "bool",
          "name": "",
          "type": "bool"
        }
      ],
      "stateMutability": "view",
      "type": "function"
    }
  ],
  "bytecode": "0x608060405234801561001057600080fd5b506108ea806100206000396000f3fe608060405234801561001057600080fd5b50600436106100885760003560e01c8063a41e7d511161005b578063a41e7d51146101b7578063aabbb8ca146101ed578063b705676514610219578063f712f3e81461026357610088565b806329965a1d1461008d5780633d584063146100c55780635df8122f1461010757806365ba36c114610135575b600080fd5b6100c3600480360360608110156100a357600080fd5b506001600160a01b03813581169160208101359160409091013516610299565b005b6100eb600480360360208110156100db57600080fd5b50356001600160a01b0316610501565b604080516001600160a01b039092168252519081900360200190f35b6100c36004803603604081101561011d57600080fd5b506001600160a01b038135811691602001351661054b565b6101a56004803603602081101561014b57600080fd5b81019060208101813564010000000081111561016657600080fd5b82018360208201111561017857600080fd5b8035906020019184600183028401116401000000008311171561019a57600080fd5b509092509050610624565b60408051918252519081900360200190f35b6100c3600480360360408110156101cd57600080fd5b5080356001600160a01b031690602001356001600160e01b03191661065f565b6100eb6004803603604081101561020357600080fd5b506001600160a01b0381351690602001356106dc565b61024f6004803603604081101561022f57600080fd5b5080356001600160a01b031690602001356001600160e01b031916610753565b604080519115158252519081900360200190f35b61024f6004803603604081101561027957600080fd5b5080356001600160a01b031690602001356001600160e01b0319166107f5565b60006001600160a01b038416156102b057836102b2565b335b9050336102be82610501565b6001600160a01b03161461030b576040805162461bcd60e51b815260206004820152600f60248201526e2737ba103a34329036b0b730b3b2b960891b604482015290519081900360640190fd5b61031483610873565b15610366576040805162461bcd60e51b815260206004820152601a60248201527f4d757374206e6f7420626520616e204552433136352068617368000000000000604482015290519081900360640190fd5b6001600160a01b0382161580159061038757506001600160a01b0382163314155b1561049d57604051602001808073455243313832305f4143434550545f4d4147494360601b815250601401905060405160208183030381529060405280519060200120826001600160a01b031663249cb3fa85846040518363ffffffff1660e01b815260040180838152602001826001600160a01b031681526020019250505060206040518083038186803b15801561041f57600080fd5b505afa158015610433573d6000803e3d6000fd5b505050506040513d602081101561044957600080fd5b50511461049d576040805162461bcd60e51b815260206004820181905260248201527f446f6573206e6f7420696d706c656d656e742074686520696e74657266616365604482015290519081900360640190fd5b6001600160a01b0381811660008181526020818152604080832088845290915280822080546001600160a01b0319169487169485179055518692917f93baa6efbd2244243bfee6ce4cfdd1d04fc4c0e9a786abd3a41313bd352db15391a450505050565b6001600160a01b03818116600090815260016020526040812054909116610529575080610546565b506001600160a01b03808216600090815260016020526040902054165b919050565b3361055583610501565b6001600160a01b0316146105a2576040805162461bcd60e51b815260206004820152600f60248201526e2737ba103a34329036b0b730b3b2b960891b604482015290519081900360640190fd5b816001600160a01b0316816001600160a01b0316146105c157806105c4565b60005b6001600160a01b0383811660008181526001602052604080822080546001600160a01b0319169585169590951790945592519184169290917f605c2dbf762e5f7d60a546d42e7205dcb1b011ebc62a61736a57c9089d3a43509190a35050565b600082826040516020018083838082843780830192505050925050506040516020818303038152906040528051906020012090505b92915050565b6106698282610753565b610674576000610676565b815b6001600160a01b039283166000818152602081815260408083206001600160e01b03199690961680845295825280832080546001600160a01b0319169590971694909417909555908152600284528181209281529190925220805460ff19166001179055565b6000806001600160a01b038416156106f457836106f6565b335b905061070183610873565b15610727578261071182826107f5565b61071c57600061071e565b815b92505050610659565b6001600160a01b0390811660009081526020818152604080832086845290915290205416905092915050565b60008080610768856301ffc9a760e01b610880565b9092509050811580610778575080155b1561078857600092505050610659565b61079a856001600160e01b0319610880565b90925090508115806107ab57508015155b156107bb57600092505050610659565b6107c58585610880565b90925090506001821480156107da5750806001145b156107ea57600192505050610659565b506000949350505050565b6001600160a01b03821660009081526002602090815260408083206001600160e01b03198516845290915281205460ff1661083b576108348383610753565b9050610659565b506001600160a01b038083166000818152602081815260408083206001600160e01b0319871684529091529020549091161492915050565b6001600160e01b03161590565b6040516301ffc9a760e01b8082526004820183905260009182919060208160248189617530fa90519096909550935050505056fea2646970667358221220f91190d68fb1a53e27371aba1757e0f43db1f727f8896b528df0ff81bc84f1fe64736f6c634300060c0033",
  "immutableReferences": {},
  "source": "// SPDX-License-Identifier: MIT\npragma solidity >=0.6.0 <0.7.0;\nimport \"./IERC1820Implementer.sol\";\nimport \"./IERC1820Registry.sol\";\n\n// // @dev The interface a contract MUST implement if it is the implementer of\n// // some (other) interface for any address other than itself.\n// interface ERC1820ImplementerInterface {\n//     // @notice Indicates whether the contract implements the interface 'interfaceHash' for the address 'addr' or not.\n//     // @param interfaceHash keccak256 hash of the name of the interface\n//     // @param addr Address for which the contract will implement the interface\n//     // @return ERC1820_ACCEPT_MAGIC only if the contract implements 'interfaceHash' for the address 'addr'.\n//     function canImplementInterfaceForAddress(bytes32 interfaceHash, address addr) external view returns(bytes32);\n// }\n\n\n// @title ERC1820 Pseudo-introspection Registry Contract\n// @author Jordi Baylina and Jacques Dafflon\n// @notice This contract is the official implementation of the ERC1820 Registry.\n// @notice For more details, see https://eips.ethereum.org/EIPS/eip-1820\ncontract ERC1820Registry is IERC1820Registry{\n    // @notice ERC165 Invalid ID.\n    bytes4 constant internal INVALID_ID = 0xffffffff;\n    // @notice Method ID for the ERC165 supportsInterface method (= `bytes4(keccak256('supportsInterface(bytes4)'))`).\n    bytes4 constant internal ERC165ID = 0x01ffc9a7;\n    // @notice Magic value which is returned if a contract implements an interface on behalf of some other address.\n    bytes32 constant internal ERC1820_ACCEPT_MAGIC = keccak256(abi.encodePacked(\"ERC1820_ACCEPT_MAGIC\"));\n\n    // @notice mapping from addresses and interface hashes to their implementers.\n    mapping(address => mapping(bytes32 => address)) internal interfaces;\n    // @notice mapping from addresses to their manager.\n    mapping(address => address) internal managers;\n    // @notice flag for each address and erc165 interface to indicate if it is cached.\n    mapping(address => mapping(bytes4 => bool)) internal erc165Cached;\n\n    // @notice Indicates a contract is the 'implementer' of 'interfaceHash' for 'addr'.\n    event InterfaceImplementerSet(address indexed addr, bytes32 indexed interfaceHash, address indexed implementer);\n    // @notice Indicates 'newManager' is the address of the new manager for 'addr'.\n    event ManagerChanged(address indexed addr, address indexed newManager);\n\n    // @notice Query if an address implements an interface and through which contract.\n    // @param _addr Address being queried for the implementer of an interface.\n    // (If '_addr' is the zero address then 'msg.sender' is assumed.)\n    // @param _interfaceHash Keccak256 hash of the name of the interface as a string.\n    // E.g., 'web3.utils.keccak256(\"ERC777TokensRecipient\")' for the 'ERC777TokensRecipient' interface.\n    // @return The address of the contract which implements the interface '_interfaceHash' for '_addr'\n    // or '0' if '_addr' did not register an implementer for this interface.\n    function getInterfaceImplementer(address _addr, bytes32 _interfaceHash) external view override  returns (address) {\n        address addr = _addr == address(0) ? msg.sender : _addr;\n        if (isERC165Interface(_interfaceHash)) {\n            bytes4 erc165InterfaceHash = bytes4(_interfaceHash);\n            return implementsERC165Interface(addr, erc165InterfaceHash) ? addr : address(0);\n        }\n        return interfaces[addr][_interfaceHash];\n    }\n\n    // @notice Sets the contract which implements a specific interface for an address.\n    // Only the manager defined for that address can set it.\n    // (Each address is the manager for itself until it sets a new manager.)\n    // @param _addr Address for which to set the interface.\n    // (If '_addr' is the zero address then 'msg.sender' is assumed.)\n    // @param _interfaceHash Keccak256 hash of the name of the interface as a string.\n    // E.g., 'web3.utils.keccak256(\"ERC777TokensRecipient\")' for the 'ERC777TokensRecipient' interface.\n    // @param _implementer Contract address implementing '_interfaceHash' for '_addr'.\n    function setInterfaceImplementer(address _addr, bytes32 _interfaceHash, address _implementer) external override {\n        address addr = _addr == address(0) ? msg.sender : _addr;\n        require(getManager(addr) == msg.sender, \"Not the manager\");\n\n        require(!isERC165Interface(_interfaceHash), \"Must not be an ERC165 hash\");\n        if (_implementer != address(0) && _implementer != msg.sender) {\n            require(\n                IERC1820Implementer(_implementer)\n                    .canImplementInterfaceForAddress(_interfaceHash, addr) == ERC1820_ACCEPT_MAGIC,\n                \"Does not implement the interface\"\n            );\n        }\n        interfaces[addr][_interfaceHash] = _implementer;\n        emit InterfaceImplementerSet(addr, _interfaceHash, _implementer);\n    }\n\n    // @notice Sets '_newManager' as manager for '_addr'.\n    // The new manager will be able to call 'setInterfaceImplementer' for '_addr'.\n    // @param _addr Address for which to set the new manager.\n    // @param _newManager Address of the new manager for 'addr'. (Pass '0x0' to reset the manager to '_addr'.)\n    function setManager(address _addr, address _newManager) external override {\n        require(getManager(_addr) == msg.sender, \"Not the manager\");\n        managers[_addr] = _newManager == _addr ? address(0) : _newManager;\n        emit ManagerChanged(_addr, _newManager);\n    }\n\n    // @notice Get the manager of an address.\n    // @param _addr Address for which to return the manager.\n    // @return Address of the manager for a given address.\n    function getManager(address _addr) public view override  returns(address) {\n        // By default the manager of an address is the same address\n        if (managers[_addr] == address(0)) {\n            return _addr;\n        } else {\n            return managers[_addr];\n        }\n    }\n\n    // @notice Compute the keccak256 hash of an interface given its name.\n    // @param _interfaceName Name of the interface.\n    // @return The keccak256 hash of an interface name.\n    function interfaceHash(string calldata _interfaceName) external pure override returns(bytes32) {\n        return keccak256(abi.encodePacked(_interfaceName));\n    }\n\n    /* --- ERC165 Related Functions --- */\n    /* --- Developed in collaboration with William Entriken. --- */\n\n    // @notice Updates the cache with whether the contract implements an ERC165 interface or not.\n    // @param _contract Address of the contract for which to update the cache.\n    // @param _interfaceId ERC165 interface for which to update the cache.\n    function updateERC165Cache(address _contract, bytes4 _interfaceId) external override {\n        interfaces[_contract][_interfaceId] = implementsERC165InterfaceNoCache(\n            _contract, _interfaceId) ? _contract : address(0);\n        erc165Cached[_contract][_interfaceId] = true;\n    }\n\n    // @notice Checks whether a contract implements an ERC165 interface or not.\n    //  If the result is not cached a direct lookup on the contract address is performed.\n    //  If the result is not cached or the cached value is out-of-date, the cache MUST be updated manually by calling\n    //  'updateERC165Cache' with the contract address.\n    // @param _contract Address of the contract to check.\n    // @param _interfaceId ERC165 interface to check.\n    // @return True if '_contract' implements '_interfaceId', false otherwise.\n    function implementsERC165Interface(address _contract, bytes4 _interfaceId) public view override returns (bool) {\n        if (!erc165Cached[_contract][_interfaceId]) {\n            return implementsERC165InterfaceNoCache(_contract, _interfaceId);\n        }\n        return interfaces[_contract][_interfaceId] == _contract;\n    }\n\n    // @notice Checks whether a contract implements an ERC165 interface or not without using nor updating the cache.\n    // @param _contract Address of the contract to check.\n    // @param _interfaceId ERC165 interface to check.\n    // @return True if '_contract' implements '_interfaceId', false otherwise.\n    function implementsERC165InterfaceNoCache(address _contract, bytes4 _interfaceId) public view override returns (bool) {\n        uint256 success;\n        uint256 result;\n\n        (success, result) = noThrowCall(_contract, ERC165ID);\n        if (success == 0 || result == 0) {\n            return false;\n        }\n\n        (success, result) = noThrowCall(_contract, INVALID_ID);\n        if (success == 0 || result != 0) {\n            return false;\n        }\n\n        (success, result) = noThrowCall(_contract, _interfaceId);\n        if (success == 1 && result == 1) {\n            return true;\n        }\n        return false;\n    }\n\n    // @notice Checks whether the hash is a ERC165 interface (ending with 28 zeroes) or not.\n    // @param _interfaceHash The hash to check.\n    // @return True if '_interfaceHash' is an ERC165 interface (ending with 28 zeroes), false otherwise.\n    function isERC165Interface(bytes32 _interfaceHash) internal pure returns (bool) {\n        return _interfaceHash & 0x00000000FFFFFFFFFFFFFFFFFFFFFFFFFFFFFFFFFFFFFFFFFFFFFFFFFFFFFFFF == 0;\n    }\n\n    // @dev Make a call on a contract without throwing if the function does not exist.\n    function noThrowCall(address _contract, bytes4 _interfaceId)\n        internal view returns (uint256 success, uint256 result)\n    {\n        bytes4 erc165ID = ERC165ID;\n\n        assembly {\n            let x := mload(0x40)               // Find empty storage location using \"free memory pointer\"\n            mstore(x, erc165ID)                // Place signature at beginning of empty storage\n            mstore(add(x, 0x04), _interfaceId) // Place first argument directly next to signature\n\n            success := staticcall(\n                30000,                         // 30k gas\n                _contract,                     // To addr\n                x,                             // Inputs are stored at location x\n                0x24,                          // Inputs are 36 (4 + 32) bytes long\n                x,                             // Store output over input (saves space)\n                0x20                           // Outputs are 32 bytes long\n            )\n\n            result := mload(x)                 // Load the result\n        }\n    }\n}\n",
  "sourcePath": "/home/huanglinjia/MyDapp/test_truffle/JoveInsurance/contracts/@openzeppelin/introspection/ERC1820Registry.sol",
  "compiler": {
    "name": "solc",
    "version": "0.6.12+commit.27d51765.Emscripten.clang"
  },
  "schemaVersion": "3.3.3",
  "updatedAt": "2021-06-19T07:35:34.779Z",
  "devdoc": {
    "kind": "dev",
    "methods": {},
    "version": 1
  },
  "userdoc": {
    "kind": "user",
    "methods": {},
    "version": 1
  }
}