{
  "contractName": "ERC20TokenRegister",
  "abi": [
    {
      "inputs": [],
      "stateMutability": "nonpayable",
      "type": "constructor"
    },
    {
      "anonymous": false,
      "inputs": [
        {
          "indexed": true,
          "internalType": "address",
          "name": "previousOwner",
          "type": "address"
        },
        {
          "indexed": true,
          "internalType": "address",
          "name": "newOwner",
          "type": "address"
        }
      ],
      "name": "OwnershipTransferred",
      "type": "event"
    },
    {
      "anonymous": false,
      "inputs": [
        {
          "indexed": false,
          "internalType": "address",
          "name": "account",
          "type": "address"
        }
      ],
      "name": "Paused",
      "type": "event"
    },
    {
      "anonymous": false,
      "inputs": [
        {
          "indexed": false,
          "internalType": "address",
          "name": "account",
          "type": "address"
        }
      ],
      "name": "Unpaused",
      "type": "event"
    },
    {
      "inputs": [],
      "name": "admin",
      "outputs": [
        {
          "internalType": "address",
          "name": "",
          "type": "address"
        }
      ],
      "stateMutability": "view",
      "type": "function"
    },
    {
      "inputs": [],
      "name": "contractNames",
      "outputs": [
        {
          "internalType": "bytes8[]",
          "name": "",
          "type": "bytes8[]"
        }
      ],
      "stateMutability": "view",
      "type": "function"
    },
    {
      "inputs": [],
      "name": "count",
      "outputs": [
        {
          "internalType": "uint256",
          "name": "",
          "type": "uint256"
        }
      ],
      "stateMutability": "view",
      "type": "function"
    },
    {
      "inputs": [
        {
          "internalType": "bytes8",
          "name": "name",
          "type": "bytes8"
        }
      ],
      "name": "getContract",
      "outputs": [
        {
          "internalType": "address",
          "name": "",
          "type": "address"
        }
      ],
      "stateMutability": "view",
      "type": "function"
    },
    {
      "inputs": [
        {
          "internalType": "bytes8",
          "name": "name",
          "type": "bytes8"
        }
      ],
      "name": "hasContract",
      "outputs": [
        {
          "internalType": "bool",
          "name": "",
          "type": "bool"
        }
      ],
      "stateMutability": "view",
      "type": "function"
    },
    {
      "inputs": [],
      "name": "initSponsor",
      "outputs": [],
      "stateMutability": "nonpayable",
      "type": "function"
    },
    {
      "inputs": [
        {
          "internalType": "address",
          "name": "addr",
          "type": "address"
        }
      ],
      "name": "isOwner",
      "outputs": [
        {
          "internalType": "bool",
          "name": "",
          "type": "bool"
        }
      ],
      "stateMutability": "view",
      "type": "function"
    },
    {
      "inputs": [],
      "name": "owner",
      "outputs": [
        {
          "internalType": "address",
          "name": "",
          "type": "address"
        }
      ],
      "stateMutability": "view",
      "type": "function"
    },
    {
      "inputs": [],
      "name": "pause",
      "outputs": [],
      "stateMutability": "nonpayable",
      "type": "function"
    },
    {
      "inputs": [],
      "name": "paused",
      "outputs": [
        {
          "internalType": "bool",
          "name": "",
          "type": "bool"
        }
      ],
      "stateMutability": "view",
      "type": "function"
    },
    {
      "inputs": [
        {
          "internalType": "bytes8",
          "name": "name",
          "type": "bytes8"
        },
        {
          "internalType": "address",
          "name": "contractAddr",
          "type": "address"
        }
      ],
      "name": "registerContract",
      "outputs": [],
      "stateMutability": "nonpayable",
      "type": "function"
    },
    {
      "inputs": [],
      "name": "renounceOwnership",
      "outputs": [],
      "stateMutability": "nonpayable",
      "type": "function"
    },
    {
      "inputs": [
        {
          "internalType": "address",
          "name": "newOwner",
          "type": "address"
        }
      ],
      "name": "transferOwnership",
      "outputs": [],
      "stateMutability": "nonpayable",
      "type": "function"
    },
    {
      "inputs": [],
      "name": "unpause",
      "outputs": [],
      "stateMutability": "nonpayable",
      "type": "function"
    },
    {
      "inputs": [
        {
          "internalType": "bytes8",
          "name": "name",
          "type": "bytes8"
        }
      ],
      "name": "unregisterContract",
      "outputs": [],
      "stateMutability": "nonpayable",
      "type": "function"
    },
    {
      "inputs": [
        {
          "internalType": "bytes8",
          "name": "name",
          "type": "bytes8"
        }
      ],
      "name": "getToken",
      "outputs": [
        {
          "internalType": "address",
          "name": "",
          "type": "address"
        }
      ],
      "stateMutability": "view",
      "type": "function"
    },
    {
      "inputs": [],
      "name": "getAllTokens",
      "outputs": [
        {
          "internalType": "address[]",
          "name": "",
          "type": "address[]"
        }
      ],
      "stateMutability": "view",
      "type": "function"
    },
    {
      "inputs": [
        {
          "internalType": "bytes8",
          "name": "coinName",
          "type": "bytes8"
        },
        {
          "internalType": "address",
          "name": "addr",
          "type": "address"
        }
      ],
      "name": "getTokenBalance",
      "outputs": [
        {
          "internalType": "uint256",
          "name": "",
          "type": "uint256"
        }
      ],
      "stateMutability": "view",
      "type": "function"
    },
    {
      "inputs": [
        {
          "internalType": "address",
          "name": "addr",
          "type": "address"
        }
      ],
      "name": "getAllTokenBalances",
      "outputs": [
        {
          "internalType": "uint256",
          "name": "",
          "type": "uint256"
        },
        {
          "internalType": "uint256[]",
          "name": "",
          "type": "uint256[]"
        },
        {
          "internalType": "address[]",
          "name": "",
          "type": "address[]"
        }
      ],
      "stateMutability": "view",
      "type": "function"
    },
    {
      "inputs": [
        {
          "internalType": "address",
          "name": "addr",
          "type": "address"
        },
        {
          "internalType": "uint256",
          "name": "rawAmount",
          "type": "uint256"
        },
        {
          "internalType": "bytes8",
          "name": "coinName",
          "type": "bytes8"
        }
      ],
      "name": "getTransferAmount",
      "outputs": [
        {
          "internalType": "uint256[]",
          "name": "",
          "type": "uint256[]"
        },
        {
          "internalType": "address[]",
          "name": "",
          "type": "address[]"
        }
      ],
      "stateMutability": "view",
      "type": "function"
    }
  ],
  "bytecode": "0x60806040523480156200001157600080fd5b503360006200001f62000088565b600080546001600160a01b0319166001600160a01b0383169081178255604051929350917f8be0079c531659141344cd1fd0a4f28419497f9722a3daafe3b4186f6b6457e0908290a3506002805460ff60a01b1916905562000081816200008c565b5062000237565b3390565b6001600160a01b038116620000e8576040805162461bcd60e51b815260206004820152601a60248201527f7365744f776e61626c652073686f756c64206e6f742062652030000000000000604482015290519081900360640190fd5b6001546001600160a01b0316156200013c576040805162461bcd60e51b815260206004820152601260248201527105f6f776e65722073686f756c6420626520360741b604482015290519081900360640190fd5b600180546001600160a01b0319166001600160a01b038316179055620001628162000165565b50565b6001600160a01b038116620001c1576040805162461bcd60e51b815260206004820152601a60248201527f7365744f776e61626c652073686f756c64206e6f742062652030000000000000604482015290519081900360640190fd5b6002546001600160a01b03161562000215576040805162461bcd60e51b815260206004820152601260248201527105f6f776e65722073686f756c6420626520360741b604482015290519081900360640190fd5b600280546001600160a01b0319166001600160a01b0392909216919091179055565b6119a480620002476000396000f3fe608060405234801561001057600080fd5b506004361061012c5760003560e01c8063715018a6116100ad578063b058e1af11610071578063b058e1af146103d2578063b51bc5af146103f9578063e97688af14610401578063f2fde38b146104d6578063f851a440146104fc5761012c565b8063715018a61461036c5780638456cb59146103745780638da5cb5b1461037c5780639350ebe2146103845780639e252cda146103ab5761012c565b80632f54bf6e116100f45780632f54bf6e146102195780632fd8bff9146102535780633f4ba83a146102965780635c975abb1461029e578063681bec6c146102a65761012c565b806306661abd146101315780630da881931461014b57806311afda79146101a357806327387048146101db5780632a5c792a14610211575b600080fd5b610139610504565b60408051918252519081900360200190f35b61015361050a565b60408051602080825283518183015283519192839290830191858101910280838360005b8381101561018f578181015183820152602001610177565b505050509050019250505060405180910390f35b6101d9600480360360408110156101b957600080fd5b5080356001600160c01b03191690602001356001600160a01b03166105f7565b005b610139600480360360408110156101f157600080fd5b5080356001600160c01b03191690602001356001600160a01b0316610754565b6101536107dd565b61023f6004803603602081101561022f57600080fd5b50356001600160a01b031661088c565b604080519115158252519081900360200190f35b61027a6004803603602081101561026957600080fd5b50356001600160c01b0319166108a3565b604080516001600160a01b039092168252519081900360200190f35b6101d96108c8565b61023f6109d6565b6102cc600480360360208110156102bc57600080fd5b50356001600160a01b03166109e6565b604051808481526020018060200180602001838103835285818151815260200191508051906020019060200280838360005b838110156103165781810151838201526020016102fe565b50505050905001838103825284818151815260200191508051906020019060200280838360005b8381101561035557818101518382015260200161033d565b505050509050019550505050505060405180910390f35b6101d9610ac3565b6101d9610b65565b61027a610c59565b61023f6004803603602081101561039a57600080fd5b50356001600160c01b031916610c68565b6101d9600480360360208110156103c157600080fd5b50356001600160c01b031916610c8f565b61027a600480360360208110156103e857600080fd5b50356001600160c01b031916610d8d565b6101d9610de8565b61043d6004803603606081101561041757600080fd5b5080356001600160a01b031690602081013590604001356001600160c01b031916610edf565b604051808060200180602001838103835285818151815260200191508051906020019060200280838360005b83811015610481578181015183820152602001610469565b50505050905001838103825284818151815260200191508051906020019060200280838360005b838110156104c05781810151838201526020016104a8565b5050505090500194505050505060405180910390f35b6101d9600480360360208110156104ec57600080fd5b50356001600160a01b0316611320565b61027a611418565b60055481565b60608060055467ffffffffffffffff8111801561052657600080fd5b50604051908082528060200260200182016040528015610550578160200160208202803683370190505b5090506000805b6004548110156105ef5760006004828154811061057057fe5b6000918252602080832060048304015460039283166008026101000a900460c01b6001600160c01b0319811684529190526040909120549091506001600160a01b0316156105e657808484815181106105c557fe5b6001600160c01b031990921660209283029190910190910152600192909201915b50600101610557565b509091505090565b6105ff611427565b6000546001600160a01b0390811691161461064f576040805162461bcd60e51b8152602060048201819052602482015260008051602061194f833981519152604482015290519081900360640190fd5b6001600160c01b031982166000908152600360205260409020546001600160a01b0316156106ae5760405162461bcd60e51b815260040180806020018281038252602181526020018061190d6021913960400191505060405180910390fd5b6001600160c01b031982166000908152600360208190526040822080546001600160a01b0319166001600160a01b0394909416939093179092556004805460018181018355928290527f8a35acfbc15ff81a39ae7d344fd709f28e8600b4aa8c65c6b64bfe7fe36bd19b91810491909101805467ffffffffffffffff929094166008026101000a9182021990931660c09490941c02929092179055600580549091019055565b600061075f83610c68565b6107b0576040805162461bcd60e51b815260206004820152601860248201527f636f696e4e616d65206973206e6f742072656769737465640000000000000000604482015290519081900360640190fd5b60006107bb84610d8d565b905060006107d26001600160a01b0383168561142b565b925050505b92915050565b6060806107e861050a565b90506060815167ffffffffffffffff8111801561080457600080fd5b5060405190808252806020026020018201604052801561082e578160200160208202803683370190505b50905060005b82518110156108855761085983828151811061084c57fe5b60200260200101516108a3565b82828151811061086557fe5b6001600160a01b0390921660209283029190910190910152600101610834565b5091505090565b6000546001600160a01b038281169116145b919050565b6001600160c01b0319166000908152600360205260409020546001600160a01b031690565b6108d0611427565b6002546001600160a01b0390811691161461092e576040805162461bcd60e51b81526020600482015260196024820152783cb7ba9030b932903737ba103a34329030b236b4b739ba32b960391b604482015290519081900360640190fd5b600254600160a01b900460ff16610983576040805162461bcd60e51b815260206004820152601460248201527314185d5cd8589b194e881b9bdd081c185d5cd95960621b604482015290519081900360640190fd5b6002805460ff60a01b191690557f5db9ee0a495bf2e6ff9c91a7834c1ba4fdd244a5e8aa4e537bd38aeae4b073aa6109b9611427565b604080516001600160a01b039092168252519081900360200190a1565b600254600160a01b900460ff1690565b600060608060606109f56107dd565b905060006060825167ffffffffffffffff81118015610a1357600080fd5b50604051908082528060200260200182016040528015610a3d578160200160208202803683370190505b50905060005b8351811015610ab5576000848281518110610a5a57fe5b602002602001015190506000610a828a836001600160a01b031661142b90919063ffffffff16565b905080848481518110610a9157fe5b6020908102919091010152610aa6858261153a565b94505050806001019050610a43565b509096909550909350915050565b610acb611427565b6000546001600160a01b03908116911614610b1b576040805162461bcd60e51b8152602060048201819052602482015260008051602061194f833981519152604482015290519081900360640190fd5b600080546040516001600160a01b03909116907f8be0079c531659141344cd1fd0a4f28419497f9722a3daafe3b4186f6b6457e0908390a3600080546001600160a01b0319169055565b610b6d611427565b6002546001600160a01b03908116911614610bcb576040805162461bcd60e51b81526020600482015260196024820152783cb7ba9030b932903737ba103a34329030b236b4b739ba32b960391b604482015290519081900360640190fd5b600254600160a01b900460ff1615610c1d576040805162461bcd60e51b815260206004820152601060248201526f14185d5cd8589b194e881c185d5cd95960821b604482015290519081900360640190fd5b6002805460ff60a01b1916600160a01b1790557f62e78cea01bee320cd4e420270b5ea74000d11b0c9f74754ebdbfc544b05a2586109b9611427565b6000546001600160a01b031690565b6001600160c01b0319166000908152600360205260409020546001600160a01b0316151590565b610c97611427565b6000546001600160a01b03908116911614610ce7576040805162461bcd60e51b8152602060048201819052602482015260008051602061194f833981519152604482015290519081900360640190fd5b6001600160c01b031981166000908152600360205260409020546001600160a01b0316610d5b576040805162461bcd60e51b815260206004820152601d60248201527f54686973206e616d6520636f6e7472616374206e6f7420657869737473000000604482015290519081900360640190fd5b6001600160c01b031916600090815260036020526040902080546001600160a01b031916905560058054600019019055565b6000610d9882610c68565b610ddf576040805162461bcd60e51b815260206004820152601360248201527227379039bab1b41022a9219918103a37b5b2b760691b604482015290519081900360640190fd5b6107d7826108a3565b604080516001808252818301909252730888000000000000000000000000000000000001916060919060208083019080368337019050509050600081600081518110610e3057fe5b6001600160a01b03928316602091820292909201810191909152604051630809469f60e11b815260048101828152845160248301528451938616936310128d3e9386938392604490910191858101910280838360005b83811015610e9e578181015183820152602001610e86565b5050505090500192505050600060405180830381600087803b158015610ec357600080fd5b505af1158015610ed7573d6000803e3d6000fd5b505050505050565b6060806000606080610ef0886109e6565b9250925092508660001415610f03578296505b8683811115610f4f576040805162461bcd60e51b8152602060048201526013602482015272416d6f756e7420697320746f6f206c6172676560681b604482015290519081900360640190fd5b600080610f5b89610c68565b1561103657610f6989610d8d565b9150610f7e6001600160a01b0383168c61142b565b905082811061101d576040805160018082528183019092526060916020808301908036833750506040805160018082528183019092529293506060929150602080830190803683370190505090508482600081518110610fda57fe5b6020026020010181815250508381600081518110610ff457fe5b6001600160a01b0390921660209283029190910190910152909850965061131895505050505050565b611027868261159b565b9550611033838261159b565b92505b6000861161107b576040805162461bcd60e51b815260206004820152600d60248201526c073756d2073686f756c64203e3609c1b604482015290519081900360640190fd5b6060855167ffffffffffffffff8111801561109557600080fd5b506040519080825280602002602001820160405280156110bf578160200160208202803683370190505b5090506000805b825181101561119e57846001600160a01b03168782815181106110e557fe5b60200260200101516001600160a01b03161415611125578383828151811061110957fe5b602090810291909101015261111e828561153a565b9150611196565b6111558961114f8a848151811061113857fe5b6020026020010151896115dd90919063ffffffff16565b90611636565b83828151811061116157fe5b60200260200101818152505061119383828151811061117c57fe5b60200260200101518361153a90919063ffffffff16565b91505b6001016110c6565b508b8111156111f4576040805162461bcd60e51b815260206004820152601c60248201527f53756d206f662063616c632073686f756c64203c3d20616d6f756e7400000000604482015290519081900360640190fd5b8b81101561130c5760006112088d8361159b565b905060005b88518110156113095783818151811061122257fe5b602002602001015189828151811061123657fe5b6020026020010151111561130157600061127f85838151811061125557fe5b60200260200101518b848151811061126957fe5b602002602001015161159b90919063ffffffff16565b90508281106112cc576112ae8386848151811061129857fe5b602002602001015161153a90919063ffffffff16565b8583815181106112ba57fe5b60200260200101818152505050611309565b6112dc8186848151811061129857fe5b8583815181106112e857fe5b60209081029190910101526112fd838261159b565b9250505b60010161120d565b50505b50975092955050505050505b935093915050565b611328611427565b6000546001600160a01b03908116911614611378576040805162461bcd60e51b8152602060048201819052602482015260008051602061194f833981519152604482015290519081900360640190fd5b6001600160a01b0381166113bd5760405162461bcd60e51b81526004018080602001828103825260268152602001806118e76026913960400191505060405180910390fd5b600080546040516001600160a01b03808516939216917f8be0079c531659141344cd1fd0a4f28419497f9722a3daafe3b4186f6b6457e091a3600080546001600160a01b0319166001600160a01b0392909216919091179055565b6002546001600160a01b031690565b3390565b60008061143784611678565b90506001600160a01b03841673dac17f958d2ee523a2206206994597c13d831ec714156114e9576114e181856001600160a01b03166370a08231866040518263ffffffff1660e01b815260040180826001600160a01b0316815260200191505060206040518083038186803b1580156114af57600080fd5b505afa1580156114c3573d6000803e3d6000fd5b505050506040513d60208110156114d957600080fd5b5051906115dd565b9150506107d7565b6114e181856001600160a01b03166370a08231866040518263ffffffff1660e01b815260040180826001600160a01b0316815260200191505060206040518083038186803b1580156114af57600080fd5b600082820183811015611594576040805162461bcd60e51b815260206004820152601b60248201527f536166654d6174683a206164646974696f6e206f766572666c6f770000000000604482015290519081900360640190fd5b9392505050565b600061159483836040518060400160405280601e81526020017f536166654d6174683a207375627472616374696f6e206f766572666c6f7700008152506116e8565b6000826115ec575060006107d7565b828202828482816115f957fe5b04146115945760405162461bcd60e51b815260040180806020018281038252602181526020018061192e6021913960400191505060405180910390fd5b600061159483836040518060400160405280601a81526020017f536166654d6174683a206469766973696f6e206279207a65726f00000000000081525061177f565b600080611684836117e4565b905060128111156116dc576040805162461bcd60e51b815260206004820152601a60248201527f746f6b656e277320646563696d616c73206d757374203c3d3138000000000000604482015290519081900360640190fd5b601203600a0a92915050565b600081848411156117775760405162461bcd60e51b81526004018080602001828103825283818151815260200191508051906020019080838360005b8381101561173c578181015183820152602001611724565b50505050905090810190601f1680156117695780820380516001836020036101000a031916815260200191505b509250505060405180910390fd5b505050900390565b600081836117ce5760405162461bcd60e51b815260206004820181815283516024840152835190928392604490910191908501908083836000831561173c578181015183820152602001611724565b5060008385816117da57fe5b0495945050505050565b60006001600160a01b03821673dac17f958d2ee523a2206206994597c13d831ec7141561187757816001600160a01b031663313ce5676040518163ffffffff1660e01b815260040160206040518083038186803b15801561184457600080fd5b505afa158015611858573d6000803e3d6000fd5b505050506040513d602081101561186e57600080fd5b5051905061089e565b816001600160a01b031663313ce5676040518163ffffffff1660e01b815260040160206040518083038186803b1580156118b057600080fd5b505afa1580156118c4573d6000803e3d6000fd5b505050506040513d60208110156118da57600080fd5b505160ff16905061089e56fe4f776e61626c653a206e6577206f776e657220697320746865207a65726f206164647265737354686973206e616d6520636f6e747261637420616c726561647920657869737473536166654d6174683a206d756c7469706c69636174696f6e206f766572666c6f774f776e61626c653a2063616c6c6572206973206e6f7420746865206f776e6572a2646970667358221220d61d5e2ba5ab79cce64b28b153b06e8f14d3d1f213e5a51bc6abf552b9987a7b64736f6c634300060c0033",
  "immutableReferences": {},
  "source": "\n//           DO WHAT THE FUCK YOU WANT TO PUBLIC LICENSE\n//                   Version 2, December 2004\n// \n//Copyright (C) 2021 Joveproject <Joveproject@yahoo.com>\n//\n//Everyone is permitted to copy and distribute verbatim or modified\n//copies of this license document, and changing it is allowed as long\n//as the name is changed.\n// \n//           DO WHAT THE FUCK YOU WANT TO PUBLIC LICENSE\n//  TERMS AND CONDITIONS FOR COPYING, DISTRIBUTION AND MODIFICATION\n//\n// You just DO WHAT THE FUCK YOU WANT TO.\n//SPDX-License-Identifier: SimPL-2.0\npragma solidity >=0.6.0 <0.7.0;\n\nimport \"./joveRegister.sol\";\nimport \"./@openzeppelin/math/SafeMath.sol\";\nimport \"./CompatibleERC20.sol\";\n\n\ncontract ERC20TokenRegister is JoveRegister\n{\n    using SafeMath for uint256;\n    using CompatibleERC20 for address;\n\n    constructor() public\n        JoveRegister(msg.sender)\n    {\n    }\n    \n    function getToken(bytes8 name) view public returns(address){\n        require(hasContract(name),\"No such ERC20 token\");\n        return getContract(name);\n    }\n\n    function getAllTokens() view public returns(address [] memory){\n        bytes8 [] memory names=contractNames();\n        address [] memory addrs=new address[](names.length);\n        for (uint256 i=0;i<names.length;++i){\n            addrs[i]=getContract(names[i]);\n        }\n        return addrs;\n    }\n    \n    function getTokenBalance(bytes8 coinName, address addr) view public returns(uint256)  {\n        require(hasContract(coinName), \"coinName is not registed\");\n\taddress coinAddress=getToken(coinName);\n\tuint256 coinBalance=coinAddress.balanceOfERC20(addr);   \t\n\treturn coinBalance;\n    }\n\n\n    function getAllTokenBalances(address addr) view public returns(uint256 /**sum */,uint256 [] memory, address [] memory){\n        address [] memory tokenAddrs=getAllTokens();\n        uint256 sumBalance=0;\n        uint256 [] memory balances=new uint256 [] (tokenAddrs.length);\n        for (uint256 i=0;i<tokenAddrs.length;++i){\n            address token=tokenAddrs[i];\n            uint256 balance=token.balanceOfERC20(addr);\n            balances[i]=balance;\n            sumBalance=sumBalance.add(balance);\n        }\n        return (sumBalance,balances,tokenAddrs);\n    }\n\n\n    function getTransferAmount(address addr,uint256 rawAmount,bytes8 coinName) view public returns(uint256 [] memory, address [] memory) {\n        (uint256 sum,uint256 [] memory balances,address[] memory tokens)=getAllTokenBalances(addr);\n        if (rawAmount==0){\n            rawAmount=sum;\n        }\n        uint256 amount=rawAmount;\n        require(amount<=sum,\"Amount is too large\");\n        address coinAddress=address(0);\n        uint256 coinBalance=0;\n        if (hasContract(coinName)){\n            coinAddress=getToken(coinName);\n            coinBalance=coinAddress.balanceOfERC20(addr);\n            if (coinBalance>=amount){\n                uint256 [] memory amounts=new uint256[](1);\n                address[] memory tokenAddrs=new address[](1);\n                amounts[0]=amount;\n                tokenAddrs[0]=coinAddress;\n                return (amounts,tokenAddrs);\n            }else{\n                sum=sum.sub(coinBalance);\n                amount=amount.sub(coinBalance);\n            }\n        }\n\n        require(sum>0,\"sum should >0\");\n        uint256 [] memory amounts=new uint256[](balances.length);\n        uint256 calcSum=0;\n        for (uint256 i=0;i<amounts.length;++i){\n            if (tokens[i]==coinAddress){\n                amounts[i]=coinBalance;\n                calcSum=calcSum.add(coinBalance);\n            }else{\n                amounts[i]=amount.mul(balances[i]).div(sum);\n                calcSum=calcSum.add(amounts[i]);\n            }\n        }\n        require(calcSum<=rawAmount,\"Sum of calc should <= amount\");\n        if (calcSum<rawAmount){\n            uint256 oddAmount=rawAmount.sub(calcSum);\n            for (uint256 j=0;j<balances.length;++j){\n                if(balances[j]>amounts[j]){\n                    uint256 leftAmount = balances[j].sub(amounts[j]);\n                    if(leftAmount>=oddAmount){\n                        amounts[j]=amounts[j].add(oddAmount);\n                        break;\n                    }else{\n                        amounts[j]=amounts[j].add(leftAmount);\n                        oddAmount = oddAmount.sub(leftAmount);\n                    }\n                }\n            }\n        }\n        return (amounts,tokens);\n    }\n}\n",
  "sourcePath": "/home/huanglinjia/MyDapp/test_truffle/JoveInsurance/contracts/ERC20TokenRegister.sol",
  "compiler": {
    "name": "solc",
    "version": "0.6.12+commit.27d51765.Emscripten.clang"
  },
  "schemaVersion": "3.3.3",
  "updatedAt": "2021-06-19T07:35:34.939Z",
  "devdoc": {
    "kind": "dev",
    "methods": {
      "owner()": {
        "details": "Returns the address of the current owner."
      },
      "renounceOwnership()": {
        "details": "Leaves the contract without owner. It will not be possible to call `onlyOwner` functions anymore. Can only be called by the current owner. NOTE: Renouncing ownership will leave the contract without an owner, thereby removing any functionality that is only available to the owner."
      },
      "transferOwnership(address)": {
        "details": "Transfers ownership of the contract to a new account (`newOwner`). Can only be called by the current owner."
      }
    },
    "version": 1
  },
  "userdoc": {
    "kind": "user",
    "methods": {},
    "version": 1
  }
}