{
  "contractName": "JoveRegister",
  "abi": [
    {
      "inputs": [
        {
          "internalType": "address",
          "name": "ownable",
          "type": "address"
        }
      ],
      "stateMutability": "nonpayable",
      "type": "constructor"
    },
    {
      "anonymous": false,
      "inputs": [
        {
          "indexed": true,
          "internalType": "address",
          "name": "previousOwner",
          "type": "address"
        },
        {
          "indexed": true,
          "internalType": "address",
          "name": "newOwner",
          "type": "address"
        }
      ],
      "name": "OwnershipTransferred",
      "type": "event"
    },
    {
      "anonymous": false,
      "inputs": [
        {
          "indexed": false,
          "internalType": "address",
          "name": "account",
          "type": "address"
        }
      ],
      "name": "Paused",
      "type": "event"
    },
    {
      "anonymous": false,
      "inputs": [
        {
          "indexed": false,
          "internalType": "address",
          "name": "account",
          "type": "address"
        }
      ],
      "name": "Unpaused",
      "type": "event"
    },
    {
      "inputs": [],
      "name": "admin",
      "outputs": [
        {
          "internalType": "address",
          "name": "",
          "type": "address"
        }
      ],
      "stateMutability": "view",
      "type": "function"
    },
    {
      "inputs": [],
      "name": "count",
      "outputs": [
        {
          "internalType": "uint256",
          "name": "",
          "type": "uint256"
        }
      ],
      "stateMutability": "view",
      "type": "function"
    },
    {
      "inputs": [],
      "name": "initSponsor",
      "outputs": [],
      "stateMutability": "nonpayable",
      "type": "function"
    },
    {
      "inputs": [
        {
          "internalType": "address",
          "name": "addr",
          "type": "address"
        }
      ],
      "name": "isOwner",
      "outputs": [
        {
          "internalType": "bool",
          "name": "",
          "type": "bool"
        }
      ],
      "stateMutability": "view",
      "type": "function"
    },
    {
      "inputs": [],
      "name": "owner",
      "outputs": [
        {
          "internalType": "address",
          "name": "",
          "type": "address"
        }
      ],
      "stateMutability": "view",
      "type": "function"
    },
    {
      "inputs": [],
      "name": "pause",
      "outputs": [],
      "stateMutability": "nonpayable",
      "type": "function"
    },
    {
      "inputs": [],
      "name": "paused",
      "outputs": [
        {
          "internalType": "bool",
          "name": "",
          "type": "bool"
        }
      ],
      "stateMutability": "view",
      "type": "function"
    },
    {
      "inputs": [],
      "name": "renounceOwnership",
      "outputs": [],
      "stateMutability": "nonpayable",
      "type": "function"
    },
    {
      "inputs": [
        {
          "internalType": "address",
          "name": "newOwner",
          "type": "address"
        }
      ],
      "name": "transferOwnership",
      "outputs": [],
      "stateMutability": "nonpayable",
      "type": "function"
    },
    {
      "inputs": [],
      "name": "unpause",
      "outputs": [],
      "stateMutability": "nonpayable",
      "type": "function"
    },
    {
      "inputs": [],
      "name": "contractNames",
      "outputs": [
        {
          "internalType": "bytes8[]",
          "name": "",
          "type": "bytes8[]"
        }
      ],
      "stateMutability": "view",
      "type": "function"
    },
    {
      "inputs": [
        {
          "internalType": "bytes8",
          "name": "name",
          "type": "bytes8"
        },
        {
          "internalType": "address",
          "name": "contractAddr",
          "type": "address"
        }
      ],
      "name": "registerContract",
      "outputs": [],
      "stateMutability": "nonpayable",
      "type": "function"
    },
    {
      "inputs": [
        {
          "internalType": "bytes8",
          "name": "name",
          "type": "bytes8"
        }
      ],
      "name": "unregisterContract",
      "outputs": [],
      "stateMutability": "nonpayable",
      "type": "function"
    },
    {
      "inputs": [
        {
          "internalType": "bytes8",
          "name": "name",
          "type": "bytes8"
        }
      ],
      "name": "hasContract",
      "outputs": [
        {
          "internalType": "bool",
          "name": "",
          "type": "bool"
        }
      ],
      "stateMutability": "view",
      "type": "function"
    },
    {
      "inputs": [
        {
          "internalType": "bytes8",
          "name": "name",
          "type": "bytes8"
        }
      ],
      "name": "getContract",
      "outputs": [
        {
          "internalType": "address",
          "name": "",
          "type": "address"
        }
      ],
      "stateMutability": "view",
      "type": "function"
    }
  ],
  "bytecode": "0x608060405234801561001057600080fd5b50604051610e3a380380610e3a8339818101604052602081101561003357600080fd5b5051600061003f6100a5565b600080546001600160a01b0319166001600160a01b0383169081178255604051929350917f8be0079c531659141344cd1fd0a4f28419497f9722a3daafe3b4186f6b6457e0908290a3506002805460ff60a01b1916905561009f816100a9565b5061024e565b3390565b6001600160a01b038116610104576040805162461bcd60e51b815260206004820152601a60248201527f7365744f776e61626c652073686f756c64206e6f742062652030000000000000604482015290519081900360640190fd5b6001546001600160a01b031615610157576040805162461bcd60e51b815260206004820152601260248201527105f6f776e65722073686f756c6420626520360741b604482015290519081900360640190fd5b600180546001600160a01b0319166001600160a01b03831617905561017b8161017e565b50565b6001600160a01b0381166101d9576040805162461bcd60e51b815260206004820152601a60248201527f7365744f776e61626c652073686f756c64206e6f742062652030000000000000604482015290519081900360640190fd5b6002546001600160a01b03161561022c576040805162461bcd60e51b815260206004820152601260248201527105f6f776e65722073686f756c6420626520360741b604482015290519081900360640190fd5b600280546001600160a01b0319166001600160a01b0392909216919091179055565b610bdd8061025d6000396000f3fe608060405234801561001057600080fd5b50600436106100f55760003560e01c8063715018a6116100975780639e252cda116100665780639e252cda14610270578063b51bc5af14610297578063f2fde38b1461029f578063f851a440146102c5576100f5565b8063715018a6146102315780638456cb59146102395780638da5cb5b146102415780639350ebe214610249576100f5565b80632f54bf6e116100d35780632f54bf6e146101a45780632fd8bff9146101de5780633f4ba83a146102215780635c975abb14610229576100f5565b806306661abd146100fa5780630da881931461011457806311afda791461016c575b600080fd5b6101026102cd565b60408051918252519081900360200190f35b61011c6102d3565b60408051602080825283518183015283519192839290830191858101910280838360005b83811015610158578181015183820152602001610140565b505050509050019250505060405180910390f35b6101a26004803603604081101561018257600080fd5b5080356001600160c01b03191690602001356001600160a01b03166103c0565b005b6101ca600480360360208110156101ba57600080fd5b50356001600160a01b031661051d565b604080519115158252519081900360200190f35b610205600480360360208110156101f457600080fd5b50356001600160c01b031916610531565b604080516001600160a01b039092168252519081900360200190f35b6101a2610556565b6101ca610664565b6101a2610674565b6101a2610716565b61020561080a565b6101ca6004803603602081101561025f57600080fd5b50356001600160c01b031916610819565b6101a26004803603602081101561028657600080fd5b50356001600160c01b031916610840565b6101a261093e565b6101a2600480360360208110156102b557600080fd5b50356001600160a01b0316610a35565b610205610b2d565b60055481565b60608060055467ffffffffffffffff811180156102ef57600080fd5b50604051908082528060200260200182016040528015610319578160200160208202803683370190505b5090506000805b6004548110156103b85760006004828154811061033957fe5b6000918252602080832060048304015460039283166008026101000a900460c01b6001600160c01b0319811684529190526040909120549091506001600160a01b0316156103af578084848151811061038e57fe5b6001600160c01b031990921660209283029190910190910152600192909201915b50600101610320565b509091505090565b6103c8610b3c565b6000546001600160a01b03908116911614610418576040805162461bcd60e51b81526020600482018190526024820152600080516020610b88833981519152604482015290519081900360640190fd5b6001600160c01b031982166000908152600360205260409020546001600160a01b0316156104775760405162461bcd60e51b8152600401808060200182810382526021815260200180610b676021913960400191505060405180910390fd5b6001600160c01b031982166000908152600360208190526040822080546001600160a01b0319166001600160a01b0394909416939093179092556004805460018181018355928290527f8a35acfbc15ff81a39ae7d344fd709f28e8600b4aa8c65c6b64bfe7fe36bd19b91810491909101805467ffffffffffffffff929094166008026101000a9182021990931660c09490941c02929092179055600580549091019055565b6000546001600160a01b0391821691161490565b6001600160c01b0319166000908152600360205260409020546001600160a01b031690565b61055e610b3c565b6002546001600160a01b039081169116146105bc576040805162461bcd60e51b81526020600482015260196024820152783cb7ba9030b932903737ba103a34329030b236b4b739ba32b960391b604482015290519081900360640190fd5b600254600160a01b900460ff16610611576040805162461bcd60e51b815260206004820152601460248201527314185d5cd8589b194e881b9bdd081c185d5cd95960621b604482015290519081900360640190fd5b6002805460ff60a01b191690557f5db9ee0a495bf2e6ff9c91a7834c1ba4fdd244a5e8aa4e537bd38aeae4b073aa610647610b3c565b604080516001600160a01b039092168252519081900360200190a1565b600254600160a01b900460ff1690565b61067c610b3c565b6000546001600160a01b039081169116146106cc576040805162461bcd60e51b81526020600482018190526024820152600080516020610b88833981519152604482015290519081900360640190fd5b600080546040516001600160a01b03909116907f8be0079c531659141344cd1fd0a4f28419497f9722a3daafe3b4186f6b6457e0908390a3600080546001600160a01b0319169055565b61071e610b3c565b6002546001600160a01b0390811691161461077c576040805162461bcd60e51b81526020600482015260196024820152783cb7ba9030b932903737ba103a34329030b236b4b739ba32b960391b604482015290519081900360640190fd5b600254600160a01b900460ff16156107ce576040805162461bcd60e51b815260206004820152601060248201526f14185d5cd8589b194e881c185d5cd95960821b604482015290519081900360640190fd5b6002805460ff60a01b1916600160a01b1790557f62e78cea01bee320cd4e420270b5ea74000d11b0c9f74754ebdbfc544b05a258610647610b3c565b6000546001600160a01b031690565b6001600160c01b0319166000908152600360205260409020546001600160a01b0316151590565b610848610b3c565b6000546001600160a01b03908116911614610898576040805162461bcd60e51b81526020600482018190526024820152600080516020610b88833981519152604482015290519081900360640190fd5b6001600160c01b031981166000908152600360205260409020546001600160a01b031661090c576040805162461bcd60e51b815260206004820152601d60248201527f54686973206e616d6520636f6e7472616374206e6f7420657869737473000000604482015290519081900360640190fd5b6001600160c01b031916600090815260036020526040902080546001600160a01b031916905560058054600019019055565b60408051600180825281830190925273088800000000000000000000000000000000000191606091906020808301908036833701905050905060008160008151811061098657fe5b6001600160a01b03928316602091820292909201810191909152604051630809469f60e11b815260048101828152845160248301528451938616936310128d3e9386938392604490910191858101910280838360005b838110156109f45781810151838201526020016109dc565b5050505090500192505050600060405180830381600087803b158015610a1957600080fd5b505af1158015610a2d573d6000803e3d6000fd5b505050505050565b610a3d610b3c565b6000546001600160a01b03908116911614610a8d576040805162461bcd60e51b81526020600482018190526024820152600080516020610b88833981519152604482015290519081900360640190fd5b6001600160a01b038116610ad25760405162461bcd60e51b8152600401808060200182810382526026815260200180610b416026913960400191505060405180910390fd5b600080546040516001600160a01b03808516939216917f8be0079c531659141344cd1fd0a4f28419497f9722a3daafe3b4186f6b6457e091a3600080546001600160a01b0319166001600160a01b0392909216919091179055565b6002546001600160a01b031690565b339056fe4f776e61626c653a206e6577206f776e657220697320746865207a65726f206164647265737354686973206e616d6520636f6e747261637420616c7265616479206578697374734f776e61626c653a2063616c6c6572206973206e6f7420746865206f776e6572a26469706673582212208e07411f95b5557cf37432b0f560e4b1590c289b585a2590a69106ae67e14f6b64736f6c634300060c0033",
  "immutableReferences": {},
  "source": "\n//           DO WHAT THE FUCK YOU WANT TO PUBLIC LICENSE\n//                   Version 2, December 2004\n// \n//Copyright (C) 2021 Joveproject <Joveproject@yahoo.com>\n//\n//Everyone is permitted to copy and distribute verbatim or modified\n//copies of this license document, and changing it is allowed as long\n//as the name is changed.\n// \n//           DO WHAT THE FUCK YOU WANT TO PUBLIC LICENSE\n//  TERMS AND CONDITIONS FOR COPYING, DISTRIBUTION AND MODIFICATION\n//\n// You just DO WHAT THE FUCK YOU WANT TO.\n//SPDX-License-Identifier: SimPL-2.0\npragma solidity >=0.6.0 <0.7.0;\n\nimport \"./jovePausable.sol\";\n\ncontract JoveRegister is JovePausable \n{\n    mapping(bytes8=>address) _contracts;\n\n    bytes8 [] _allContractNames;\n    uint256 public count;\n    constructor(address ownable) JovePausable() public{\n        setOwnable(ownable);\n    }\n\n    function contractNames() view public returns( bytes8[] memory){\n        bytes8 [] memory names=new bytes8[](count);\n        uint256 j=0;\n        for (uint256 i=0;i<_allContractNames.length;++i){\n            bytes8 name=_allContractNames[i];\n            if (_contracts[name]!=address(0)){\n                names[j]=name;\n                j+=1;  \n            }\n        }\n        return names;\n    }\n\n    function registerContract(bytes8 name, address contractAddr) onlyOwner public{\n        require(_contracts[name]==address(0),\"This name contract already exists\"); \n        _contracts[name]=contractAddr;\n        _allContractNames.push(name);\n        count +=1;\n    }\n\n    function unregisterContract(bytes8 name) onlyOwner public {\n        require(_contracts[name]!=address(0),\"This name contract not exists\"); \n        delete _contracts[name];\n        count -=1;\n    }\n\n    function hasContract(bytes8 name) view public returns(bool){\n        return _contracts[name]!=address(0);\n    }\n\n    function getContract(bytes8 name) view public returns(address){\n        return _contracts[name];\n    }\n\n\n}\n",
  "sourcePath": "/home/huanglinjia/MyDapp/test_truffle/JoveInsurance/contracts/joveRegister.sol",
  "compiler": {
    "name": "solc",
    "version": "0.6.12+commit.27d51765.Emscripten.clang"
  },
  "schemaVersion": "3.3.3",
  "updatedAt": "2021-06-19T07:35:35.054Z",
  "devdoc": {
    "kind": "dev",
    "methods": {
      "owner()": {
        "details": "Returns the address of the current owner."
      },
      "renounceOwnership()": {
        "details": "Leaves the contract without owner. It will not be possible to call `onlyOwner` functions anymore. Can only be called by the current owner. NOTE: Renouncing ownership will leave the contract without an owner, thereby removing any functionality that is only available to the owner."
      },
      "transferOwnership(address)": {
        "details": "Transfers ownership of the contract to a new account (`newOwner`). Can only be called by the current owner."
      }
    },
    "version": 1
  },
  "userdoc": {
    "kind": "user",
    "methods": {},
    "version": 1
  }
}