{
  "contractName": "JoveProductToken",
  "abi": [
    {
      "inputs": [
        {
          "internalType": "string",
          "name": "categoryValue",
          "type": "string"
        },
        {
          "internalType": "string",
          "name": "subCategoryValue",
          "type": "string"
        },
        {
          "internalType": "string",
          "name": "tokenNameValue",
          "type": "string"
        },
        {
          "internalType": "string",
          "name": "tokenSymbolValue",
          "type": "string"
        },
        {
          "internalType": "uint256",
          "name": "closureTimestampValue",
          "type": "uint256"
        }
      ],
      "stateMutability": "nonpayable",
      "type": "constructor"
    },
    {
      "anonymous": false,
      "inputs": [
        {
          "indexed": true,
          "internalType": "address",
          "name": "owner",
          "type": "address"
        },
        {
          "indexed": true,
          "internalType": "address",
          "name": "spender",
          "type": "address"
        },
        {
          "indexed": false,
          "internalType": "uint256",
          "name": "value",
          "type": "uint256"
        }
      ],
      "name": "Approval",
      "type": "event"
    },
    {
      "anonymous": false,
      "inputs": [
        {
          "indexed": true,
          "internalType": "address",
          "name": "user",
          "type": "address"
        },
        {
          "indexed": false,
          "internalType": "uint256",
          "name": "premium",
          "type": "uint256"
        },
        {
          "indexed": false,
          "internalType": "uint256",
          "name": "quantity",
          "type": "uint256"
        }
      ],
      "name": "EventBuy",
      "type": "event"
    },
    {
      "anonymous": false,
      "inputs": [
        {
          "indexed": false,
          "internalType": "uint256",
          "name": "totalSellQuantity",
          "type": "uint256"
        },
        {
          "indexed": false,
          "internalType": "uint256",
          "name": "totalPremiums",
          "type": "uint256"
        }
      ],
      "name": "EventStatusChanged",
      "type": "event"
    },
    {
      "anonymous": false,
      "inputs": [
        {
          "indexed": true,
          "internalType": "address",
          "name": "previousOwner",
          "type": "address"
        },
        {
          "indexed": true,
          "internalType": "address",
          "name": "newOwner",
          "type": "address"
        }
      ],
      "name": "OwnershipTransferred",
      "type": "event"
    },
    {
      "anonymous": false,
      "inputs": [
        {
          "indexed": false,
          "internalType": "address",
          "name": "account",
          "type": "address"
        }
      ],
      "name": "Paused",
      "type": "event"
    },
    {
      "anonymous": false,
      "inputs": [
        {
          "indexed": true,
          "internalType": "address",
          "name": "from",
          "type": "address"
        },
        {
          "indexed": true,
          "internalType": "address",
          "name": "to",
          "type": "address"
        },
        {
          "indexed": false,
          "internalType": "uint256",
          "name": "value",
          "type": "uint256"
        }
      ],
      "name": "Transfer",
      "type": "event"
    },
    {
      "anonymous": false,
      "inputs": [
        {
          "indexed": false,
          "internalType": "address",
          "name": "account",
          "type": "address"
        }
      ],
      "name": "Unpaused",
      "type": "event"
    },
    {
      "inputs": [
        {
          "internalType": "uint256",
          "name": "quantity",
          "type": "uint256"
        },
        {
          "internalType": "uint256",
          "name": "price",
          "type": "uint256"
        },
        {
          "internalType": "uint256",
          "name": "totalSellQty",
          "type": "uint256"
        }
      ],
      "name": "_calcWithDrawAmount",
      "outputs": [
        {
          "internalType": "uint256",
          "name": "",
          "type": "uint256"
        }
      ],
      "stateMutability": "view",
      "type": "function"
    },
    {
      "inputs": [],
      "name": "admin",
      "outputs": [
        {
          "internalType": "address",
          "name": "",
          "type": "address"
        }
      ],
      "stateMutability": "view",
      "type": "function"
    },
    {
      "inputs": [
        {
          "internalType": "address",
          "name": "owner",
          "type": "address"
        },
        {
          "internalType": "address",
          "name": "spender",
          "type": "address"
        }
      ],
      "name": "allowance",
      "outputs": [
        {
          "internalType": "uint256",
          "name": "",
          "type": "uint256"
        }
      ],
      "stateMutability": "view",
      "type": "function"
    },
    {
      "inputs": [
        {
          "internalType": "address",
          "name": "spender",
          "type": "address"
        },
        {
          "internalType": "uint256",
          "name": "amount",
          "type": "uint256"
        }
      ],
      "name": "approve",
      "outputs": [
        {
          "internalType": "bool",
          "name": "",
          "type": "bool"
        }
      ],
      "stateMutability": "nonpayable",
      "type": "function"
    },
    {
      "inputs": [
        {
          "internalType": "address",
          "name": "account",
          "type": "address"
        }
      ],
      "name": "balanceOf",
      "outputs": [
        {
          "internalType": "uint256",
          "name": "",
          "type": "uint256"
        }
      ],
      "stateMutability": "view",
      "type": "function"
    },
    {
      "inputs": [
        {
          "internalType": "address",
          "name": "account",
          "type": "address"
        },
        {
          "internalType": "uint256",
          "name": "amount",
          "type": "uint256"
        }
      ],
      "name": "burn",
      "outputs": [],
      "stateMutability": "nonpayable",
      "type": "function"
    },
    {
      "inputs": [],
      "name": "category",
      "outputs": [
        {
          "internalType": "string",
          "name": "",
          "type": "string"
        }
      ],
      "stateMutability": "view",
      "type": "function"
    },
    {
      "inputs": [],
      "name": "closureTimestamp",
      "outputs": [
        {
          "internalType": "uint256",
          "name": "",
          "type": "uint256"
        }
      ],
      "stateMutability": "view",
      "type": "function"
    },
    {
      "inputs": [],
      "name": "decimals",
      "outputs": [
        {
          "internalType": "uint8",
          "name": "",
          "type": "uint8"
        }
      ],
      "stateMutability": "view",
      "type": "function"
    },
    {
      "inputs": [
        {
          "internalType": "address",
          "name": "spender",
          "type": "address"
        },
        {
          "internalType": "uint256",
          "name": "subtractedValue",
          "type": "uint256"
        }
      ],
      "name": "decreaseAllowance",
      "outputs": [
        {
          "internalType": "bool",
          "name": "",
          "type": "bool"
        }
      ],
      "stateMutability": "nonpayable",
      "type": "function"
    },
    {
      "inputs": [],
      "name": "expireTimestamp",
      "outputs": [
        {
          "internalType": "uint256",
          "name": "",
          "type": "uint256"
        }
      ],
      "stateMutability": "view",
      "type": "function"
    },
    {
      "inputs": [],
      "name": "expiresTimestamp",
      "outputs": [
        {
          "internalType": "uint256",
          "name": "",
          "type": "uint256"
        }
      ],
      "stateMutability": "view",
      "type": "function"
    },
    {
      "inputs": [],
      "name": "getAddress",
      "outputs": [
        {
          "internalType": "address",
          "name": "",
          "type": "address"
        }
      ],
      "stateMutability": "view",
      "type": "function"
    },
    {
      "inputs": [
        {
          "internalType": "address",
          "name": "spender",
          "type": "address"
        },
        {
          "internalType": "uint256",
          "name": "addedValue",
          "type": "uint256"
        }
      ],
      "name": "increaseAllowance",
      "outputs": [
        {
          "internalType": "bool",
          "name": "",
          "type": "bool"
        }
      ],
      "stateMutability": "nonpayable",
      "type": "function"
    },
    {
      "inputs": [],
      "name": "initSponsor",
      "outputs": [],
      "stateMutability": "nonpayable",
      "type": "function"
    },
    {
      "inputs": [
        {
          "internalType": "address",
          "name": "addr",
          "type": "address"
        }
      ],
      "name": "isOwner",
      "outputs": [
        {
          "internalType": "bool",
          "name": "",
          "type": "bool"
        }
      ],
      "stateMutability": "view",
      "type": "function"
    },
    {
      "inputs": [],
      "name": "isValid",
      "outputs": [
        {
          "internalType": "bool",
          "name": "",
          "type": "bool"
        }
      ],
      "stateMutability": "view",
      "type": "function"
    },
    {
      "inputs": [],
      "name": "name",
      "outputs": [
        {
          "internalType": "string",
          "name": "",
          "type": "string"
        }
      ],
      "stateMutability": "view",
      "type": "function"
    },
    {
      "inputs": [],
      "name": "needPay",
      "outputs": [
        {
          "internalType": "bool",
          "name": "",
          "type": "bool"
        }
      ],
      "stateMutability": "view",
      "type": "function"
    },
    {
      "inputs": [],
      "name": "owner",
      "outputs": [
        {
          "internalType": "address",
          "name": "",
          "type": "address"
        }
      ],
      "stateMutability": "view",
      "type": "function"
    },
    {
      "inputs": [],
      "name": "pause",
      "outputs": [],
      "stateMutability": "nonpayable",
      "type": "function"
    },
    {
      "inputs": [],
      "name": "paused",
      "outputs": [
        {
          "internalType": "bool",
          "name": "",
          "type": "bool"
        }
      ],
      "stateMutability": "view",
      "type": "function"
    },
    {
      "inputs": [],
      "name": "register",
      "outputs": [
        {
          "internalType": "contract JoveRegister",
          "name": "",
          "type": "address"
        }
      ],
      "stateMutability": "view",
      "type": "function"
    },
    {
      "inputs": [],
      "name": "registerAddress",
      "outputs": [
        {
          "internalType": "address",
          "name": "",
          "type": "address"
        }
      ],
      "stateMutability": "view",
      "type": "function"
    },
    {
      "inputs": [],
      "name": "remaining",
      "outputs": [
        {
          "internalType": "uint256",
          "name": "",
          "type": "uint256"
        }
      ],
      "stateMutability": "view",
      "type": "function"
    },
    {
      "inputs": [],
      "name": "renounceOwnership",
      "outputs": [],
      "stateMutability": "nonpayable",
      "type": "function"
    },
    {
      "inputs": [
        {
          "internalType": "address",
          "name": "poolAddress",
          "type": "address"
        },
        {
          "internalType": "address",
          "name": "stakingPoolTokenAddress",
          "type": "address"
        }
      ],
      "name": "setStakingPool",
      "outputs": [
        {
          "internalType": "bool",
          "name": "",
          "type": "bool"
        }
      ],
      "stateMutability": "nonpayable",
      "type": "function"
    },
    {
      "inputs": [],
      "name": "stakingPool",
      "outputs": [
        {
          "internalType": "contract IStakingPool",
          "name": "",
          "type": "address"
        }
      ],
      "stateMutability": "view",
      "type": "function"
    },
    {
      "inputs": [],
      "name": "stakingPoolToken",
      "outputs": [
        {
          "internalType": "address",
          "name": "",
          "type": "address"
        }
      ],
      "stateMutability": "view",
      "type": "function"
    },
    {
      "inputs": [],
      "name": "subCategory",
      "outputs": [
        {
          "internalType": "string",
          "name": "",
          "type": "string"
        }
      ],
      "stateMutability": "view",
      "type": "function"
    },
    {
      "inputs": [],
      "name": "symbol",
      "outputs": [
        {
          "internalType": "string",
          "name": "",
          "type": "string"
        }
      ],
      "stateMutability": "view",
      "type": "function"
    },
    {
      "inputs": [],
      "name": "tokenAddress",
      "outputs": [
        {
          "internalType": "address",
          "name": "",
          "type": "address"
        }
      ],
      "stateMutability": "view",
      "type": "function"
    },
    {
      "inputs": [],
      "name": "totalPremiums",
      "outputs": [
        {
          "internalType": "uint256",
          "name": "",
          "type": "uint256"
        }
      ],
      "stateMutability": "view",
      "type": "function"
    },
    {
      "inputs": [],
      "name": "totalSellQuantity",
      "outputs": [
        {
          "internalType": "uint256",
          "name": "",
          "type": "uint256"
        }
      ],
      "stateMutability": "view",
      "type": "function"
    },
    {
      "inputs": [],
      "name": "totalSupply",
      "outputs": [
        {
          "internalType": "uint256",
          "name": "",
          "type": "uint256"
        }
      ],
      "stateMutability": "view",
      "type": "function"
    },
    {
      "inputs": [
        {
          "internalType": "address",
          "name": "recipient",
          "type": "address"
        },
        {
          "internalType": "uint256",
          "name": "amount",
          "type": "uint256"
        }
      ],
      "name": "transfer",
      "outputs": [
        {
          "internalType": "bool",
          "name": "",
          "type": "bool"
        }
      ],
      "stateMutability": "nonpayable",
      "type": "function"
    },
    {
      "inputs": [
        {
          "internalType": "address",
          "name": "sender",
          "type": "address"
        },
        {
          "internalType": "address",
          "name": "recipient",
          "type": "address"
        },
        {
          "internalType": "uint256",
          "name": "amount",
          "type": "uint256"
        }
      ],
      "name": "transferFrom",
      "outputs": [
        {
          "internalType": "bool",
          "name": "",
          "type": "bool"
        }
      ],
      "stateMutability": "nonpayable",
      "type": "function"
    },
    {
      "inputs": [
        {
          "internalType": "address",
          "name": "newOwner",
          "type": "address"
        }
      ],
      "name": "transferOwnership",
      "outputs": [],
      "stateMutability": "nonpayable",
      "type": "function"
    },
    {
      "inputs": [],
      "name": "unpause",
      "outputs": [],
      "stateMutability": "nonpayable",
      "type": "function"
    },
    {
      "inputs": [],
      "name": "updateDependentContractAddress",
      "outputs": [],
      "stateMutability": "nonpayable",
      "type": "function"
    },
    {
      "inputs": [
        {
          "internalType": "address",
          "name": "registerAddr",
          "type": "address"
        }
      ],
      "name": "updateRegisterAddress",
      "outputs": [],
      "stateMutability": "nonpayable",
      "type": "function"
    },
    {
      "inputs": [
        {
          "internalType": "address",
          "name": "priceNodePublicKey",
          "type": "address"
        },
        {
          "internalType": "uint256",
          "name": "price",
          "type": "uint256"
        },
        {
          "internalType": "uint256",
          "name": "expiresAt",
          "type": "uint256"
        },
        {
          "internalType": "uint8",
          "name": "v",
          "type": "uint8"
        },
        {
          "internalType": "bytes32",
          "name": "r",
          "type": "bytes32"
        },
        {
          "internalType": "bytes32",
          "name": "s",
          "type": "bytes32"
        }
      ],
      "name": "verifyPrice",
      "outputs": [
        {
          "internalType": "bool",
          "name": "",
          "type": "bool"
        }
      ],
      "stateMutability": "view",
      "type": "function"
    },
    {
      "inputs": [
        {
          "internalType": "address",
          "name": "account",
          "type": "address"
        },
        {
          "internalType": "address",
          "name": "priceNodePublicKey",
          "type": "address"
        },
        {
          "internalType": "uint256",
          "name": "quantity",
          "type": "uint256"
        },
        {
          "internalType": "uint256",
          "name": "price",
          "type": "uint256"
        },
        {
          "internalType": "uint256",
          "name": "expiresAt",
          "type": "uint256"
        },
        {
          "internalType": "uint8",
          "name": "_v",
          "type": "uint8"
        },
        {
          "internalType": "bytes32",
          "name": "_r",
          "type": "bytes32"
        },
        {
          "internalType": "bytes32",
          "name": "_s",
          "type": "bytes32"
        }
      ],
      "name": "buy",
      "outputs": [
        {
          "internalType": "bool",
          "name": "",
          "type": "bool"
        }
      ],
      "stateMutability": "nonpayable",
      "type": "function"
    },
    {
      "inputs": [
        {
          "internalType": "address",
          "name": "account",
          "type": "address"
        },
        {
          "internalType": "address",
          "name": "priceNodePublicKey",
          "type": "address"
        },
        {
          "internalType": "uint256",
          "name": "quantity",
          "type": "uint256"
        },
        {
          "internalType": "uint256",
          "name": "price",
          "type": "uint256"
        },
        {
          "internalType": "uint256",
          "name": "expiresAt",
          "type": "uint256"
        },
        {
          "internalType": "uint8",
          "name": "_v",
          "type": "uint8"
        },
        {
          "internalType": "bytes32",
          "name": "_r",
          "type": "bytes32"
        },
        {
          "internalType": "bytes32",
          "name": "_s",
          "type": "bytes32"
        }
      ],
      "name": "sell",
      "outputs": [
        {
          "internalType": "bool",
          "name": "",
          "type": "bool"
        }
      ],
      "stateMutability": "nonpayable",
      "type": "function"
    },
    {
      "inputs": [],
      "name": "getTotalSellQuantity",
      "outputs": [
        {
          "internalType": "uint256",
          "name": "",
          "type": "uint256"
        }
      ],
      "stateMutability": "view",
      "type": "function"
    },
    {
      "inputs": [],
      "name": "getExpireTimestamp",
      "outputs": [
        {
          "internalType": "uint256",
          "name": "",
          "type": "uint256"
        }
      ],
      "stateMutability": "view",
      "type": "function"
    },
    {
      "inputs": [],
      "name": "approvePaid",
      "outputs": [],
      "stateMutability": "nonpayable",
      "type": "function"
    },
    {
      "inputs": [],
      "name": "calcDistributePremiums",
      "outputs": [
        {
          "internalType": "uint256",
          "name": "",
          "type": "uint256"
        },
        {
          "internalType": "uint256",
          "name": "",
          "type": "uint256"
        }
      ],
      "stateMutability": "view",
      "type": "function"
    },
    {
      "inputs": [],
      "name": "rejectPaid",
      "outputs": [],
      "stateMutability": "nonpayable",
      "type": "function"
    },
    {
      "inputs": [
        {
          "internalType": "bool",
          "name": "needPay",
          "type": "bool"
        }
      ],
      "name": "close",
      "outputs": [],
      "stateMutability": "nonpayable",
      "type": "function"
    },
    {
      "inputs": [],
      "name": "close",
      "outputs": [],
      "stateMutability": "nonpayable",
      "type": "function"
    },
    {
      "inputs": [
        {
          "internalType": "address",
          "name": "account",
          "type": "address"
        },
        {
          "internalType": "uint256",
          "name": "amount",
          "type": "uint256"
        }
      ],
      "name": "mint",
      "outputs": [],
      "stateMutability": "nonpayable",
      "type": "function"
    }
  ],
  "bytecode": "0x60806040523480156200001157600080fd5b50604051620037af380380620037af833981810160405260a08110156200003757600080fd5b81019080805160405193929190846401000000008211156200005857600080fd5b9083019060208201858111156200006e57600080fd5b82516401000000008111828201881017156200008957600080fd5b82525081516020918201929091019080838360005b83811015620000b85781810151838201526020016200009e565b50505050905090810190601f168015620000e65780820380516001836020036101000a031916815260200191505b50604052602001805160405193929190846401000000008211156200010a57600080fd5b9083019060208201858111156200012057600080fd5b82516401000000008111828201881017156200013b57600080fd5b82525081516020918201929091019080838360005b838110156200016a57818101518382015260200162000150565b50505050905090810190601f168015620001985780820380516001836020036101000a031916815260200191505b5060405260200180516040519392919084640100000000821115620001bc57600080fd5b908301906020820185811115620001d257600080fd5b8251640100000000811182820188101715620001ed57600080fd5b82525081516020918201929091019080838360005b838110156200021c57818101518382015260200162000202565b50505050905090810190601f1680156200024a5780820380516001836020036101000a031916815260200191505b50604052602001805160405193929190846401000000008211156200026e57600080fd5b9083019060208201858111156200028457600080fd5b82516401000000008111828201881017156200029f57600080fd5b82525081516020918201929091019080838360005b83811015620002ce578181015183820152602001620002b4565b50505050905090810190601f168015620002fc5780820380516001836020036101000a031916815260200191505b5060405260209081015185519093508792508691869186918691849184916200032c916003919085019062000451565b5080516200034290600490602084019062000451565b50506005805460ff191660121790555060006200035e62000437565b60058054610100600160a81b0319166101006001600160a01b03841690810291909117909155604051919250906000907f8be0079c531659141344cd1fd0a4f28419497f9722a3daafe3b4186f6b6457e0908290a3506007805460ff60a01b19169055620003cd60006200043b565b8451620003e290600a90602088019062000451565b508351620003f890600b90602087019062000451565b50600e819055600d555050600060108190556011555050600f805460ff60a81b1960ff60a01b19909116600160a01b1716905550620004ed9350505050565b3390565b6005805460ff191660ff92909216919091179055565b828054600181600116156101000203166002900490600052602060002090601f016020900481019282601f106200049457805160ff1916838001178555620004c4565b82800160010185558215620004c4579182015b82811115620004c4578251825591602001919060010190620004a7565b50620004d2929150620004d6565b5090565b5b80821115620004d25760008155600101620004d7565b6132b280620004fd6000396000f3fe608060405234801561001057600080fd5b506004361061030c5760003560e01c806361fb9d3c1161019d578063b51bc5af116100e9578063e4f45323116100a2578063eeee402f1161007c578063eeee402f1461083c578063ef430aa614610844578063f2fde38b1461084c578063f851a440146108725761030c565b8063e4f45323146107e5578063eaeebbef146107ed578063eb39b3b81461080e5761030c565b8063b51bc5af1461073f578063b856b2e514610747578063bb5d40eb1461079f578063bd74b5e7146107a7578063ca442940146107af578063dd62ed3e146107b75761030c565b806386f9bd42116101565780639d76ea58116101305780639d76ea58146106b35780639dc29fac146106bb578063a457c2d7146106e7578063a9059cbb146107135761030c565b806386f9bd421461069b5780638da5cb5b146106a357806395d89b41146106ab5761030c565b806361fb9d3c1461064d578063697d2c07146106555780636c8c223d1461065d57806370a0823114610665578063715018a61461068b5780638456cb59146106935761030c565b806335d3a9bc1161025c57806343d726d61161021557806355234ec0116101ef57806355234ec01461062d578063586e2c41146106355780635bda15841461063d5780635c975abb146106455761030c565b806343d726d6146105a45780634438d57a146105ac5780634df8a1e8146105d55761030c565b806335d3a9bc1461050e578063360e3e921461051657806338cc48311461053c57806339509351146105445780633f4ba83a1461057057806340c10f19146105785761030c565b80631aa3a008116102c95780632b45f773116102a35780632b45f773146104ba5780632f54bf6e146104c2578063313ce567146104e8578063338b84c1146105065761030c565b80631aa3a0081461045b578063212c5fea1461046357806323b872dd146104845761030c565b806306fdde0314610311578063076ea1321461038e578063095ea7b3146103e95780630c56ae3b1461041557806318160ddd146104395780631832425f14610453575b600080fd5b61031961087a565b6040805160208082528351818301528351919283929083019185019080838360005b8381101561035357818101518382015260200161033b565b50505050905090810190601f1680156103805780820380516001836020036101000a031916815260200191505b509250505060405180910390f35b6103d5600480360360c08110156103a457600080fd5b506001600160a01b038135169060208101359060408101359060ff6060820135169060808101359060a00135610910565b604080519115158252519081900360200190f35b6103d5600480360360408110156103ff57600080fd5b506001600160a01b038135169060200135610b18565b61041d610b36565b604080516001600160a01b039092168252519081900360200190f35b610441610b45565b60408051918252519081900360200190f35b61041d610b4b565b61041d610b5a565b6104826004803603602081101561047957600080fd5b50351515610b69565b005b6103d56004803603606081101561049a57600080fd5b506001600160a01b03813581169160208101359091169060400135610c3f565b610441610cc7565b6103d5600480360360208110156104d857600080fd5b50356001600160a01b0316610d1d565b6104f0610d39565b6040805160ff9092168252519081900360200190f35b610441610d42565b610482610d48565b6104826004803603602081101561052c57600080fd5b50356001600160a01b0316610e78565b61041d610f8c565b6103d56004803603604081101561055a57600080fd5b506001600160a01b038135169060200135610f9b565b610482610fe9565b6104826004803603604081101561058e57600080fd5b506001600160a01b0381351690602001356110f7565b610482611105565b610441600480360360608110156105c257600080fd5b50803590602081013590604001356111cf565b6103d560048036036101008110156105ec57600080fd5b506001600160a01b03813581169160208101359091169060408101359060608101359060808101359060ff60a0820135169060c08101359060e00135611230565b6104416112cf565b61041d61134b565b61044161135a565b6103d5611360565b610482611370565b610319611490565b61044161151e565b6104416004803603602081101561067b57600080fd5b50356001600160a01b0316611524565b61048261153f565b6104826115ec565b6104416116e0565b61041d6116e6565b6103196116fa565b61041d61175b565b610482600480360360408110156106d157600080fd5b506001600160a01b03813516906020013561176a565b6103d5600480360360408110156106fd57600080fd5b506001600160a01b0381351690602001356117c0565b6103d56004803603604081101561072957600080fd5b506001600160a01b038135169060200135611828565b61048261183c565b6103d5600480360361010081101561075e57600080fd5b506001600160a01b03813581169160208101359091169060408101359060608101359060808101359060ff60a0820135169060c08101359060e00135611933565b6103d5611a44565b610441611a54565b610441611a5a565b610441600480360360408110156107cd57600080fd5b506001600160a01b0381358116916020013516611a60565b610482611a8b565b6107f5611b2b565b6040805192835260208301919091528051918290030190f35b6103d56004803603604081101561082457600080fd5b506001600160a01b0381358116916020013516611b71565b6103d5611cd7565b610319611ce7565b6104826004803603602081101561086257600080fd5b50356001600160a01b0316611d42565b61041d611e4b565b60038054604080516020601f60026000196101006001881615020190951694909404938401819004810282018101909252828152606093909290918301828280156109065780601f106108db57610100808354040283529160200191610906565b820191906000526020600020905b8154815290600101906020018083116108e957829003601f168201915b5050505050905090565b6015546000906001600160a01b0316610970576040805162461bcd60e51b815260206004820152601760248201527f70726963654d657461496e666f4462206e6f7420736574000000000000000000604482015290519081900360640190fd5b6015546040805163826f699760e01b815290516001600160a01b03808b1693169163826f6997916004808301926020929190829003018186803b1580156109b657600080fd5b505afa1580156109ca573d6000803e3d6000fd5b505050506040513d60208110156109e057600080fd5b50516001600160a01b031614610a275760405162461bcd60e51b81526004018080602001828103825260268152602001806131096026913960400191505060405180910390fd5b60408051606089901b6bffffffffffffffffffffffff1916602080830191909152603482018990526054808301899052835180840390910181526074830180855281519183019190912060155463028c089360e21b909252607884018190526001600160a01b03808d16609886015260b885018b905260ff8a1660d886015260f8850189905261011885018890529451909490911692630a30224c92610138808301939192829003018186803b158015610ae057600080fd5b505afa158015610af4573d6000803e3d6000fd5b505050506040513d6020811015610b0a57600080fd5b505198975050505050505050565b6000610b2c610b25611e5a565b8484611e5e565b5060015b92915050565b6013546001600160a01b031681565b60025490565b6009546001600160a01b031681565b6008546001600160a01b031681565b610b71611e5a565b60055461010090046001600160a01b03908116911614610bc6576040805162461bcd60e51b81526020600482018190526024820152600080516020613178833981519152604482015290519081900360640190fd5b601354600d546040805163a45aa36160e01b815284151560048201523060248201526044810192909252516001600160a01b039092169163a45aa3619160648082019260009290919082900301818387803b158015610c2457600080fd5b505af1158015610c38573d6000803e3d6000fd5b5050505050565b6000610c4c848484611f4a565b610cbc84610c58611e5a565b610cb785604051806060016040528060288152602001613150602891396001600160a01b038a16600090815260016020526040812090610c96611e5a565b6001600160a01b0316815260208101919091526040016000205491906120a5565b611e5e565b5060015b9392505050565b6013546000906001600160a01b0316610cde611e5a565b6001600160a01b03161480610d0d57506014546001600160a01b0316610d02611e5a565b6001600160a01b0316145b610d1657600080fd5b50600d5490565b6005546001600160a01b0382811661010090920416145b919050565b60055460ff1690565b600d5481565b60085460408051632fd8bff960e01b815263544b524760e01b600482015290516000926001600160a01b031691632fd8bff9916024808301926020929190829003018186803b158015610d9a57600080fd5b505afa158015610dae573d6000803e3d6000fd5b505050506040513d6020811015610dc457600080fd5b505190506001600160a01b038116610dd857fe5b60085460408051632fd8bff960e01b81526326a4a22160e11b600482015290516001600160a01b0390921691632fd8bff991602480820192602092909190829003018186803b158015610e2a57600080fd5b505afa158015610e3e573d6000803e3d6000fd5b505050506040513d6020811015610e5457600080fd5b5051601580546001600160a01b0319166001600160a01b0390921691909117905550565b6008546001600160a01b031615610f46576008546001600160a01b0316632f54bf6e610ea2611e5a565b6040518263ffffffff1660e01b815260040180826001600160a01b0316815260200191505060206040518083038186803b158015610edf57600080fd5b505afa158015610ef3573d6000803e3d6000fd5b505050506040513d6020811015610f0957600080fd5b5051610f465760405162461bcd60e51b815260040180806020018281038252603e81526020018061305d603e913960400191505060405180910390fd5b600880546001600160a01b0319166001600160a01b038316179055610f6a8161213c565b600980546001600160a01b0319166001600160a01b0392909216919091179055565b6013546001600160a01b031690565b6000610b2c610fa8611e5a565b84610cb78560016000610fb9611e5a565b6001600160a01b03908116825260208083019390935260409182016000908120918c16815292529020549061220e565b610ff1611e5a565b6007546001600160a01b0390811691161461104f576040805162461bcd60e51b81526020600482015260196024820152783cb7ba9030b932903737ba103a34329030b236b4b739ba32b960391b604482015290519081900360640190fd5b600754600160a01b900460ff166110a4576040805162461bcd60e51b815260206004820152601460248201527314185d5cd8589b194e881b9bdd081c185d5cd95960621b604482015290519081900360640190fd5b6007805460ff60a01b191690557f5db9ee0a495bf2e6ff9c91a7834c1ba4fdd244a5e8aa4e537bd38aeae4b073aa6110da611e5a565b604080516001600160a01b039092168252519081900360200190a1565b6111018282612268565b5050565b61110d611e5a565b60055461010090046001600160a01b03908116911614611162576040805162461bcd60e51b81526020600482018190526024820152600080516020613178833981519152604482015290519081900360640190fd5b600f54600160a01b900460ff166111c0576040805162461bcd60e51b815260206004820152601b60248201527f5468652070726f6475637420686173206265656e20636c6f7365640000000000604482015290519081900360640190fd5b600f805460ff60a01b19169055565b6000806111e78360115461235890919063ffffffff16565b905060008482106111f857846111fa565b815b90506000611208828861239a565b905060006112246103e861121e846102bc61239a565b90612358565b98975050505050505050565b600754600090600160a01b900460ff1615611285576040805162461bcd60e51b815260206004820152601060248201526f14185d5cd8589b194e881c185d5cd95960821b604482015290519081900360640190fd5b60006112978a8a8a8a8a8a8a8a6123f3565b9050806112a8576000915050611224565b600f546112bf906001600160a01b03168b83612446565b5060019998505050505050505050565b60135460408051635874263960e01b815230600482015290516000926001600160a01b0316916358742639916024808301926020929190829003018186803b15801561131a57600080fd5b505afa15801561132e573d6000803e3d6000fd5b505050506040513d602081101561134457600080fd5b5051905090565b6014546001600160a01b031681565b60115481565b600754600160a01b900460ff1690565b6013546001600160a01b0316611384611e5a565b6001600160a01b031614806113b357506014546001600160a01b03166113a8611e5a565b6001600160a01b0316145b6113bc57600080fd5b600f805460ff60a01b1916905560006113d3611e4b565b90506000806113e0611b2b565b9092509050801561146e57601454600f54611408916001600160a01b03918216911683612446565b60135460408051632c55dab160e11b81526004810184905290516001600160a01b03909216916358abb5629160248082019260009290919082900301818387803b15801561145557600080fd5b505af1158015611469573d6000803e3d6000fd5b505050505b811561148b57600f5461148b906001600160a01b03168484612446565b505050565b600b805460408051602060026001851615610100026000190190941693909304601f810184900484028201840190925281815292918301828280156115165780601f106114eb57610100808354040283529160200191611516565b820191906000526020600020905b8154815290600101906020018083116114f957829003601f168201915b505050505081565b600d5490565b6001600160a01b031660009081526020819052604090205490565b611547611e5a565b60055461010090046001600160a01b0390811691161461159c576040805162461bcd60e51b81526020600482018190526024820152600080516020613178833981519152604482015290519081900360640190fd5b60055460405160009161010090046001600160a01b0316907f8be0079c531659141344cd1fd0a4f28419497f9722a3daafe3b4186f6b6457e0908390a360058054610100600160a81b0319169055565b6115f4611e5a565b6007546001600160a01b03908116911614611652576040805162461bcd60e51b81526020600482015260196024820152783cb7ba9030b932903737ba103a34329030b236b4b739ba32b960391b604482015290519081900360640190fd5b600754600160a01b900460ff16156116a4576040805162461bcd60e51b815260206004820152601060248201526f14185d5cd8589b194e881c185d5cd95960821b604482015290519081900360640190fd5b6007805460ff60a01b1916600160a01b1790557f62e78cea01bee320cd4e420270b5ea74000d11b0c9f74754ebdbfc544b05a2586110da611e5a565b600e5481565b60055461010090046001600160a01b031690565b60048054604080516020601f60026000196101006001881615020190951694909404938401819004810282018101909252828152606093909290918301828280156109065780601f106108db57610100808354040283529160200191610906565b600f546001600160a01b031681565b6013546001600160a01b031661177e611e5a565b6001600160a01b031614806117ad57506014546001600160a01b03166117a2611e5a565b6001600160a01b0316145b6117b657600080fd5b611101828261251a565b6000610b2c6117cd611e5a565b84610cb78560405180606001604052806025815260200161325860259139600160006117f7611e5a565b6001600160a01b03908116825260208083019390935260409182016000908120918d168152925290205491906120a5565b6000610b2c611835611e5a565b8484611f4a565b60408051600180825281830190925273088800000000000000000000000000000000000191606091906020808301908036833701905050905060008160008151811061188457fe5b6001600160a01b03928316602091820292909201810191909152604051630809469f60e11b815260048101828152845160248301528451938616936310128d3e9386938392604490910191858101910280838360005b838110156118f25781810151838201526020016118da565b5050505090500192505050600060405180830381600087803b15801561191757600080fd5b505af115801561192b573d6000803e3d6000fd5b505050505050565b600754600090600160a01b900460ff1615611988576040805162461bcd60e51b815260206004820152601060248201526f14185d5cd8589b194e881c185d5cd95960821b604482015290519081900360640190fd5b60006119ae61199c600261121e8a8c61239a565b600f546001600160a01b031690612616565b600f549091506000906119cb906001600160a01b03168c30612640565b905081811015611a0c5760405162461bcd60e51b81526004018080602001828103825260298152602001806130126029913960400191505060405180910390fd5b600f54611a24906001600160a01b03168c3085612771565b611a358b838b8d8c8c8c8c8c612852565b9b9a5050505050505050505050565b600f54600160a01b900460ff1681565b60105490565b60105481565b6001600160a01b03918216600090815260016020908152604080832093909416825291909152205490565b6013546001600160a01b0316611a9f611e5a565b6001600160a01b03161480611ace57506014546001600160a01b0316611ac3611e5a565b6001600160a01b0316145b611ad757600080fd5b600f805461ffff60a01b1916600160a81b1790819055600090611b03906001600160a01b0316306128d6565b90508015611b2857601354600f54611b28916001600160a01b03918216911683612446565b50565b6000806000611b4d6103e861121e61012c60115461239a90919063ffffffff16565b90506000611b66826011546129b390919063ffffffff16565b919350909150509091565b6000611b7b611e5a565b60055461010090046001600160a01b03908116911614611bd0576040805162461bcd60e51b81526020600482018190526024820152600080516020613178833981519152604482015290519081900360640190fd5b6013546001600160a01b031615611c185760405162461bcd60e51b815260040180806020018281038252602c815260200180613202602c913960400191505060405180910390fd5b601380546001600160a01b038086166001600160a01b03199283161792839055601480548683169316929092179091556040805163021fd35d60e31b8152905192909116916310fe9ae891600480820192602092909190829003018186803b158015611c8357600080fd5b505afa158015611c97573d6000803e3d6000fd5b505050506040513d6020811015611cad57600080fd5b5051600f80546001600160a01b0319166001600160a01b0390921691909117905550600192915050565b600f54600160a81b900460ff1681565b600a805460408051602060026001851615610100026000190190941693909304601f810184900484028201840190925281815292918301828280156115165780601f106114eb57610100808354040283529160200191611516565b611d4a611e5a565b60055461010090046001600160a01b03908116911614611d9f576040805162461bcd60e51b81526020600482018190526024820152600080516020613178833981519152604482015290519081900360640190fd5b6001600160a01b038116611de45760405162461bcd60e51b815260040180806020018281038252602681526020018061309b6026913960400191505060405180910390fd5b6005546040516001600160a01b0380841692610100900416907f8be0079c531659141344cd1fd0a4f28419497f9722a3daafe3b4186f6b6457e090600090a3600580546001600160a01b0390921661010002610100600160a81b0319909216919091179055565b6007546001600160a01b031690565b3390565b6001600160a01b038316611ea35760405162461bcd60e51b81526004018080602001828103825260248152602001806131de6024913960400191505060405180910390fd5b6001600160a01b038216611ee85760405162461bcd60e51b81526004018080602001828103825260228152602001806130c16022913960400191505060405180910390fd5b6001600160a01b03808416600081815260016020908152604080832094871680845294825291829020859055815185815291517f8c5be1e5ebec7d5bd14f71427d1e84f3dd0314c0f7b2291e5b200ac8c7c3b9259281900390910190a3505050565b6001600160a01b038316611f8f5760405162461bcd60e51b81526004018080602001828103825260258152602001806131b96025913960400191505060405180910390fd5b6001600160a01b038216611fd45760405162461bcd60e51b8152600401808060200182810382526023815260200180612fef6023913960400191505060405180910390fd5b611fdf83838361148b565b61201c816040518060600160405280602681526020016130e3602691396001600160a01b03861660009081526020819052604090205491906120a5565b6001600160a01b03808516600090815260208190526040808220939093559084168152205461204b908261220e565b6001600160a01b038084166000818152602081815260409182902094909455805185815290519193928716927fddf252ad1be2c89b69c2b068fc378daa952ba7f163c4a11628f55a4df523b3ef92918290030190a3505050565b600081848411156121345760405162461bcd60e51b81526004018080602001828103825283818151815260200191508051906020019080838360005b838110156120f95781810151838201526020016120e1565b50505050905090810190601f1680156121265780820380516001836020036101000a031916815260200191505b509250505060405180910390fd5b505050900390565b6001600160a01b038116612197576040805162461bcd60e51b815260206004820152601a60248201527f7365744f776e61626c652073686f756c64206e6f742062652030000000000000604482015290519081900360640190fd5b6006546001600160a01b0316156121ea576040805162461bcd60e51b815260206004820152601260248201527105f6f776e65722073686f756c6420626520360741b604482015290519081900360640190fd5b600680546001600160a01b0319166001600160a01b038316179055611b28816129f5565b600082820183811015610cc0576040805162461bcd60e51b815260206004820152601b60248201527f536166654d6174683a206164646974696f6e206f766572666c6f770000000000604482015290519081900360640190fd5b6001600160a01b0382166122c3576040805162461bcd60e51b815260206004820152601f60248201527f45524332303a206d696e7420746f20746865207a65726f206164647265737300604482015290519081900360640190fd5b6122cf6000838361148b565b6002546122dc908261220e565b6002556001600160a01b038216600090815260208190526040902054612302908261220e565b6001600160a01b0383166000818152602081815260408083209490945583518581529351929391927fddf252ad1be2c89b69c2b068fc378daa952ba7f163c4a11628f55a4df523b3ef9281900390910190a35050565b6000610cc083836040518060400160405280601a81526020017f536166654d6174683a206469766973696f6e206279207a65726f000000000000815250612ac5565b6000826123a957506000610b30565b828202828482816123b657fe5b0414610cc05760405162461bcd60e51b815260040180806020018281038252602181526020018061312f6021913960400191505060405180910390fd5b60006123ff898861251a565b600061240e88886010546111cf565b60105490915061241e90896129b3565b60105560115461242e90826129b3565b601155612439612b2a565b9998505050505050505050565b600061245184612b6f565b90506001600160a01b03841673dac17f958d2ee523a2206206994597c13d831ec714156124f5576001600160a01b03841663a9059cbb846124928585612358565b6040518363ffffffff1660e01b815260040180836001600160a01b0316815260200182815260200192505050600060405180830381600087803b1580156124d857600080fd5b505af11580156124ec573d6000803e3d6000fd5b50505050612514565b612514836125038484612358565b6001600160a01b0387169190612bdf565b50505050565b6001600160a01b03821661255f5760405162461bcd60e51b81526004018080602001828103825260218152602001806131986021913960400191505060405180910390fd5b61256b8260008361148b565b6125a88160405180606001604052806022815260200161303b602291396001600160a01b03851660009081526020819052604090205491906120a5565b6001600160a01b0383166000908152602081905260409020556002546125ce90826129b3565b6002556040805182815290516000916001600160a01b038516917fddf252ad1be2c89b69c2b068fc378daa952ba7f163c4a11628f55a4df523b3ef9181900360200190a35050565b60008061262284612b6f565b9050612638816126328582612358565b9061239a565b949350505050565b60008061264c85612b6f565b90506001600160a01b03851673dac17f958d2ee523a2206206994597c13d831ec7141561270f5761270781866001600160a01b031663dd62ed3e87876040518363ffffffff1660e01b815260040180836001600160a01b03168152602001826001600160a01b031681526020019250505060206040518083038186803b1580156126d557600080fd5b505afa1580156126e9573d6000803e3d6000fd5b505050506040513d60208110156126ff57600080fd5b50519061239a565b915050610cc0565b61270781866001600160a01b031663dd62ed3e87876040518363ffffffff1660e01b815260040180836001600160a01b03168152602001826001600160a01b031681526020019250505060206040518083038186803b1580156126d557600080fd5b600061277c85612b6f565b90506001600160a01b03851673dac17f958d2ee523a2206206994597c13d831ec71415612831576001600160a01b0385166323b872dd85856127be8686612358565b6040518463ffffffff1660e01b815260040180846001600160a01b03168152602001836001600160a01b031681526020018281526020019350505050600060405180830381600087803b15801561281457600080fd5b505af1158015612828573d6000803e3d6000fd5b50505050610c38565b610c3884846128408585612358565b6001600160a01b038916929190612c31565b600061285e8a89612268565b60115461286b908a61220e565b60115560105461287b908961220e565b601055612886611e5a565b6001600160a01b03167fca5b35ba61f5255715f8c42e7d8a290c97cacd212322c5cde79fdecf0b07dae28a8a604051808381526020018281526020019250505060405180910390a26112bf612b2a565b6000806128e284612b6f565b90506001600160a01b03841673dac17f958d2ee523a2206206994597c13d831ec714156129625761295a81856001600160a01b03166370a08231866040518263ffffffff1660e01b815260040180826001600160a01b0316815260200191505060206040518083038186803b1580156126d557600080fd5b915050610b30565b61295a81856001600160a01b03166370a08231866040518263ffffffff1660e01b815260040180826001600160a01b0316815260200191505060206040518083038186803b1580156126d557600080fd5b6000610cc083836040518060400160405280601e81526020017f536166654d6174683a207375627472616374696f6e206f766572666c6f7700008152506120a5565b6001600160a01b038116612a50576040805162461bcd60e51b815260206004820152601a60248201527f7365744f776e61626c652073686f756c64206e6f742062652030000000000000604482015290519081900360640190fd5b6007546001600160a01b031615612aa3576040805162461bcd60e51b815260206004820152601260248201527105f6f776e65722073686f756c6420626520360741b604482015290519081900360640190fd5b600780546001600160a01b0319166001600160a01b0392909216919091179055565b60008183612b145760405162461bcd60e51b81526020600482018181528351602484015283519092839260449091019190850190808383600083156120f95781810151838201526020016120e1565b506000838581612b2057fe5b0495945050505050565b7f9093513bb21fd24ea8f9bd9172c00adce957f32345b9ff7f8a27700098da6479601054601154604051808381526020018281526020019250505060405180910390a1565b600080612b7b83612c8b565b90506012811115612bd3576040805162461bcd60e51b815260206004820152601a60248201527f746f6b656e277320646563696d616c73206d757374203c3d3138000000000000604482015290519081900360640190fd5b601203600a0a92915050565b604080516001600160a01b038416602482015260448082018490528251808303909101815260649091019091526020810180516001600160e01b031663a9059cbb60e01b17905261148b908490612d8d565b604080516001600160a01b0380861660248301528416604482015260648082018490528251808303909101815260849091019091526020810180516001600160e01b03166323b872dd60e01b179052612514908590612d8d565b60006001600160a01b03821673dac17f958d2ee523a2206206994597c13d831ec71415612d1e57816001600160a01b031663313ce5676040518163ffffffff1660e01b815260040160206040518083038186803b158015612ceb57600080fd5b505afa158015612cff573d6000803e3d6000fd5b505050506040513d6020811015612d1557600080fd5b50519050610d34565b816001600160a01b031663313ce5676040518163ffffffff1660e01b815260040160206040518083038186803b158015612d5757600080fd5b505afa158015612d6b573d6000803e3d6000fd5b505050506040513d6020811015612d8157600080fd5b505160ff169050610d34565b6060612de2826040518060400160405280602081526020017f5361666545524332303a206c6f772d6c6576656c2063616c6c206661696c6564815250856001600160a01b0316612e3e9092919063ffffffff16565b80519091501561148b57808060200190516020811015612e0157600080fd5b505161148b5760405162461bcd60e51b815260040180806020018281038252602a81526020018061322e602a913960400191505060405180910390fd5b606061263884846000856060612e5385612fb5565b612ea4576040805162461bcd60e51b815260206004820152601d60248201527f416464726573733a2063616c6c20746f206e6f6e2d636f6e7472616374000000604482015290519081900360640190fd5b60006060866001600160a01b031685876040518082805190602001908083835b60208310612ee35780518252601f199092019160209182019101612ec4565b6001836020036101000a03801982511681845116808217855250505050505090500191505060006040518083038185875af1925050503d8060008114612f45576040519150601f19603f3d011682016040523d82523d6000602084013e612f4a565b606091505b50915091508115612f5e5791506126389050565b805115612f6e5780518082602001fd5b60405162461bcd60e51b81526020600482018181528651602484015286518793919283926044019190850190808383600083156120f95781810151838201526020016120e1565b6000813f7fc5d2460186f7233c927e7db2dcc703c0e500b653ca82273b7bfad8045d85a47081811480159061263857505015159291505056fe45524332303a207472616e7366657220746f20746865207a65726f2061646472657373616c6c6f77616e6365206973206e6f7420656e6f75676820666f722063616c6c696e6720627579282945524332303a206275726e20616d6f756e7420657863656564732062616c616e63654a757374207468652072656769737465722773206f776e65722063616e2063616c6c207468652075706461746552656769737465724164647265737328294f776e61626c653a206e6577206f776e657220697320746865207a65726f206164647265737345524332303a20617070726f766520746f20746865207a65726f206164647265737345524332303a207472616e7366657220616d6f756e7420657863656564732062616c616e6365546865207072696365206e6f6465207075626c6963206b6579206973206e6f742076616c6964536166654d6174683a206d756c7469706c69636174696f6e206f766572666c6f7745524332303a207472616e7366657220616d6f756e74206578636565647320616c6c6f77616e63654f776e61626c653a2063616c6c6572206973206e6f7420746865206f776e657245524332303a206275726e2066726f6d20746865207a65726f206164647265737345524332303a207472616e736665722066726f6d20746865207a65726f206164647265737345524332303a20617070726f76652066726f6d20746865207a65726f2061646472657373546865207365745374616b696e67506f6f6c28292063616e206f6e6c792062652063616c6c6564206f6e63655361666545524332303a204552433230206f7065726174696f6e20646964206e6f74207375636365656445524332303a2064656372656173656420616c6c6f77616e63652062656c6f77207a65726fa26469706673582212204e734eaa4f0f42d6ca9efd66f9b9feda341c3756aabb3e6975a0804d4a0bf59a64736f6c634300060c0033",
  "immutableReferences": {},
  "source": "//SPDX-License-Identifier: SimPL-2.0\r\npragma solidity >=0.6.0 <0.7.0;\r\n\r\nimport \"./joveProductTokenBase.sol\";\r\nimport \"./@openzeppelin/token/ERC20/IERC20.sol\" ;\r\nimport \"./CompatibleERC20.sol\";\r\n\r\n\r\ncontract JoveProductToken is JoveProductTokenBase\r\n{\r\n    using CompatibleERC20 for address;\r\n    \r\n    bool _isclaim;\r\n\r\n\tconstructor(string memory categoryValue,string memory subCategoryValue,\r\n\t\tstring memory tokenNameValue,string memory tokenSymbolValue,\r\n\t\tuint256 closureTimestampValue)\r\n\t\tJoveProductTokenBase(categoryValue,subCategoryValue,tokenNameValue, tokenSymbolValue, closureTimestampValue) public \r\n\t{\r\n\t}\r\n\r\n\tfunction buy(address account, address priceNodePublicKey, uint256 quantity, uint256 price, \r\n                uint256 expiresAt, uint8 _v, bytes32 _r, bytes32 _s) whenNotPaused public returns(bool) {\r\n        //if (!_checkBuyAvailable(priceNodePublicKey,quantity,price,expiresAt,_v,_r,_s)){\r\n            //return false;\r\n        //}\r\n        uint256 amount = tokenAddress.getCleanAmount(price.mul(quantity).div(2));\r\n        uint256 allowance=tokenAddress.allowanceERC20(account,address(this));\r\n        \r\n        require(allowance>=amount,\"allowance is not enough for calling buy()\");\r\n        tokenAddress.transferFromERC20(account,address(this),amount); \r\n\r\n        return _buy(account, amount, quantity,priceNodePublicKey,price,expiresAt,_v,_r,_s);\r\n    }\r\n\r\n    function sell(address account, address priceNodePublicKey, uint256 quantity, uint256 price, uint256 expiresAt, uint8 _v, bytes32 _r, bytes32 _s) whenNotPaused external returns(bool){\r\n        uint256 returnAmount=_withdraw(account, priceNodePublicKey,quantity,price,expiresAt,_v,_r,_s);\r\n\t\tif (returnAmount==0){\r\n\t\t\treturn false;\r\n\t\t}\r\n\t\ttokenAddress.transferERC20(account,returnAmount);\r\n\t\treturn true;\r\n    }\r\n\r\n\tfunction close() public onlyOwner {\r\n\t\trequire(isValid,\"The product has been closed\");\r\n\t\tisValid = false;\r\n\t}\r\n\r\n    function getTotalSellQuantity() view public returns(uint256) {\r\n    \treturn totalSellQuantity;\r\n    }\t\r\n\r\n/*  \r\n    function setProductClaim(string memory subjectType) public onlyOwner {\r\n        uint256 timestamp = now;\r\n        //uint256 expireTimestamp = _priceMetaInfoDb.getPeriod(subjectType); //todo\r\n        uint256 expireTimestamp = 1209600; //todo\r\n        expireTimestamp  = expireTimestamp.add(timestamp);\r\n        closureTimestamp = now;\r\n        _isclaim = true;\r\n        stakingPool.productNeedClaim();   \r\n    }\r\n*/    \r\n    function getExpireTimestamp() view public onlyPool returns(uint256) {\r\n    \treturn expireTimestamp;\r\n    }\r\n\r\n/*    \r\n    function isClaim() view public onlyPool returns(bool) {\r\n        return _isclaim;\r\n    } \r\n*/\r\n\r\n    function approvePaid() public onlyPool {\r\n        isValid = false;\r\n        needPay = true;\r\n        \r\n        //address erc20Token = _tokenRegister.getToken(coinName);\r\n        uint256 balance = tokenAddress.balanceOfERC20(address(this));\r\n        if(balance>0){\r\n            tokenAddress.transferERC20(address(stakingPool),balance);\r\n        }\r\n    }\r\n\r\n    function calcDistributePremiums() public view returns(uint256,uint256){\r\n        //uint256 toOwnerAmount = totalPremiums.mul(_priceMetaInfoDb.PREMIUMS_SHARE_PERCENT()).div(1000);\r\n        uint256 toOwnerAmount = totalPremiums.mul(300).div(1000);\r\n        uint256 toPoolTokenAmount = totalPremiums.sub(toOwnerAmount);\r\n        return (toOwnerAmount,toPoolTokenAmount);\r\n    }\r\n\r\n\r\n    function rejectPaid() public onlyPool {\r\n        isValid = false;\r\n        address adminAddress = admin();\r\n        (uint256 toOwnerAmount, uint256 toPoolTokenAmount) = calcDistributePremiums();\r\n        //address erc20Token = _tokenRegister.getToken(coinName);\r\n        if(toPoolTokenAmount>0){\r\n            tokenAddress.transferERC20(stakingPoolToken, toPoolTokenAmount); \r\n            stakingPool.updataPremiumsRewards(toPoolTokenAmount);\r\n        }\r\n        if(toOwnerAmount>0){\r\n            tokenAddress.transferERC20(adminAddress, toOwnerAmount); \r\n        }\r\n    }\r\n\r\n    function close(bool needPay) public onlyOwner { \r\n\tstakingPool.setNeedPayFlag(needPay, address(this), expireTimestamp);\r\n    }\r\n    \r\n    function mint(address account, uint256 amount) public {\r\n    \t_mint(account, amount);\r\n    }\r\n}\r\n",
  "sourcePath": "/home/huanglinjia/MyDapp/test_truffle/JoveInsurance/contracts/joveProductToken.sol",
  "compiler": {
    "name": "solc",
    "version": "0.6.12+commit.27d51765.Emscripten.clang"
  },
  "schemaVersion": "3.3.3",
  "updatedAt": "2021-06-20T06:03:13.539Z",
  "devdoc": {
    "kind": "dev",
    "methods": {
      "allowance(address,address)": {
        "details": "See {IERC20-allowance}."
      },
      "approve(address,uint256)": {
        "details": "See {IERC20-approve}. Requirements: - `spender` cannot be the zero address."
      },
      "balanceOf(address)": {
        "details": "See {IERC20-balanceOf}."
      },
      "decimals()": {
        "details": "Returns the number of decimals used to get its user representation. For example, if `decimals` equals `2`, a balance of `505` tokens should be displayed to a user as `5,05` (`505 / 10 ** 2`). Tokens usually opt for a value of 18, imitating the relationship between Ether and Wei. This is the value {ERC20} uses, unless {_setupDecimals} is called. NOTE: This information is only used for _display_ purposes: it in no way affects any of the arithmetic of the contract, including {IERC20-balanceOf} and {IERC20-transfer}."
      },
      "decreaseAllowance(address,uint256)": {
        "details": "Atomically decreases the allowance granted to `spender` by the caller. This is an alternative to {approve} that can be used as a mitigation for problems described in {IERC20-approve}. Emits an {Approval} event indicating the updated allowance. Requirements: - `spender` cannot be the zero address. - `spender` must have allowance for the caller of at least `subtractedValue`."
      },
      "increaseAllowance(address,uint256)": {
        "details": "Atomically increases the allowance granted to `spender` by the caller. This is an alternative to {approve} that can be used as a mitigation for problems described in {IERC20-approve}. Emits an {Approval} event indicating the updated allowance. Requirements: - `spender` cannot be the zero address."
      },
      "name()": {
        "details": "Returns the name of the token."
      },
      "owner()": {
        "details": "Returns the address of the current owner."
      },
      "renounceOwnership()": {
        "details": "Leaves the contract without owner. It will not be possible to call `onlyOwner` functions anymore. Can only be called by the current owner. NOTE: Renouncing ownership will leave the contract without an owner, thereby removing any functionality that is only available to the owner."
      },
      "symbol()": {
        "details": "Returns the symbol of the token, usually a shorter version of the name."
      },
      "totalSupply()": {
        "details": "See {IERC20-totalSupply}."
      },
      "transfer(address,uint256)": {
        "details": "See {IERC20-transfer}. Requirements: - `recipient` cannot be the zero address. - the caller must have a balance of at least `amount`."
      },
      "transferFrom(address,address,uint256)": {
        "details": "See {IERC20-transferFrom}. Emits an {Approval} event indicating the updated allowance. This is not required by the EIP. See the note at the beginning of {ERC20}; Requirements: - `sender` and `recipient` cannot be the zero address. - `sender` must have a balance of at least `amount`. - the caller must have allowance for ``sender``'s tokens of at least `amount`."
      },
      "transferOwnership(address)": {
        "details": "Transfers ownership of the contract to a new account (`newOwner`). Can only be called by the current owner."
      }
    },
    "version": 1
  },
  "userdoc": {
    "kind": "user",
    "methods": {},
    "version": 1
  }
}