{
  "contractName": "PriceMetaInfoDB",
  "abi": [
    {
      "inputs": [
        {
          "internalType": "uint256",
          "name": "totalITFAmount",
          "type": "uint256"
        },
        {
          "internalType": "uint256",
          "name": "stakingMintPercent",
          "type": "uint256"
        },
        {
          "internalType": "uint256",
          "name": "oraclePayoutRate",
          "type": "uint256"
        },
        {
          "internalType": "uint256",
          "name": "oracleStageNum",
          "type": "uint256"
        },
        {
          "internalType": "uint256",
          "name": "oracleNum",
          "type": "uint256"
        },
        {
          "internalType": "uint256",
          "name": "oracleScheduleMultiplier",
          "type": "uint256"
        },
        {
          "internalType": "uint256",
          "name": "premiumsSharePercent",
          "type": "uint256"
        },
        {
          "internalType": "address[4]",
          "name": "itfReleaseAccounts",
          "type": "address[4]"
        },
        {
          "internalType": "uint256[4]",
          "name": "itfReleaseAccountMultipliers",
          "type": "uint256[4]"
        },
        {
          "internalType": "uint256",
          "name": "itfReleaseDivisor",
          "type": "uint256"
        },
        {
          "internalType": "uint256",
          "name": "channelPremiumsPercent",
          "type": "uint256"
        },
        {
          "internalType": "uint256",
          "name": "oracleValidPeriod",
          "type": "uint256"
        },
        {
          "internalType": "address",
          "name": "priceNodePublicKey",
          "type": "address"
        },
        {
          "internalType": "uint256",
          "name": "flashLoanPremiumsPercent",
          "type": "uint256"
        },
        {
          "internalType": "uint256",
          "name": "flashLoanPremiumsDivisor",
          "type": "uint256"
        },
        {
          "internalType": "uint256",
          "name": "blockTime_",
          "type": "uint256"
        }
      ],
      "stateMutability": "nonpayable",
      "type": "constructor"
    },
    {
      "anonymous": false,
      "inputs": [
        {
          "indexed": true,
          "internalType": "address",
          "name": "previousOwner",
          "type": "address"
        },
        {
          "indexed": true,
          "internalType": "address",
          "name": "newOwner",
          "type": "address"
        }
      ],
      "name": "OwnershipTransferred",
      "type": "event"
    },
    {
      "inputs": [],
      "name": "CHANNEL_PREMIUMS_PERCENT",
      "outputs": [
        {
          "internalType": "uint256",
          "name": "",
          "type": "uint256"
        }
      ],
      "stateMutability": "view",
      "type": "function"
    },
    {
      "inputs": [],
      "name": "FLASHLOAN_PREMIUMS_DIVISOR",
      "outputs": [
        {
          "internalType": "uint256",
          "name": "",
          "type": "uint256"
        }
      ],
      "stateMutability": "view",
      "type": "function"
    },
    {
      "inputs": [],
      "name": "FLASHLOAN_PREMIUMS_PERCENT",
      "outputs": [
        {
          "internalType": "uint256",
          "name": "",
          "type": "uint256"
        }
      ],
      "stateMutability": "view",
      "type": "function"
    },
    {
      "inputs": [],
      "name": "ITFAPY",
      "outputs": [
        {
          "internalType": "uint256",
          "name": "",
          "type": "uint256"
        }
      ],
      "stateMutability": "view",
      "type": "function"
    },
    {
      "inputs": [],
      "name": "ORACLE_NUM",
      "outputs": [
        {
          "internalType": "uint256",
          "name": "",
          "type": "uint256"
        }
      ],
      "stateMutability": "view",
      "type": "function"
    },
    {
      "inputs": [],
      "name": "ORACLE_PAYOUT_RATE",
      "outputs": [
        {
          "internalType": "uint256",
          "name": "",
          "type": "uint256"
        }
      ],
      "stateMutability": "view",
      "type": "function"
    },
    {
      "inputs": [],
      "name": "ORACLE_SCHEDULE_MULTIPLIER",
      "outputs": [
        {
          "internalType": "uint256",
          "name": "",
          "type": "uint256"
        }
      ],
      "stateMutability": "view",
      "type": "function"
    },
    {
      "inputs": [],
      "name": "ORACLE_STAGE_NUM",
      "outputs": [
        {
          "internalType": "uint256",
          "name": "",
          "type": "uint256"
        }
      ],
      "stateMutability": "view",
      "type": "function"
    },
    {
      "inputs": [],
      "name": "ORACLE_VALID_PERIOD",
      "outputs": [
        {
          "internalType": "uint256",
          "name": "",
          "type": "uint256"
        }
      ],
      "stateMutability": "view",
      "type": "function"
    },
    {
      "inputs": [],
      "name": "PREMIUMS_SHARE_PERCENT",
      "outputs": [
        {
          "internalType": "uint256",
          "name": "",
          "type": "uint256"
        }
      ],
      "stateMutability": "view",
      "type": "function"
    },
    {
      "inputs": [],
      "name": "PRICE_NODE_PUBLIC_KEY",
      "outputs": [
        {
          "internalType": "address",
          "name": "",
          "type": "address"
        }
      ],
      "stateMutability": "view",
      "type": "function"
    },
    {
      "inputs": [],
      "name": "PRODUCT_WITHDRAW_PERCENT",
      "outputs": [
        {
          "internalType": "uint256",
          "name": "",
          "type": "uint256"
        }
      ],
      "stateMutability": "view",
      "type": "function"
    },
    {
      "inputs": [],
      "name": "STAKING_MINT_PERCENT",
      "outputs": [
        {
          "internalType": "uint256",
          "name": "",
          "type": "uint256"
        }
      ],
      "stateMutability": "view",
      "type": "function"
    },
    {
      "inputs": [],
      "name": "STAKING_TOKEN_MARGIN",
      "outputs": [
        {
          "internalType": "uint256",
          "name": "",
          "type": "uint256"
        }
      ],
      "stateMutability": "view",
      "type": "function"
    },
    {
      "inputs": [],
      "name": "TOTAL_ITF_AMOUNT",
      "outputs": [
        {
          "internalType": "uint256",
          "name": "",
          "type": "uint256"
        }
      ],
      "stateMutability": "view",
      "type": "function"
    },
    {
      "inputs": [],
      "name": "blockTime",
      "outputs": [
        {
          "internalType": "uint256",
          "name": "",
          "type": "uint256"
        }
      ],
      "stateMutability": "view",
      "type": "function"
    },
    {
      "inputs": [
        {
          "internalType": "address",
          "name": "addr",
          "type": "address"
        }
      ],
      "name": "isOwner",
      "outputs": [
        {
          "internalType": "bool",
          "name": "",
          "type": "bool"
        }
      ],
      "stateMutability": "view",
      "type": "function"
    },
    {
      "inputs": [],
      "name": "owner",
      "outputs": [
        {
          "internalType": "address",
          "name": "",
          "type": "address"
        }
      ],
      "stateMutability": "view",
      "type": "function"
    },
    {
      "inputs": [],
      "name": "renounceOwnership",
      "outputs": [],
      "stateMutability": "nonpayable",
      "type": "function"
    },
    {
      "inputs": [
        {
          "internalType": "address",
          "name": "newOwner",
          "type": "address"
        }
      ],
      "name": "transferOwnership",
      "outputs": [],
      "stateMutability": "nonpayable",
      "type": "function"
    },
    {
      "inputs": [],
      "name": "currentTimestamp",
      "outputs": [
        {
          "internalType": "uint256",
          "name": "",
          "type": "uint256"
        }
      ],
      "stateMutability": "view",
      "type": "function"
    },
    {
      "inputs": [],
      "name": "refreshBlockTime",
      "outputs": [],
      "stateMutability": "nonpayable",
      "type": "function"
    },
    {
      "inputs": [
        {
          "internalType": "uint256",
          "name": "blockTime_",
          "type": "uint256"
        }
      ],
      "name": "setBlockTime",
      "outputs": [],
      "stateMutability": "nonpayable",
      "type": "function"
    },
    {
      "inputs": [
        {
          "internalType": "uint256",
          "name": "margin",
          "type": "uint256"
        }
      ],
      "name": "seStakingTokenMargin",
      "outputs": [],
      "stateMutability": "nonpayable",
      "type": "function"
    },
    {
      "inputs": [
        {
          "internalType": "uint256",
          "name": "id",
          "type": "uint256"
        }
      ],
      "name": "hasCoverChannel",
      "outputs": [
        {
          "internalType": "bool",
          "name": "",
          "type": "bool"
        }
      ],
      "stateMutability": "view",
      "type": "function"
    },
    {
      "inputs": [
        {
          "internalType": "uint256",
          "name": "id",
          "type": "uint256"
        }
      ],
      "name": "getCoverChannelAddress",
      "outputs": [
        {
          "internalType": "address",
          "name": "",
          "type": "address"
        }
      ],
      "stateMutability": "view",
      "type": "function"
    },
    {
      "inputs": [
        {
          "internalType": "uint256",
          "name": "id",
          "type": "uint256"
        },
        {
          "internalType": "address",
          "name": "receiverAccount",
          "type": "address"
        }
      ],
      "name": "registerCoverChannel",
      "outputs": [],
      "stateMutability": "nonpayable",
      "type": "function"
    },
    {
      "inputs": [
        {
          "internalType": "uint256",
          "name": "id",
          "type": "uint256"
        }
      ],
      "name": "unregisterCoverChannel",
      "outputs": [],
      "stateMutability": "nonpayable",
      "type": "function"
    },
    {
      "inputs": [
        {
          "internalType": "uint256",
          "name": "channelPremiumsPercent",
          "type": "uint256"
        }
      ],
      "name": "setChannelPremiumsPercent",
      "outputs": [],
      "stateMutability": "nonpayable",
      "type": "function"
    },
    {
      "inputs": [
        {
          "internalType": "uint256",
          "name": "flashLoanPremiumsPercent",
          "type": "uint256"
        }
      ],
      "name": "setFlashLoanPremiumsPercent",
      "outputs": [],
      "stateMutability": "nonpayable",
      "type": "function"
    },
    {
      "inputs": [
        {
          "internalType": "uint256",
          "name": "stakingMintPercent",
          "type": "uint256"
        }
      ],
      "name": "setStakingMintPercent",
      "outputs": [],
      "stateMutability": "nonpayable",
      "type": "function"
    },
    {
      "inputs": [
        {
          "internalType": "uint256",
          "name": "oraclePayoutRate",
          "type": "uint256"
        }
      ],
      "name": "setOraclePayoutRate",
      "outputs": [],
      "stateMutability": "nonpayable",
      "type": "function"
    },
    {
      "inputs": [
        {
          "internalType": "uint256",
          "name": "oracleNum",
          "type": "uint256"
        }
      ],
      "name": "setOracleNum",
      "outputs": [],
      "stateMutability": "nonpayable",
      "type": "function"
    },
    {
      "inputs": [
        {
          "internalType": "uint256",
          "name": "oracleStageNum",
          "type": "uint256"
        }
      ],
      "name": "setOracleStageNum",
      "outputs": [],
      "stateMutability": "nonpayable",
      "type": "function"
    },
    {
      "inputs": [
        {
          "internalType": "uint256",
          "name": "oracleScheduleMultiplier",
          "type": "uint256"
        }
      ],
      "name": "setOracleScheduleMultiplier",
      "outputs": [],
      "stateMutability": "nonpayable",
      "type": "function"
    },
    {
      "inputs": [
        {
          "internalType": "uint256",
          "name": "oracleValidPeriod",
          "type": "uint256"
        }
      ],
      "name": "setOracleValidPeriod",
      "outputs": [],
      "stateMutability": "nonpayable",
      "type": "function"
    },
    {
      "inputs": [
        {
          "internalType": "uint256",
          "name": "itfApy",
          "type": "uint256"
        }
      ],
      "name": "setITFAPY",
      "outputs": [],
      "stateMutability": "nonpayable",
      "type": "function"
    },
    {
      "inputs": [
        {
          "internalType": "uint256",
          "name": "premiumsSharePercent",
          "type": "uint256"
        }
      ],
      "name": "setPremiumsSharePercent",
      "outputs": [],
      "stateMutability": "nonpayable",
      "type": "function"
    },
    {
      "inputs": [
        {
          "internalType": "uint256",
          "name": "productWithdrawPercent",
          "type": "uint256"
        }
      ],
      "name": "setProductWithdrawPercent",
      "outputs": [],
      "stateMutability": "nonpayable",
      "type": "function"
    },
    {
      "inputs": [
        {
          "internalType": "address[4]",
          "name": "itfReleaseAccounts",
          "type": "address[4]"
        },
        {
          "internalType": "uint256[4]",
          "name": "itfReleaseAccountMultipliers",
          "type": "uint256[4]"
        },
        {
          "internalType": "uint256",
          "name": "itfReleaseDivisor",
          "type": "uint256"
        }
      ],
      "name": "setITFReleaseAccounts",
      "outputs": [],
      "stateMutability": "nonpayable",
      "type": "function"
    },
    {
      "inputs": [],
      "name": "getITFReleaseAccountArray",
      "outputs": [
        {
          "internalType": "address[4]",
          "name": "",
          "type": "address[4]"
        }
      ],
      "stateMutability": "view",
      "type": "function"
    },
    {
      "inputs": [],
      "name": "getITFReleaseAccountMultiplierArray",
      "outputs": [
        {
          "internalType": "uint256[4]",
          "name": "",
          "type": "uint256[4]"
        }
      ],
      "stateMutability": "view",
      "type": "function"
    },
    {
      "inputs": [],
      "name": "getITFReleaseDivisor",
      "outputs": [
        {
          "internalType": "uint256",
          "name": "",
          "type": "uint256"
        }
      ],
      "stateMutability": "view",
      "type": "function"
    },
    {
      "inputs": [
        {
          "internalType": "string",
          "name": "subjectName",
          "type": "string"
        }
      ],
      "name": "getPeriod",
      "outputs": [
        {
          "internalType": "uint256",
          "name": "",
          "type": "uint256"
        }
      ],
      "stateMutability": "view",
      "type": "function"
    },
    {
      "inputs": [
        {
          "internalType": "address",
          "name": "priceNodePublicKey",
          "type": "address"
        }
      ],
      "name": "setPriceNodePublicKey",
      "outputs": [],
      "stateMutability": "nonpayable",
      "type": "function"
    },
    {
      "inputs": [
        {
          "internalType": "bytes32",
          "name": "messageHash",
          "type": "bytes32"
        },
        {
          "internalType": "address",
          "name": "publicKey",
          "type": "address"
        },
        {
          "internalType": "uint256",
          "name": "expiresAt",
          "type": "uint256"
        },
        {
          "internalType": "uint8",
          "name": "v",
          "type": "uint8"
        },
        {
          "internalType": "bytes32",
          "name": "r",
          "type": "bytes32"
        },
        {
          "internalType": "bytes32",
          "name": "s",
          "type": "bytes32"
        }
      ],
      "name": "verifySign",
      "outputs": [
        {
          "internalType": "bool",
          "name": "",
          "type": "bool"
        }
      ],
      "stateMutability": "view",
      "type": "function"
    },
    {
      "inputs": [],
      "name": "initSponsor",
      "outputs": [],
      "stateMutability": "nonpayable",
      "type": "function"
    }
  ],
  "bytecode": "0x60806040523480156200001157600080fd5b5060405162001cff38038062001cff83398181016040526102c08110156200003857600080fd5b508051602082015160408301516060840151608085015160a086015160c08701516101e08801516102008901516102208a01516102408b01516102608c01516102808d01516102a08e01519c9d9b9c9a9b999a98999798969760e0810197610160909101969594939291906000620000af620001f7565b600080546001600160a01b0319166001600160a01b0383169081178255604051929350917f8be0079c531659141344cd1fd0a4f28419497f9722a3daafe3b4186f6b6457e0908290a350600081116200014f576040805162461bcd60e51b815260206004820152601560248201527f626c6f636b2074696d65206d757374206265203e300000000000000000000000604482015290519081900360640190fd5b8f6006819055508e6007819055508d600a819055508c600b819055508b600c819055508a600d819055508960088190555084600e819055506200019a898989620001fb60201b60201c565b600580546001600160a01b0319166001600160a01b0395909516949094179093556002949094556003556004929092555060c8600f5561012c6009554360195542601a55601b555050600a601c5550620003639650505050505050565b3390565b62000205620001f7565b6000546001600160a01b0390811691161462000268576040805162461bcd60e51b815260206004820181905260248201527f4f776e61626c653a2063616c6c6572206973206e6f7420746865206f776e6572604482015290519081900360640190fd5b6200027760108460046200028f565b50620002876014836004620002ec565b506018555050565b8260048101928215620002da579160200282015b82811115620002da57825182546001600160a01b0319166001600160a01b03909116178255602090920191600190910190620002a3565b50620002e89291506200032b565b5090565b82600481019282156200031d579160200282015b828111156200031d57825182559160200191906001019062000300565b50620002e89291506200034c565b5b80821115620002e85780546001600160a01b03191681556001016200032c565b5b80821115620002e857600081556001016200034d565b61198c80620003736000396000f3fe608060405234801561001057600080fd5b50600436106102955760003560e01c8063719303e311610167578063b262af39116100ce578063e06e517311610087578063e06e51731461071c578063e37d8c3d14610739578063f2fde38b1461075f578063f382894614610785578063f425cb2a1461078d578063f6aa0ada1461079557610295565b8063b262af3914610634578063b51bc5af14610651578063c28c2edf14610659578063c2b4638f146106da578063cc8f1dde146106e2578063d93176de146106ff57610295565b80639239d7d6116101205780639239d7d6146105a1578063960c8b34146105be578063960cc267146105c6578063a2d54ac6146105e3578063aa3b13f11461060f578063b1a64ac81461062c57610295565b8063719303e314610516578063758b1ce3146105335780637daf61a314610550578063826f6997146105585780638da5cb5b1461057c5780638f12a2df1461058457610295565b8063438cf3341161020b57806358fc272d116101c457806358fc272d146104845780635cc146f7146104a157806363d24dee146104e15780636afb3769146104e9578063715018a6146104f1578063715b5979146104f957610295565b8063438cf3341461043f578063443841ef146104475780634717f91c1461044f57806348b15166146104575780634da883821461045f5780635461cb5e1461046757610295565b80632ae69fc91161025d5780632ae69fc9146103275780632e7725a9146103465780632f54bf6e1461034e578063329c66d0146103745780633ee735721461041a5780633f1e4ab31461043757610295565b80630a30224c1461029a5780630f12c225146102f55780631e2ff94f1461030f57806322e3e3971461031757806323156f791461031f575b600080fd5b6102e1600480360360c08110156102b057600080fd5b508035906001600160a01b036020820135169060408101359060ff6060820135169060808101359060a001356107b2565b604080519115158252519081900360200190f35b6102fd6109a6565b60408051918252519081900360200190f35b6102fd6109ac565b6102fd6109e4565b6102fd6109ea565b6103446004803603602081101561033d57600080fd5b50356109f0565b005b6102fd610a4d565b6102e16004803603602081101561036457600080fd5b50356001600160a01b0316610a53565b6102fd6004803603602081101561038a57600080fd5b8101906020810181356401000000008111156103a557600080fd5b8201836020820111156103b757600080fd5b803590602001918460018302840111640100000000831117156103d957600080fd5b91908080601f016020809104026020016040519081016040528093929190818152602001838380828437600092019190915250929550610a67945050505050565b6103446004803603602081101561043057600080fd5b5035610a6d565b6102fd610b12565b6102fd610b18565b6102fd610b1e565b6102fd610b24565b6102fd610b2a565b610344610b30565b6103446004803603602081101561047d57600080fd5b5035610b3a565b6103446004803603602081101561049a57600080fd5b5035610b97565b6104a9610bf4565b6040518082608080838360005b838110156104ce5781810151838201526020016104b6565b5050505090500191505060405180910390f35b6102fd610c39565b6102fd610c3f565b610344610c45565b6103446004803603602081101561050f57600080fd5b5035610ce7565b6103446004803603602081101561052c57600080fd5b5035610d44565b6103446004803603602081101561054957600080fd5b5035610da1565b6102fd610e60565b610560610e66565b604080516001600160a01b039092168252519081900360200190f35b610560610e75565b6103446004803603602081101561059a57600080fd5b5035610e84565b610344600480360360208110156105b757600080fd5b5035610f37565b6102fd610f94565b610344600480360360208110156105dc57600080fd5b5035610f9a565b610344600480360360408110156105f957600080fd5b50803590602001356001600160a01b0316610ff7565b6102e16004803603602081101561062557600080fd5b50356110c8565b6102fd6110e5565b6103446004803603602081101561064a57600080fd5b50356110eb565b6103446111b4565b610344600480360361012081101561067057600080fd5b8101908080608001906004806020026040519081016040528092919082600460200280828437600092019190915250506040805160808181019092529295949381810193925090600490839083908082843760009201919091525091945050903591506112ab9050565b6104a9611326565b610344600480360360208110156106f857600080fd5b5035611361565b6105606004803603602081101561071557600080fd5b50356113be565b6103446004803603602081101561073257600080fd5b50356113d9565b6103446004803603602081101561074f57600080fd5b50356001600160a01b031661148c565b6103446004803603602081101561077557600080fd5b50356001600160a01b0316611506565b6102fd6115fe565b6102fd611604565b610344600480360360208110156107ab57600080fd5b503561160a565b60004285116107f7576040805162461bcd60e51b815260206004820152600c60248201526b1d1a5b5948195e1c1a5c995960a21b604482015290519081900360640190fd5b60008760405160200180807f19457468657265756d205369676e6564204d6573736167653a0a333200000000815250601c01828152602001915050604051602081830303815290604052805190602001209050600060018287878760405160008152602001604052604051808581526020018460ff1681526020018381526020018281526020019450505050506020604051602081039080840390855afa1580156108a6573d6000803e3d6000fd5b505050602060405103519050876001600160a01b0316816001600160a01b031614610983578860405160200180807f19436f6e666c7578205369676e6564204d6573736167653a0a33320000000000815250601b0182815260200191505060405160208183030381529060405280519060200120915060018287878760405160008152602001604052604051808581526020018460ff1681526020018381526020018281526020019450505050506020604051602081039080840390855afa158015610976573d6000803e3d6000fd5b5050506020604051035190505b876001600160a01b0316816001600160a01b031614925050509695505050505050565b60045481565b60006109df601a546109d96103e86109d3601b54601954430361166790919063ffffffff16565b906116c9565b9061170b565b905090565b600d5481565b60025481565b6109f8611765565b6000546001600160a01b03908116911614610a48576040805162461bcd60e51b81526020600482018190526024820152600080516020611937833981519152604482015290519081900360640190fd5b600e55565b60035481565b6000546001600160a01b0391821691161490565b50600090565b610a75611765565b6000546001600160a01b03908116911614610ac5576040805162461bcd60e51b81526020600482018190526024820152600080516020611937833981519152604482015290519081900360640190fd5b6103e88110610b0d576040805162461bcd60e51b815260206004820152600f60248201526e696e76616c6964206974662041505960881b604482015290519081900360640190fd5b600f55565b600c5481565b60095481565b600e5481565b600a5481565b601b5481565b4360195542601a55565b610b42611765565b6000546001600160a01b03908116911614610b92576040805162461bcd60e51b81526020600482018190526024820152600080516020611937833981519152604482015290519081900360640190fd5b601c55565b610b9f611765565b6000546001600160a01b03908116911614610bef576040805162461bcd60e51b81526020600482018190526024820152600080516020611937833981519152604482015290519081900360640190fd5b600a55565b610bfc61180b565b6040805160808101918290529060109060049082845b81546001600160a01b03168152600190910190602001808311610c12575050505050905090565b600b5481565b601c5481565b610c4d611765565b6000546001600160a01b03908116911614610c9d576040805162461bcd60e51b81526020600482018190526024820152600080516020611937833981519152604482015290519081900360640190fd5b600080546040516001600160a01b03909116907f8be0079c531659141344cd1fd0a4f28419497f9722a3daafe3b4186f6b6457e0908390a3600080546001600160a01b0319169055565b610cef611765565b6000546001600160a01b03908116911614610d3f576040805162461bcd60e51b81526020600482018190526024820152600080516020611937833981519152604482015290519081900360640190fd5b600255565b610d4c611765565b6000546001600160a01b03908116911614610d9c576040805162461bcd60e51b81526020600482018190526024820152600080516020611937833981519152604482015290519081900360640190fd5b600755565b610da9611765565b6000546001600160a01b03908116911614610df9576040805162461bcd60e51b81526020600482018190526024820152600080516020611937833981519152604482015290519081900360640190fd5b601b548114610e555760008111610e4f576040805162461bcd60e51b81526020600482015260156024820152740626c6f636b2074696d65206d757374206265203e3605c1b604482015290519081900360640190fd5b601b8190555b610e5d610b30565b50565b60185490565b6005546001600160a01b031681565b6000546001600160a01b031690565b610e8c611765565b6000546001600160a01b03908116911614610edc576040805162461bcd60e51b81526020600482018190526024820152600080516020611937833981519152604482015290519081900360640190fd5b6103e88110610f32576040805162461bcd60e51b815260206004820152601e60248201527f696e76616c6964207072656d69756d732073686172652070657263656e740000604482015290519081900360640190fd5b600855565b610f3f611765565b6000546001600160a01b03908116911614610f8f576040805162461bcd60e51b81526020600482018190526024820152600080516020611937833981519152604482015290519081900360640190fd5b600d55565b600f5481565b610fa2611765565b6000546001600160a01b03908116911614610ff2576040805162461bcd60e51b81526020600482018190526024820152600080516020611937833981519152604482015290519081900360640190fd5b600c55565b610fff611765565b6000546001600160a01b0390811691161461104f576040805162461bcd60e51b81526020600482018190526024820152600080516020611937833981519152604482015290519081900360640190fd5b611058826110c8565b1561109a576040805162461bcd60e51b815260206004820152600d60248201526c5468652069642065786973747360981b604482015290519081900360640190fd5b60009182526001602052604090912080546001600160a01b0319166001600160a01b03909216919091179055565b6000908152600160205260409020546001600160a01b0316151590565b60085481565b6110f3611765565b6000546001600160a01b03908116911614611143576040805162461bcd60e51b81526020600482018190526024820152600080516020611937833981519152604482015290519081900360640190fd5b61114c816110c8565b611196576040805162461bcd60e51b815260206004820152601660248201527554686520696420646f6573206e6f742065786973747360501b604482015290519081900360640190fd5b600090815260016020526040902080546001600160a01b0319169055565b6040805160018082528183019092527308880000000000000000000000000000000000019160609190602080830190803683370190505090506000816000815181106111fc57fe5b6001600160a01b03928316602091820292909201810191909152604051630809469f60e11b815260048101828152845160248301528451938616936310128d3e9386938392604490910191858101910280838360005b8381101561126a578181015183820152602001611252565b5050505090500192505050600060405180830381600087803b15801561128f57600080fd5b505af11580156112a3573d6000803e3d6000fd5b505050505050565b6112b3611765565b6000546001600160a01b03908116911614611303576040805162461bcd60e51b81526020600482018190526024820152600080516020611937833981519152604482015290519081900360640190fd5b6113106010846004611829565b5061131e6014836004611881565b506018555050565b61132e61180b565b6040805160808101918290529060149060049082845b815481526020019060010190808311611344575050505050905090565b611369611765565b6000546001600160a01b039081169116146113b9576040805162461bcd60e51b81526020600482018190526024820152600080516020611937833981519152604482015290519081900360640190fd5b600b55565b6000908152600160205260409020546001600160a01b031690565b6113e1611765565b6000546001600160a01b03908116911614611431576040805162461bcd60e51b81526020600482018190526024820152600080516020611937833981519152604482015290519081900360640190fd5b6103e88110611487576040805162461bcd60e51b815260206004820181905260248201527f696e76616c69642070726f647563742077697468647261772070657263656e74604482015290519081900360640190fd5b600955565b611494611765565b6000546001600160a01b039081169116146114e4576040805162461bcd60e51b81526020600482018190526024820152600080516020611937833981519152604482015290519081900360640190fd5b600580546001600160a01b0319166001600160a01b0392909216919091179055565b61150e611765565b6000546001600160a01b0390811691161461155e576040805162461bcd60e51b81526020600482018190526024820152600080516020611937833981519152604482015290519081900360640190fd5b6001600160a01b0381166115a35760405162461bcd60e51b81526004018080602001828103825260268152602001806118f06026913960400191505060405180910390fd5b600080546040516001600160a01b03808516939216917f8be0079c531659141344cd1fd0a4f28419497f9722a3daafe3b4186f6b6457e091a3600080546001600160a01b0319166001600160a01b0392909216919091179055565b60075481565b60065481565b611612611765565b6000546001600160a01b03908116911614611662576040805162461bcd60e51b81526020600482018190526024820152600080516020611937833981519152604482015290519081900360640190fd5b600355565b600082611676575060006116c3565b8282028284828161168357fe5b04146116c05760405162461bcd60e51b81526004018080602001828103825260218152602001806119166021913960400191505060405180910390fd5b90505b92915050565b60006116c083836040518060400160405280601a81526020017f536166654d6174683a206469766973696f6e206279207a65726f000000000000815250611769565b6000828201838110156116c0576040805162461bcd60e51b815260206004820152601b60248201527f536166654d6174683a206164646974696f6e206f766572666c6f770000000000604482015290519081900360640190fd5b3390565b600081836117f55760405162461bcd60e51b81526004018080602001828103825283818151815260200191508051906020019080838360005b838110156117ba5781810151838201526020016117a2565b50505050905090810190601f1680156117e75780820380516001836020036101000a031916815260200191505b509250505060405180910390fd5b50600083858161180157fe5b0495945050505050565b60405180608001604052806004906020820280368337509192915050565b8260048101928215611871579160200282015b8281111561187157825182546001600160a01b0319166001600160a01b0390911617825560209092019160019091019061183c565b5061187d9291506118bb565b5090565b82600481019282156118af579160200282015b828111156118af578251825591602001919060010190611894565b5061187d9291506118da565b5b8082111561187d5780546001600160a01b03191681556001016118bc565b5b8082111561187d57600081556001016118db56fe4f776e61626c653a206e6577206f776e657220697320746865207a65726f2061646472657373536166654d6174683a206d756c7469706c69636174696f6e206f766572666c6f774f776e61626c653a2063616c6c6572206973206e6f7420746865206f776e6572a26469706673582212200b548038bde00c4f76bade828af85d3bbd058569ddc8d4764fda068023dc686164736f6c634300060c0033",
  "immutableReferences": {},
  "source": "\n//           DO WHAT THE FUCK YOU WANT TO PUBLIC LICENSE\n//                   Version 2, December 2004\n// \n//Copyright (C) 2021 Joveproject <Joveproject@yahoo.com>\n//\n//Everyone is permitted to copy and distribute verbatim or modified\n//copies of this license document, and changing it is allowed as long\n//as the name is changed.\n// \n//           DO WHAT THE FUCK YOU WANT TO PUBLIC LICENSE\n//  TERMS AND CONDITIONS FOR COPYING, DISTRIBUTION AND MODIFICATION\n//\n// You just DO WHAT THE FUCK YOU WANT TO.\n//SPDX-License-Identifier: SimPL-2.0\npragma solidity >=0.6.0 <0.7.0;\nimport \"./@openzeppelin/access/Ownable.sol\";\nimport './ISponsorWhiteListControl.sol';\nimport \"./@openzeppelin/math/SafeMath.sol\";\n\n\ncontract PriceMetaInfoDB is Ownable \n{\n    using SafeMath for uint256;    \n    mapping(uint256=>address) _channels;\n    \n    uint256 public CHANNEL_PREMIUMS_PERCENT; \n\n    uint256 public FLASHLOAN_PREMIUMS_PERCENT; \n\n    uint256 public FLASHLOAN_PREMIUMS_DIVISOR; \n\n    address public PRICE_NODE_PUBLIC_KEY; \n\n    uint256 public TOTAL_ITF_AMOUNT ;\n\n    uint256 public STAKING_MINT_PERCENT; \n\n    uint256 public PREMIUMS_SHARE_PERCENT; \n\n    uint256 public PRODUCT_WITHDRAW_PERCENT; \n\n    uint256 public ORACLE_PAYOUT_RATE; \n\n    uint256 public ORACLE_STAGE_NUM; \n\n    uint256 public ORACLE_NUM; \n\n    uint256 public ORACLE_SCHEDULE_MULTIPLIER; \n\n    uint256 public ORACLE_VALID_PERIOD; \n\n    uint256 public ITFAPY; \n    \n    address[4] private _itfReleaseAccountArray;\n    uint256[4] private _itfReleaseAccountMultiplierArray;\n    uint256 private _itfReleaseDivisor;\n\n    uint256 _lastBlockNumber;\n    uint256 _lastBlockTimestamp;\n    uint256 public blockTime  ; \n\n    function currentTimestamp() view public returns(uint256){\n        return (block.number-_lastBlockNumber).mul(blockTime).div(1000).add(_lastBlockTimestamp);\n    }\n\n    uint256 public STAKING_TOKEN_MARGIN; \n\n    constructor(uint256 totalITFAmount, uint256 stakingMintPercent, \n                uint256 oraclePayoutRate,uint256 oracleStageNum,uint256 oracleNum,uint256 oracleScheduleMultiplier,\n                uint256 premiumsSharePercent, \n                address[4] memory itfReleaseAccounts, \n                uint256[4] memory itfReleaseAccountMultipliers, \n                uint256 itfReleaseDivisor,\n                uint256 channelPremiumsPercent,\n                uint256 oracleValidPeriod,\n                address priceNodePublicKey,\n                uint256 flashLoanPremiumsPercent,\n                uint256 flashLoanPremiumsDivisor,\n                uint256 blockTime_\n                ) public{\n        require(blockTime_>0,\"block time must be >0\");\n\n        TOTAL_ITF_AMOUNT=totalITFAmount;\n        STAKING_MINT_PERCENT = stakingMintPercent;\n        ORACLE_PAYOUT_RATE = oraclePayoutRate;\n        ORACLE_STAGE_NUM = oracleStageNum;\n        ORACLE_NUM = oracleNum;\n        ORACLE_SCHEDULE_MULTIPLIER = oracleScheduleMultiplier;\n        PREMIUMS_SHARE_PERCENT = premiumsSharePercent;\n        ORACLE_VALID_PERIOD = oracleValidPeriod;\n        setITFReleaseAccounts(itfReleaseAccounts,itfReleaseAccountMultipliers,itfReleaseDivisor);\n        PRICE_NODE_PUBLIC_KEY = priceNodePublicKey;\n        CHANNEL_PREMIUMS_PERCENT=channelPremiumsPercent;\n        FLASHLOAN_PREMIUMS_PERCENT = flashLoanPremiumsPercent;\n        FLASHLOAN_PREMIUMS_DIVISOR = flashLoanPremiumsDivisor;\n\n        ITFAPY = 200;\n        PRODUCT_WITHDRAW_PERCENT = 300;\n        _lastBlockNumber=block.number;\n        _lastBlockTimestamp=block.timestamp;\n        blockTime = blockTime_;\n\n        STAKING_TOKEN_MARGIN=10;\n    }\n\n    function refreshBlockTime() public {\n        _lastBlockNumber=block.number;\n        _lastBlockTimestamp=block.timestamp;\n    }\n\n    function setBlockTime(uint256 blockTime_) public onlyOwner {\n        if (blockTime_!=blockTime){\n            require(blockTime_>0,\"block time must be >0\");\n            blockTime = blockTime_;\n        }\n        refreshBlockTime();\n    }\n\n    function seStakingTokenMargin(uint256 margin) public onlyOwner{\n        STAKING_TOKEN_MARGIN=margin;\n    }\n\n    function hasCoverChannel(uint256 id) view public returns(bool){\n        return _channels[id]!=address(0);\n    } \n\n    function getCoverChannelAddress(uint256 id) view public returns(address){\n        return _channels[id];\n    }\n\n    function registerCoverChannel(uint256 id,address receiverAccount) public onlyOwner{\n        require(!hasCoverChannel(id),\"The id exists\");\n        _channels[id]=receiverAccount;\n    }\n\n    function unregisterCoverChannel(uint256 id) public onlyOwner{\n        require(hasCoverChannel(id),\"The id does not exists\");\n        delete _channels[id];\n    }\n\n    function setChannelPremiumsPercent(uint256 channelPremiumsPercent) public onlyOwner {\n        CHANNEL_PREMIUMS_PERCENT = channelPremiumsPercent;\n    }\n\n    function setFlashLoanPremiumsPercent(uint256 flashLoanPremiumsPercent) public onlyOwner {\n        FLASHLOAN_PREMIUMS_PERCENT = flashLoanPremiumsPercent;\n    }\n\n    function setStakingMintPercent(uint256 stakingMintPercent) public onlyOwner {\n        STAKING_MINT_PERCENT = stakingMintPercent;\n    }\n\n    function setOraclePayoutRate(uint256 oraclePayoutRate) public onlyOwner {\n        ORACLE_PAYOUT_RATE = oraclePayoutRate;\n    }\n\n    function setOracleNum(uint256 oracleNum) public onlyOwner {\n        ORACLE_NUM = oracleNum;\n    }\n\n    function setOracleStageNum(uint256 oracleStageNum) public onlyOwner {\n        ORACLE_STAGE_NUM = oracleStageNum;\n    }\n\n    function setOracleScheduleMultiplier(uint256 oracleScheduleMultiplier) public onlyOwner {\n        ORACLE_SCHEDULE_MULTIPLIER = oracleScheduleMultiplier;\n    }\n\n\n\n    function setOracleValidPeriod(uint256 oracleValidPeriod) public onlyOwner {\n        ORACLE_VALID_PERIOD = oracleValidPeriod;\n    }\n\n    function setITFAPY(uint256 itfApy) public onlyOwner {\n        require(itfApy < 1000,\"invalid itf APY\");\n        ITFAPY = itfApy;\n    }\n\n    function setPremiumsSharePercent(uint256 premiumsSharePercent) public onlyOwner {\n        require(premiumsSharePercent < 1000,\"invalid premiums share percent\");\n        PREMIUMS_SHARE_PERCENT = premiumsSharePercent;\n    }\n\n    function setProductWithdrawPercent(uint256 productWithdrawPercent) public onlyOwner {\n        require(productWithdrawPercent < 1000,\"invalid product withdraw percent\");\n        PRODUCT_WITHDRAW_PERCENT = productWithdrawPercent;\n    }\n\n    function setITFReleaseAccounts(address[4] memory itfReleaseAccounts, uint256[4] memory itfReleaseAccountMultipliers, uint256 itfReleaseDivisor) public onlyOwner {\n        _itfReleaseAccountArray = itfReleaseAccounts;\n        _itfReleaseAccountMultiplierArray = itfReleaseAccountMultipliers;\n        _itfReleaseDivisor = itfReleaseDivisor;\n    }\n\n    function getITFReleaseAccountArray() public view returns(address[4] memory) {\n        return _itfReleaseAccountArray;\n    }\n\n    function getITFReleaseAccountMultiplierArray() public view returns(uint256[4] memory) {\n        return _itfReleaseAccountMultiplierArray;\n    }\n\n    function getITFReleaseDivisor() public view returns(uint256) {\n        return _itfReleaseDivisor;\n    }\n\n    function getPeriod(string memory subjectName) public view returns(uint256) {\n        return 0;\n    }\n    \n    function setPriceNodePublicKey(address priceNodePublicKey) public onlyOwner {\n        PRICE_NODE_PUBLIC_KEY = priceNodePublicKey;\n    }\n\n    function verifySign(bytes32 messageHash, address publicKey, uint256 expiresAt, uint8 v, bytes32 r, bytes32 s) public view returns(bool){\n\t\trequire(expiresAt > now, \"time expired\");\n        bytes32 prefixedHash = keccak256(abi.encodePacked(\"\\x19Ethereum Signed Message:\\n32\", messageHash));\n        address addr = ecrecover(prefixedHash, v, r, s);\n        if(addr!=publicKey){\n            prefixedHash = keccak256(abi.encodePacked(\"\\x19Conflux Signed Message:\\n32\", messageHash));\n            addr = ecrecover(prefixedHash, v, r, s);\n        }\n        return (addr==publicKey);\n    }\n\n    function initSponsor() external { \n        ISponsorWhiteListControl SPONSOR = ISponsorWhiteListControl(address(0x0888000000000000000000000000000000000001));\n        address[] memory users = new address[](1);\n        users[0] = address(0);\n        SPONSOR.addPrivilege(users);\n    }\n\n}\n",
  "sourcePath": "/home/huanglinjia/MyDapp/test_truffle/JoveInsurance/contracts/PriceMetaInfoDB.sol",
  "compiler": {
    "name": "solc",
    "version": "0.6.12+commit.27d51765.Emscripten.clang"
  },
  "schemaVersion": "3.3.3",
  "updatedAt": "2021-06-19T07:35:34.959Z",
  "devdoc": {
    "kind": "dev",
    "methods": {
      "owner()": {
        "details": "Returns the address of the current owner."
      },
      "renounceOwnership()": {
        "details": "Leaves the contract without owner. It will not be possible to call `onlyOwner` functions anymore. Can only be called by the current owner. NOTE: Renouncing ownership will leave the contract without an owner, thereby removing any functionality that is only available to the owner."
      },
      "transferOwnership(address)": {
        "details": "Transfers ownership of the contract to a new account (`newOwner`). Can only be called by the current owner."
      }
    },
    "version": 1
  },
  "userdoc": {
    "kind": "user",
    "methods": {},
    "version": 1
  }
}