{
  "contractName": "StakingPool",
  "abi": [
    {
      "inputs": [
        {
          "internalType": "uint256",
          "name": "minStakingAmount_",
          "type": "uint256"
        },
        {
          "internalType": "uint256",
          "name": "capacityLimitPercent_",
          "type": "uint256"
        },
        {
          "internalType": "bytes8",
          "name": "_coinName",
          "type": "bytes8"
        },
        {
          "internalType": "address",
          "name": "_tokenAddress",
          "type": "address"
        },
        {
          "internalType": "address",
          "name": "_joveVaultAddress",
          "type": "address"
        },
        {
          "internalType": "address",
          "name": "_controllerAddr",
          "type": "address"
        }
      ],
      "stateMutability": "nonpayable",
      "type": "constructor"
    },
    {
      "anonymous": false,
      "inputs": [
        {
          "indexed": true,
          "internalType": "address",
          "name": "previousOwner",
          "type": "address"
        },
        {
          "indexed": true,
          "internalType": "address",
          "name": "newOwner",
          "type": "address"
        }
      ],
      "name": "OwnershipTransferred",
      "type": "event"
    },
    {
      "anonymous": false,
      "inputs": [
        {
          "indexed": false,
          "internalType": "address",
          "name": "account",
          "type": "address"
        }
      ],
      "name": "Paused",
      "type": "event"
    },
    {
      "anonymous": false,
      "inputs": [
        {
          "indexed": false,
          "internalType": "address",
          "name": "account",
          "type": "address"
        }
      ],
      "name": "Unpaused",
      "type": "event"
    },
    {
      "inputs": [
        {
          "internalType": "address",
          "name": "",
          "type": "address"
        }
      ],
      "name": "_isClosed",
      "outputs": [
        {
          "internalType": "bool",
          "name": "",
          "type": "bool"
        }
      ],
      "stateMutability": "view",
      "type": "function"
    },
    {
      "inputs": [],
      "name": "_totalStakingTimeAmount",
      "outputs": [
        {
          "internalType": "uint256",
          "name": "",
          "type": "uint256"
        }
      ],
      "stateMutability": "view",
      "type": "function"
    },
    {
      "inputs": [],
      "name": "admin",
      "outputs": [
        {
          "internalType": "address",
          "name": "",
          "type": "address"
        }
      ],
      "stateMutability": "view",
      "type": "function"
    },
    {
      "inputs": [],
      "name": "capacityLimitPercent",
      "outputs": [
        {
          "internalType": "uint256",
          "name": "",
          "type": "uint256"
        }
      ],
      "stateMutability": "view",
      "type": "function"
    },
    {
      "inputs": [
        {
          "internalType": "address",
          "name": "",
          "type": "address"
        }
      ],
      "name": "claimEnable",
      "outputs": [
        {
          "internalType": "bool",
          "name": "",
          "type": "bool"
        }
      ],
      "stateMutability": "view",
      "type": "function"
    },
    {
      "inputs": [],
      "name": "controllerAddr",
      "outputs": [
        {
          "internalType": "address",
          "name": "",
          "type": "address"
        }
      ],
      "stateMutability": "view",
      "type": "function"
    },
    {
      "inputs": [],
      "name": "expireTimestamp",
      "outputs": [
        {
          "internalType": "uint256",
          "name": "",
          "type": "uint256"
        }
      ],
      "stateMutability": "view",
      "type": "function"
    },
    {
      "inputs": [],
      "name": "initSponsor",
      "outputs": [],
      "stateMutability": "nonpayable",
      "type": "function"
    },
    {
      "inputs": [
        {
          "internalType": "address",
          "name": "addr",
          "type": "address"
        }
      ],
      "name": "isOwner",
      "outputs": [
        {
          "internalType": "bool",
          "name": "",
          "type": "bool"
        }
      ],
      "stateMutability": "view",
      "type": "function"
    },
    {
      "inputs": [],
      "name": "joveVault",
      "outputs": [
        {
          "internalType": "contract IJoveVault",
          "name": "",
          "type": "address"
        }
      ],
      "stateMutability": "view",
      "type": "function"
    },
    {
      "inputs": [],
      "name": "minStakingAmount",
      "outputs": [
        {
          "internalType": "uint256",
          "name": "",
          "type": "uint256"
        }
      ],
      "stateMutability": "view",
      "type": "function"
    },
    {
      "inputs": [],
      "name": "needPayFlag",
      "outputs": [
        {
          "internalType": "bool",
          "name": "",
          "type": "bool"
        }
      ],
      "stateMutability": "view",
      "type": "function"
    },
    {
      "inputs": [],
      "name": "owner",
      "outputs": [
        {
          "internalType": "address",
          "name": "",
          "type": "address"
        }
      ],
      "stateMutability": "view",
      "type": "function"
    },
    {
      "inputs": [],
      "name": "pause",
      "outputs": [],
      "stateMutability": "nonpayable",
      "type": "function"
    },
    {
      "inputs": [],
      "name": "paused",
      "outputs": [
        {
          "internalType": "bool",
          "name": "",
          "type": "bool"
        }
      ],
      "stateMutability": "view",
      "type": "function"
    },
    {
      "inputs": [],
      "name": "register",
      "outputs": [
        {
          "internalType": "contract JoveRegister",
          "name": "",
          "type": "address"
        }
      ],
      "stateMutability": "view",
      "type": "function"
    },
    {
      "inputs": [],
      "name": "registerAddress",
      "outputs": [
        {
          "internalType": "address",
          "name": "",
          "type": "address"
        }
      ],
      "stateMutability": "view",
      "type": "function"
    },
    {
      "inputs": [],
      "name": "renounceOwnership",
      "outputs": [],
      "stateMutability": "nonpayable",
      "type": "function"
    },
    {
      "inputs": [],
      "name": "stakingPoolToken",
      "outputs": [
        {
          "internalType": "contract IStakingPoolToken",
          "name": "",
          "type": "address"
        }
      ],
      "stateMutability": "view",
      "type": "function"
    },
    {
      "inputs": [],
      "name": "tokenAddress",
      "outputs": [
        {
          "internalType": "address",
          "name": "",
          "type": "address"
        }
      ],
      "stateMutability": "view",
      "type": "function"
    },
    {
      "inputs": [
        {
          "internalType": "address",
          "name": "newOwner",
          "type": "address"
        }
      ],
      "name": "transferOwnership",
      "outputs": [],
      "stateMutability": "nonpayable",
      "type": "function"
    },
    {
      "inputs": [],
      "name": "unpause",
      "outputs": [],
      "stateMutability": "nonpayable",
      "type": "function"
    },
    {
      "inputs": [
        {
          "internalType": "address",
          "name": "registerAddr",
          "type": "address"
        }
      ],
      "name": "updateRegisterAddress",
      "outputs": [],
      "stateMutability": "nonpayable",
      "type": "function"
    },
    {
      "inputs": [
        {
          "internalType": "address",
          "name": "account",
          "type": "address"
        }
      ],
      "name": "getTimesStamps",
      "outputs": [
        {
          "internalType": "uint256",
          "name": "",
          "type": "uint256"
        }
      ],
      "stateMutability": "view",
      "type": "function"
    },
    {
      "inputs": [],
      "name": "calculateCapacity",
      "outputs": [
        {
          "internalType": "uint256",
          "name": "",
          "type": "uint256"
        }
      ],
      "stateMutability": "view",
      "type": "function"
    },
    {
      "inputs": [
        {
          "internalType": "address",
          "name": "productTokenAddr",
          "type": "address"
        }
      ],
      "name": "productTokenRemainingAmount",
      "outputs": [
        {
          "internalType": "uint256",
          "name": "",
          "type": "uint256"
        }
      ],
      "stateMutability": "view",
      "type": "function"
    },
    {
      "inputs": [],
      "name": "tokenHolderIdLength",
      "outputs": [
        {
          "internalType": "uint256",
          "name": "",
          "type": "uint256"
        }
      ],
      "stateMutability": "view",
      "type": "function"
    },
    {
      "inputs": [
        {
          "internalType": "address[]",
          "name": "productAddress",
          "type": "address[]"
        }
      ],
      "name": "setProductToken",
      "outputs": [
        {
          "internalType": "bool",
          "name": "",
          "type": "bool"
        }
      ],
      "stateMutability": "nonpayable",
      "type": "function"
    },
    {
      "inputs": [
        {
          "internalType": "uint256",
          "name": "closeTimeStamp",
          "type": "uint256"
        }
      ],
      "name": "setExpireTimestamp",
      "outputs": [],
      "stateMutability": "nonpayable",
      "type": "function"
    },
    {
      "inputs": [
        {
          "internalType": "address",
          "name": "account",
          "type": "address"
        },
        {
          "internalType": "uint256[]",
          "name": "holderInfo",
          "type": "uint256[]"
        },
        {
          "internalType": "uint256",
          "name": "timestamp",
          "type": "uint256"
        }
      ],
      "name": "updateTokenHolder",
      "outputs": [],
      "stateMutability": "nonpayable",
      "type": "function"
    },
    {
      "inputs": [
        {
          "internalType": "address",
          "name": "account",
          "type": "address"
        },
        {
          "internalType": "uint256[]",
          "name": "holderInfo",
          "type": "uint256[]"
        },
        {
          "internalType": "uint256",
          "name": "stakingtimeamount",
          "type": "uint256"
        }
      ],
      "name": "removeTokenHolder",
      "outputs": [],
      "stateMutability": "nonpayable",
      "type": "function"
    },
    {
      "inputs": [],
      "name": "updateDependentContractAddress",
      "outputs": [],
      "stateMutability": "nonpayable",
      "type": "function"
    },
    {
      "inputs": [
        {
          "internalType": "address",
          "name": "stakingpoolTokenAddr",
          "type": "address"
        }
      ],
      "name": "setStakingPoolToken",
      "outputs": [],
      "stateMutability": "nonpayable",
      "type": "function"
    },
    {
      "inputs": [
        {
          "internalType": "uint256",
          "name": "accumulateTimeStampsRewards",
          "type": "uint256"
        }
      ],
      "name": "calcPremiumsRewards",
      "outputs": [
        {
          "internalType": "uint256",
          "name": "",
          "type": "uint256"
        }
      ],
      "stateMutability": "view",
      "type": "function"
    },
    {
      "inputs": [
        {
          "internalType": "uint256",
          "name": "reward",
          "type": "uint256"
        }
      ],
      "name": "updataPremiumsRewards",
      "outputs": [],
      "stateMutability": "nonpayable",
      "type": "function"
    },
    {
      "inputs": [
        {
          "internalType": "uint256",
          "name": "reward",
          "type": "uint256"
        }
      ],
      "name": "deletePremiumsRewards",
      "outputs": [],
      "stateMutability": "nonpayable",
      "type": "function"
    },
    {
      "inputs": [],
      "name": "totalNeedPayFromStaking",
      "outputs": [
        {
          "internalType": "uint256",
          "name": "",
          "type": "uint256"
        }
      ],
      "stateMutability": "view",
      "type": "function"
    },
    {
      "inputs": [],
      "name": "totalRealPayFromStaking",
      "outputs": [
        {
          "internalType": "uint256",
          "name": "",
          "type": "uint256"
        }
      ],
      "stateMutability": "view",
      "type": "function"
    },
    {
      "inputs": [
        {
          "internalType": "address",
          "name": "productTokenAddr",
          "type": "address"
        }
      ],
      "name": "payAmount",
      "outputs": [
        {
          "internalType": "uint256",
          "name": "",
          "type": "uint256"
        }
      ],
      "stateMutability": "view",
      "type": "function"
    },
    {
      "inputs": [
        {
          "internalType": "address",
          "name": "productAddr",
          "type": "address"
        }
      ],
      "name": "productTokenExpireTimestamp",
      "outputs": [
        {
          "internalType": "uint256",
          "name": "",
          "type": "uint256"
        }
      ],
      "stateMutability": "view",
      "type": "function"
    },
    {
      "inputs": [],
      "name": "hasClaimQuantity",
      "outputs": [
        {
          "internalType": "address[]",
          "name": "",
          "type": "address[]"
        },
        {
          "internalType": "uint256[]",
          "name": "",
          "type": "uint256[]"
        },
        {
          "internalType": "uint256[]",
          "name": "",
          "type": "uint256[]"
        }
      ],
      "stateMutability": "view",
      "type": "function"
    },
    {
      "inputs": [],
      "name": "getTokenAddress",
      "outputs": [
        {
          "internalType": "address",
          "name": "",
          "type": "address"
        }
      ],
      "stateMutability": "view",
      "type": "function"
    },
    {
      "inputs": [],
      "name": "getTotalStakingTimeAmount",
      "outputs": [
        {
          "internalType": "uint256",
          "name": "",
          "type": "uint256"
        }
      ],
      "stateMutability": "view",
      "type": "function"
    },
    {
      "inputs": [
        {
          "internalType": "bool[]",
          "name": "needPay",
          "type": "bool[]"
        },
        {
          "internalType": "address[]",
          "name": "productTokenAddr",
          "type": "address[]"
        },
        {
          "internalType": "uint256[]",
          "name": "timestamp",
          "type": "uint256[]"
        }
      ],
      "name": "setNeedPayFlagAll",
      "outputs": [],
      "stateMutability": "nonpayable",
      "type": "function"
    },
    {
      "inputs": [
        {
          "internalType": "bool",
          "name": "needPay",
          "type": "bool"
        },
        {
          "internalType": "address",
          "name": "productTokenAddr",
          "type": "address"
        },
        {
          "internalType": "uint256",
          "name": "timestamp",
          "type": "uint256"
        }
      ],
      "name": "setNeedPayFlag",
      "outputs": [],
      "stateMutability": "nonpayable",
      "type": "function"
    },
    {
      "inputs": [
        {
          "internalType": "address",
          "name": "productTokenAddr",
          "type": "address"
        }
      ],
      "name": "updatePayAmount",
      "outputs": [],
      "stateMutability": "nonpayable",
      "type": "function"
    },
    {
      "inputs": [],
      "name": "getTotalPoolTokenPremiums",
      "outputs": [
        {
          "internalType": "uint256",
          "name": "",
          "type": "uint256"
        }
      ],
      "stateMutability": "view",
      "type": "function"
    },
    {
      "inputs": [
        {
          "internalType": "uint256",
          "name": "quantity",
          "type": "uint256"
        },
        {
          "internalType": "uint256",
          "name": "expireTimestamp",
          "type": "uint256"
        },
        {
          "internalType": "address",
          "name": "productAddr",
          "type": "address"
        }
      ],
      "name": "productNeedClaim",
      "outputs": [],
      "stateMutability": "nonpayable",
      "type": "function"
    },
    {
      "inputs": [
        {
          "internalType": "address",
          "name": "productAddr",
          "type": "address"
        }
      ],
      "name": "productToken",
      "outputs": [
        {
          "internalType": "contract IJoveProductToken",
          "name": "",
          "type": "address"
        }
      ],
      "stateMutability": "view",
      "type": "function"
    },
    {
      "inputs": [
        {
          "internalType": "address",
          "name": "userAccount",
          "type": "address"
        },
        {
          "internalType": "address",
          "name": "productTokenAddr",
          "type": "address"
        }
      ],
      "name": "queryAndCheckClaimAmount",
      "outputs": [
        {
          "internalType": "uint256",
          "name": "",
          "type": "uint256"
        },
        {
          "internalType": "uint256",
          "name": "",
          "type": "uint256"
        }
      ],
      "stateMutability": "view",
      "type": "function"
    }
  ],
  "bytecode": "0x60806040523480156200001157600080fd5b506040516200378738038062003787833981016040819052620000349162000123565b6000620000406200011f565b600080546001600160a01b0319166001600160a01b0383169081178255604051929350917f8be0079c531659141344cd1fd0a4f28419497f9722a3daafe3b4186f6b6457e0908290a3506002805460ff60a01b191690556001600555600e95909555600f9390935560006024819055601755600780546001600160401b03191660c09390931c92909217600160401b600160e01b031916680100000000000000006001600160a01b039283160217909155600880546001600160a01b0319908116938316939093179055600d80549092169216919091179055620001c3565b3390565b60008060008060008060c087890312156200013c578182fd5b86516020880151604089015191975095506001600160c01b03198116811462000163578283fd5b60608801519094506200017681620001aa565b60808801519093506200018981620001aa565b60a08801519092506200019c81620001aa565b809150509295509295509295565b6001600160a01b0381168114620001c057600080fd5b50565b6135b480620001d36000396000f3fe608060405234801561001057600080fd5b50600436106102d65760003560e01c8063715018a611610182578063b732b521116100e9578063e0391f1d116100a2578063ee255c571161007c578063ee255c5714610581578063f2fde38b14610589578063f851a4401461059c578063fe29374b146105a4576102d6565b8063e0391f1d14610553578063e1e86d4d14610566578063e411061a1461056e576102d6565b8063b732b521146104ec578063c0693394146104ff578063c456343414610512578063ca1d6bbb14610525578063d02d718514610538578063d397245914610540576102d6565b80639985f4761161013b5780639985f4761461049b5780639d76ea58146104a3578063a2c17b17146104ab578063a45aa361146104be578063b0f51c13146104d1578063b51bc5af146104e4576102d6565b8063715018a614610455578063722e803b1461045d5780638456cb59146104655780638d11df201461046d5780638da5cb5b14610480578063927d0fc814610488576102d6565b80633f4ba83a1161024157806358abb562116101fa578063632535fa116101d4578063632535fa1461041b5780636342098f1461042e5780636dfe6d42146104365780636f8973f51461044d576102d6565b806358abb562146103f85780635c60b90b1461040b5780635c975abb14610413576102d6565b80633f4ba83a146103a75780634d11b75e146103af5780635117de60146103c257806356c405a2146103d5578063586e2c41146103dd57806358742639146103e5576102d6565b80632f54bf6e116102935780632f54bf6e1461033b57806330d766651461034e578063338b84c11461036f57806335d3a9bc14610377578063360e3e92146103815780633c156c3414610394576102d6565b806310fe9ae8146102db57806314862656146102f95780631832425f1461030e5780631aa3a008146103165780631b4ad8ea1461031e57806325c065b114610333575b600080fd5b6102e36105b7565b6040516102f09190612e8d565b60405180910390f35b6103016105cd565b6040516102f09190612f10565b6102e36105d6565b6102e36105e5565b6103266105f4565b6040516102f0919061349b565b6103266105fa565b610301610349366004612b3b565b610600565b61036161035c366004612b73565b610617565b6040516102f09291906134da565b610326610742565b61037f610748565b005b61037f61038f366004612b3b565b6107e8565b61037f6103a2366004612b3b565b6108e0565b61037f61095d565b6103016103bd366004612b3b565b610a08565b61037f6103d0366004612b3b565b610a1d565b6102e3610c14565b6102e3610c23565b6103266103f3366004612b3b565b610c32565b61037f610406366004612d76565b610c68565b610326610c97565b610301610c9d565b610301610429366004612b3b565b610cad565b610326610cc2565b61043e610e47565b6040516102f093929190612ecd565b61032661120a565b61037f611210565b61032661128f565b61037f611295565b61032661047b366004612d76565b611330565b6102e3611360565b61037f610496366004612c35565b61136f565b61032661141c565b6102e3611422565b6103266104b9366004612b3b565b611438565b61037f6104cc366004612d36565b611453565b6102e36104df366004612b3b565b611939565b61037f611965565b61037f6104fa366004612d76565b611a1e565b61032661050d366004612b3b565b611a3f565b61037f610520366004612d76565b611afa565b61037f610533366004612bab565b611b34565b610326611d29565b61037f61054e366004612da6565b611d2f565b610301610561366004612c02565b611e3f565b610326611eeb565b61037f61057c366004612bab565b611ef1565b6102e3612143565b61037f610597366004612b3b565b612152565b6102e3612208565b6103266105b2366004612b3b565b612217565b600754600160401b90046001600160a01b031690565b60195460ff1681565b6004546001600160a01b031681565b6003546001600160a01b031681565b60065490565b600e5481565b6000546001600160a01b038281169116145b919050565b6001600160a01b038116600090815260166020526040812054819060ff1661065a5760405162461bcd60e51b8152600401610651906130a8565b60405180910390fd5b6001600160a01b03831660009081526014602052604090205461068f5760405162461bcd60e51b8152600401610651906132ba565b6040516370a0823160e01b815283906000906001600160a01b038316906370a08231906106c0908990600401612e8d565b60206040518083038186803b1580156106d857600080fd5b505afa1580156106ec573d6000803e3d6000fd5b505050506040513d601f19601f820116820180604052508101906107109190612d8e565b6001600160a01b038616600090815260146020526040902054909150610737908290612232565b969095509350505050565b60135481565b600354604051632fd8bff960e01b81526001600160a01b0390911690632fd8bff99061077690600401613098565b60206040518083038186803b15801561078e57600080fd5b505afa1580156107a2573d6000803e3d6000fd5b505050506040513d601f19601f820116820180604052508101906107c69190612b57565b600c80546001600160a01b0319166001600160a01b0392909216919091179055565b6003546001600160a01b03161561089a576003546001600160a01b0316632f54bf6e610812612273565b6040518263ffffffff1660e01b815260040161082e9190612e8d565b60206040518083038186803b15801561084657600080fd5b505afa15801561085a573d6000803e3d6000fd5b505050506040513d601f19601f8201168201806040525081019061087e9190612d1a565b61089a5760405162461bcd60e51b815260040161065190612fbe565b600380546001600160a01b0319166001600160a01b0383161790556108be81612277565b600480546001600160a01b0319166001600160a01b0392909216919091179055565b6108e8612273565b6000546001600160a01b039081169116146109155760405162461bcd60e51b815260040161065190613217565b6001600160a01b03811661093b5760405162461bcd60e51b815260040161065190613352565b600b80546001600160a01b0319166001600160a01b0392909216919091179055565b610965612273565b6002546001600160a01b039081169116146109925760405162461bcd60e51b81526004016106519061316a565b600254600160a01b900460ff166109bb5760405162461bcd60e51b815260040161065190612f90565b6002805460ff60a01b191690557f5db9ee0a495bf2e6ff9c91a7834c1ba4fdd244a5e8aa4e537bd38aeae4b073aa6109f1612273565b6040516109fe9190612e8d565b60405180910390a1565b60156020526000908152604090205460ff1681565b6001600160a01b03811660009081526016602052604090205460ff16610a555760405162461bcd60e51b8152600401610651906130d2565b600754600090610a7590600160401b90046001600160a01b0316306122ed565b60405163732a2ccf60e01b815290915060009073__IterableMapping_______________________9063732a2ccf90610ab590601a9087906004016134a4565b60206040518083038186803b158015610acd57600080fd5b505af4158015610ae1573d6000803e3d6000fd5b505050506040513d601f19601f82011682018060405250810190610b059190612d8e565b90508015610b5657610b3881610b32601854610b2c601154876123d890919063ffffffff16565b906123d8565b906123fd565b6001600160a01b038416600090815260146020526040902055610b70565b6001600160a01b0383166000908152601460205260408120555b8115610c0f57601854610b8390836123d8565b601855600b54600754610baa916001600160a01b03600160401b909204821691168461243f565b600b54604051635242f91b60e01b81526001600160a01b0390911690635242f91b90610bdc90859087906004016134a4565b600060405180830381600087803b158015610bf657600080fd5b505af1158015610c0a573d6000803e3d6000fd5b505050505b505050565b6008546001600160a01b031681565b600b546001600160a01b031681565b60006001600160a01b038216610c5a5760405162461bcd60e51b81526004016106519061331d565b610c62610cc2565b92915050565b610c7b610c73612273565b602290612504565b610c8457600080fd5b601754610c9190826123d8565b60175550565b60175490565b600254600160a01b900460ff1690565b60166020526000908152604090205460ff1681565b600080805b610cd16022612519565b811015610d6d576000610ce5602283612524565b9050610d62816001600160a01b031663ca4429406040518163ffffffff1660e01b815260040160206040518083038186803b158015610d2357600080fd5b505afa158015610d37573d6000803e3d6000fd5b505050506040513d601f19601f82011682018060405250810190610d5b9190612d8e565b84906123d8565b925050600101610cc7565b50600854604080516316d3df1560e31b815290516000926001600160a01b03169163b69ef8a8916004808301926020929190829003018186803b158015610db357600080fd5b505afa158015610dc7573d6000803e3d6000fd5b505050506040513d601f19601f82011682018060405250810190610deb9190612d8e565b90506000610e096064610b32600f548561223290919063ffffffff16565b9050610e206024548261253090919063ffffffff16565b9050600081841015610e3b57610e368285612530565b610e3e565b60005b94505050505090565b606080606080606080601e73__IterableMapping_______________________63deb3d89690916040518263ffffffff1660e01b8152600401610e8a919061349b565b60206040518083038186803b158015610ea257600080fd5b505af4158015610eb6573d6000803e3d6000fd5b505050506040513d601f19601f82011682018060405250810190610eda9190612d8e565b604051636f59ec4b60e11b815273__IterableMapping_______________________9063deb3d89690610f1290601a9060040161349b565b60206040518083038186803b158015610f2a57600080fd5b505af4158015610f3e573d6000803e3d6000fd5b505050506040513d601f19601f82011682018060405250810190610f629190612d8e565b14610f6c57600080fd5b60005b604051636f59ec4b60e11b815273__IterableMapping_______________________9063deb3d89690610fa790601a9060040161349b565b60206040518083038186803b158015610fbf57600080fd5b505af4158015610fd3573d6000803e3d6000fd5b505050506040513d601f19601f82011682018060405250810190610ff79190612d8e565b8110156111fd576040516368d54f3f60e11b815260009073__IterableMapping_______________________9063d1aa9e7e9061103b90601a9086906004016134da565b60206040518083038186803b15801561105357600080fd5b505af4158015611067573d6000803e3d6000fd5b505050506040513d601f19601f8201168201806040525081019061108b9190612b57565b90508085838151811061109a57fe5b6001600160a01b039092166020928302919091019091015260405163732a2ccf60e01b815273__IterableMapping_______________________9063732a2ccf906110ec90601a9085906004016134a4565b60206040518083038186803b15801561110457600080fd5b505af4158015611118573d6000803e3d6000fd5b505050506040513d601f19601f8201168201806040525081019061113c9190612d8e565b84838151811061114857fe5b602090810291909101015260405163732a2ccf60e01b815273__IterableMapping_______________________9063732a2ccf9061118d90601e9085906004016134a4565b60206040518083038186803b1580156111a557600080fd5b505af41580156111b9573d6000803e3d6000fd5b505050506040513d601f19601f820116820180604052508101906111dd9190612d8e565b8383815181106111e957fe5b602090810291909101015250600101610f6f565b5091945092509050909192565b60105481565b611218612273565b6000546001600160a01b039081169116146112455760405162461bcd60e51b815260040161065190613217565b600080546040516001600160a01b03909116907f8be0079c531659141344cd1fd0a4f28419497f9722a3daafe3b4186f6b6457e0908390a3600080546001600160a01b0319169055565b60105490565b61129d612273565b6002546001600160a01b039081169116146112ca5760405162461bcd60e51b81526004016106519061316a565b600254600160a01b900460ff16156112f45760405162461bcd60e51b815260040161065190613140565b6002805460ff60a01b1916600160a01b1790557f62e78cea01bee320cd4e420270b5ea74000d11b0c9f74754ebdbfc544b05a2586109f1612273565b60006010546000141561134557506000610612565b610c62601054610b328460175461223290919063ffffffff16565b6000546001600160a01b031690565b611377612273565b600d546001600160a01b0390811691161461139157600080fd5b600260055414156113b45760405162461bcd60e51b815260040161065190613438565b600260055560005b8351811015611411576114098482815181106113d457fe5b60200260200101518483815181106113e857fe5b60200260200101518484815181106113fc57fe5b6020026020010151611453565b6001016113bc565b505060016005555050565b60125490565b600754600160401b90046001600160a01b031681565b6001600160a01b031660009081526009602052604090205490565b61145e610c73612273565b8061147e575061146c612273565b600d546001600160a01b039081169116145b61148757600080fd5b600260055414156114aa5760405162461bcd60e51b815260040161065190613438565b600260055581831561150e57806001600160a01b031663e4f453236040518163ffffffff1660e01b8152600401600060405180830381600087803b1580156114f157600080fd5b505af1158015611505573d6000803e3d6000fd5b505050506115e6565b806001600160a01b03166361fb9d3c6040518163ffffffff1660e01b8152600401600060405180830381600087803b15801561154957600080fd5b505af115801561155d573d6000803e3d6000fd5b5050600754600092506115819150600160401b90046001600160a01b0316306122ed565b60085460405163b6b55f2560e01b81529192506001600160a01b03169063b6b55f25906115b290849060040161349b565b600060405180830381600087803b1580156115cc57600080fd5b505af11580156115e0573d6000803e3d6000fd5b50505050505b60405163732a2ccf60e01b815260009073__IterableMapping_______________________9063732a2ccf9061162390601a9088906004016134a4565b60206040518083038186803b15801561163b57600080fd5b505af415801561164f573d6000803e3d6000fd5b505050506040513d601f19601f820116820180604052508101906116739190612d8e565b90508480156116825750600081115b1561192d5760405163732a2ccf60e01b815273__IterableMapping_______________________9063732a2ccf906116c190601e9088906004016134a4565b60206040518083038186803b1580156116d957600080fd5b505af41580156116ed573d6000803e3d6000fd5b505050506040513d601f19601f820116820180604052508101906117119190612d8e565b83111561171d57600080fd5b6019805486151560ff19918216179091556001600160a01b038086166000908152601660205260408120805490931660011790925560075461176891600160401b90910416306122ed565b905060006117768383612530565b90506000600860009054906101000a90046001600160a01b03166001600160a01b031663b69ef8a86040518163ffffffff1660e01b815260040160206040518083038186803b1580156117c857600080fd5b505afa1580156117dc573d6000803e3d6000fd5b505050506040513d601f19601f820116820180604052508101906118009190612d8e565b9050818111611813576011819055611819565b60118290555b6011541561192057600854601154604051632e1a7d4d60e01b81526001600160a01b0390921691632e1a7d4d916118529160040161349b565b600060405180830381600087803b15801561186c57600080fd5b505af1158015611880573d6000803e3d6000fd5b5050600b546007546118a89350600160401b90046001600160a01b039081169250168561243f565b6018839055600b546011546001600160a01b0390911690635242f91b906118cf90866123d8565b896040518363ffffffff1660e01b81526004016118ed9291906134a4565b600060405180830381600087803b15801561190757600080fd5b505af115801561191b573d6000803e3d6000fd5b505050505b61192987610a1d565b5050505b50506001600555505050565b60006001600160a01b0382166119615760405162461bcd60e51b815260040161065190613109565b5090565b6040805160018082528183019092527308880000000000000000000000000000000000019160609190602080830190803683370190505090506000816000815181106119ad57fe5b6001600160a01b039283166020918202929092010152604051630809469f60e11b8152908316906310128d3e906119e8908490600401612eba565b600060405180830381600087803b158015611a0257600080fd5b505af1158015611a16573d6000803e3d6000fd5b505050505050565b611a29610c73612273565b611a3257600080fd5b601754610c919082612530565b6001600160a01b03811660009081526021602052604081205460ff1615611af15760405163732a2ccf60e01b815273__IterableMapping_______________________9063732a2ccf90611a9a90601e9086906004016134a4565b60206040518083038186803b158015611ab257600080fd5b505af4158015611ac6573d6000803e3d6000fd5b505050506040513d601f19601f82011682018060405250810190611aea9190612d8e565b9050610612565b50601354610612565b611b02612273565b6000546001600160a01b03908116911614611b2f5760405162461bcd60e51b815260040161065190613217565b601355565b611b3c612273565b600b546001600160a01b03908116911614611b5657600080fd5b60026005541415611b795760405162461bcd60e51b815260040161065190613438565b6002600581905550600082600081518110611b9057fe5b60200260200101519050600083600181518110611ba957fe5b60200260200101519050600084600281518110611bc257fe5b602002602001015190506000611c0860096000896001600160a01b03166001600160a01b031681526020019081526020016000205460135461253090919063ffffffff16565b905082611c29576001600160a01b0387166000908152600960205260408120555b6008546001600160a01b0316632e1a7d4d611c448686612530565b6040518263ffffffff1660e01b8152600401611c60919061349b565b600060405180830381600087803b158015611c7a57600080fd5b505af1158015611c8e573d6000803e3d6000fd5b505050506001600160a01b0387166000908152600a6020526040902054858114611cca5760405162461bcd60e51b8152600401610651906132e6565b6000611ce083611cda8682612232565b90612232565b601054909150611cf09082612530565b601055611cfd8782612530565b6001600160a01b039099166000908152600a602052604090209890985550506001600555505050505050565b60115490565b611d37612273565b600d546001600160a01b03908116911614611d5157600080fd5b604051632f0ad01760e21b815273__IterableMapping_______________________9063bc2b405c90611d8d90601a90859088906004016134bb565b60006040518083038186803b158015611da557600080fd5b505af4158015611db9573d6000803e3d6000fd5b5050604051632f0ad01760e21b815273__IterableMapping_______________________925063bc2b405c9150611df990601e90859087906004016134bb565b60006040518083038186803b158015611e1157600080fd5b505af4158015611e25573d6000803e3d6000fd5b5050602454611e3792509050846123d8565b602455505050565b6000611e49612273565b6000546001600160a01b03908116911614611e765760405162461bcd60e51b815260040161065190613217565b60005b8251811015611ee2576000838281518110611e9057fe5b6020026020010151905060006001600160a01b0316816001600160a01b03161415611ecd5760405162461bcd60e51b815260040161065190613408565b611ed8602282612572565b5050600101611e79565b50600192915050565b600f5481565b611ef9612273565b600b546001600160a01b03908116911614611f1357600080fd5b60026005541415611f365760405162461bcd60e51b815260040161065190613438565b6002600581905550600082600081518110611f4d57fe5b60200260200101519050600083600181518110611f6657fe5b60200260200101519050600084600281518110611f7f57fe5b602002602001015190506000611f9e848461253090919063ffffffff16565b9050600e54811015611fc25760405162461bcd60e51b8152600401610651906131a1565b6001600160a01b03871660009081526009602052604090205461202b57600680546001810182556000919091527ff652222313e28459528d920b65115c16c04f3efc82aaedc97be59f3f377c0d3f0180546001600160a01b0319166001600160a01b0389161790555b60085460405163b6b55f2560e01b81526001600160a01b039091169063b6b55f259061205b90859060040161349b565b600060405180830381600087803b15801561207557600080fd5b505af1158015612089573d6000803e3d6000fd5b50506013546000925061209d915087612530565b905060006120af82611cda8582612232565b6010549091506120bf90826123d8565b6010556001600160a01b0389166000908152600a60205260409020546120e590826123d8565b6001600160a01b038a166000908152600a602052604081208290559061210b90876123fd565b905061211681612587565b6001600160a01b03909a166000908152600960205260409020999099555050600160055550505050505050565b600d546001600160a01b031681565b61215a612273565b6000546001600160a01b039081169116146121875760405162461bcd60e51b815260040161065190613217565b6001600160a01b0381166121ad5760405162461bcd60e51b81526004016106519061301b565b600080546040516001600160a01b03808516939216917f8be0079c531659141344cd1fd0a4f28419497f9722a3daafe3b4186f6b6457e091a3600080546001600160a01b0319166001600160a01b0392909216919091179055565b6002546001600160a01b031690565b6001600160a01b031660009081526014602052604090205490565b60008261224157506000610c62565b8282028284828161224e57fe5b041461226c5760405162461bcd60e51b8152600401610651906131d6565b9392505050565b3390565b6001600160a01b03811661229d5760405162461bcd60e51b815260040161065190613283565b6001546001600160a01b0316156122c65760405162461bcd60e51b81526004016106519061346f565b600180546001600160a01b0319166001600160a01b0383161790556122ea816125b9565b50565b6000806122f98461262a565b90506001600160a01b03841673dac17f958d2ee523a2206206994597c13d831ec714156123a8576123a081856001600160a01b03166370a08231866040518263ffffffff1660e01b81526004016123509190612e8d565b60206040518083038186803b15801561236857600080fd5b505afa15801561237c573d6000803e3d6000fd5b505050506040513d601f19601f82011682018060405250810190611cda9190612d8e565b915050610c62565b6123a081856001600160a01b03166370a08231866040518263ffffffff1660e01b81526004016123509190612e8d565b60008282018381101561226c5760405162461bcd60e51b815260040161065190613061565b600061226c83836040518060400160405280601a81526020017f536166654d6174683a206469766973696f6e206279207a65726f000000000000815250612665565b600061244a8461262a565b90506001600160a01b03841673dac17f958d2ee523a2206206994597c13d831ec714156124df576001600160a01b03841663a9059cbb8461248b85856123fd565b6040518363ffffffff1660e01b81526004016124a8929190612ea1565b600060405180830381600087803b1580156124c257600080fd5b505af11580156124d6573d6000803e3d6000fd5b505050506124fe565b6124fe836124ed84846123fd565b6001600160a01b038716919061269c565b50505050565b600061226c836001600160a01b0384166126f2565b6000610c628261270a565b600061226c838361270e565b600061226c83836040518060400160405280601e81526020017f536166654d6174683a207375627472616374696f6e206f766572666c6f770000815250612753565b600061226c836001600160a01b03841661277f565b600060026001830104825b8082101561226c5750806002818086816125a857fe5b0401816125b157fe5b049150612592565b6001600160a01b0381166125df5760405162461bcd60e51b815260040161065190613283565b6002546001600160a01b0316156126085760405162461bcd60e51b81526004016106519061346f565b600280546001600160a01b0319166001600160a01b0392909216919091179055565b600080612636836127c9565b905060128111156126595760405162461bcd60e51b81526004016106519061324c565b601203600a0a92915050565b600081836126865760405162461bcd60e51b81526004016106519190612f1b565b50600083858161269257fe5b0495945050505050565b610c0f8363a9059cbb60e01b84846040516024016126bb929190612ea1565b60408051601f198184030181529190526020810180516001600160e01b03166001600160e01b0319909316929092179091526128b8565b60009081526001919091016020526040902054151590565b5490565b815460009082106127315760405162461bcd60e51b815260040161065190612f4e565b82600001828154811061274057fe5b9060005260206000200154905092915050565b600081848411156127775760405162461bcd60e51b81526004016106519190612f1b565b505050900390565b600061278b83836126f2565b6127c157508154600181810184556000848152602080822090930184905584548482528286019093526040902091909155610c62565b506000610c62565b60006001600160a01b03821673dac17f958d2ee523a2206206994597c13d831ec7141561283d57816001600160a01b031663313ce5676040518163ffffffff1660e01b815260040160206040518083038186803b15801561282957600080fd5b505afa158015611ac6573d6000803e3d6000fd5b816001600160a01b031663313ce5676040518163ffffffff1660e01b815260040160206040518083038186803b15801561287657600080fd5b505afa15801561288a573d6000803e3d6000fd5b505050506040513d601f19601f820116820180604052508101906128ae9190612dde565b60ff169050610612565b606061290d826040518060400160405280602081526020017f5361666545524332303a206c6f772d6c6576656c2063616c6c206661696c6564815250856001600160a01b03166129479092919063ffffffff16565b805190915015610c0f578080602001905181019061292b9190612d1a565b610c0f5760405162461bcd60e51b8152600401610651906133be565b6060612956848460008561295e565b949350505050565b606061296985612a22565b6129855760405162461bcd60e51b815260040161065190613387565b60006060866001600160a01b031685876040516129a29190612e71565b60006040518083038185875af1925050503d80600081146129df576040519150601f19603f3d011682016040523d82523d6000602084013e6129e4565b606091505b509150915081156129f85791506129569050565b805115612a085780518082602001fd5b8360405162461bcd60e51b81526004016106519190612f1b565b6000813f7fc5d2460186f7233c927e7db2dcc703c0e500b653ca82273b7bfad8045d85a470818114801590612956575050151592915050565b600082601f830112612a6b578081fd5b8135612a7e612a798261350f565b6134e8565b818152915060208083019084810181840286018201871015612a9f57600080fd5b60005b84811015612ac7578135612ab58161355b565b84529282019290820190600101612aa2565b505050505092915050565b600082601f830112612ae2578081fd5b8135612af0612a798261350f565b818152915060208083019084810181840286018201871015612b1157600080fd5b60005b84811015612ac757813584529282019290820190600101612b14565b8035610c6281613570565b600060208284031215612b4c578081fd5b813561226c8161355b565b600060208284031215612b68578081fd5b815161226c8161355b565b60008060408385031215612b85578081fd5b8235612b908161355b565b91506020830135612ba08161355b565b809150509250929050565b600080600060608486031215612bbf578081fd5b8335612bca8161355b565b9250602084013567ffffffffffffffff811115612be5578182fd5b612bf186828701612ad2565b925050604084013590509250925092565b600060208284031215612c13578081fd5b813567ffffffffffffffff811115612c29578182fd5b61295684828501612a5b565b600080600060608486031215612c49578283fd5b833567ffffffffffffffff80821115612c60578485fd5b818601915086601f830112612c73578485fd5b8135612c81612a798261350f565b80828252602080830192508086018b828387028901011115612ca157898afd5b8996505b84871015612ccb57612cb78c82612b30565b845260019690960195928101928101612ca5565b509097508801359350505080821115612ce2578384fd5b612cee87838801612a5b565b93506040860135915080821115612d03578283fd5b50612d1086828701612ad2565b9150509250925092565b600060208284031215612d2b578081fd5b815161226c81613570565b600080600060608486031215612d4a578283fd5b8335612d5581613570565b92506020840135612d658161355b565b929592945050506040919091013590565b600060208284031215612d87578081fd5b5035919050565b600060208284031215612d9f578081fd5b5051919050565b600080600060608486031215612dba578283fd5b83359250602084013591506040840135612dd38161355b565b809150509250925092565b600060208284031215612def578081fd5b815160ff8116811461226c578182fd5b6000815180845260208085019450808401835b83811015612e375781516001600160a01b031687529582019590820190600101612e12565b509495945050505050565b6000815180845260208085019450808401835b83811015612e3757815187529582019590820190600101612e55565b60008251612e8381846020870161352f565b9190910192915050565b6001600160a01b0391909116815260200190565b6001600160a01b03929092168252602082015260400190565b60006020825261226c6020830184612dff565b600060608252612ee06060830186612dff565b8281036020840152612ef28186612e42565b90508281036040840152612f068185612e42565b9695505050505050565b901515815260200190565b6000602082528251806020840152612f3a81604085016020870161352f565b601f01601f19169190910160400192915050565b60208082526022908201527f456e756d657261626c655365743a20696e646578206f7574206f6620626f756e604082015261647360f01b606082015260800190565b60208082526014908201527314185d5cd8589b194e881b9bdd081c185d5cd95960621b604082015260600190565b6020808252603e908201527f4a757374207468652072656769737465722773206f776e65722063616e20636160408201527f6c6c207468652075706461746552656769737465724164647265737328290000606082015260800190565b60208082526026908201527f4f776e61626c653a206e6577206f776e657220697320746865207a65726f206160408201526564647265737360d01b606082015260800190565b6020808252601b908201527f536166654d6174683a206164646974696f6e206f766572666c6f770000000000604082015260600190565b6326a4a22160e11b815260200190565b60208082526010908201526f636c61696d206e6f7420656e61626c6560801b604082015260600190565b6020808252601b908201527f70726f64756374546f6b656e206973206e6f7420636c61696d65640000000000604082015260600190565b60208082526018908201527f70726f647563742061646472657373206973206e6f7420300000000000000000604082015260600190565b60208082526010908201526f14185d5cd8589b194e881c185d5cd95960821b604082015260600190565b60208082526019908201527f796f7520617265206e6f74207468652061646d696e7374657200000000000000604082015260600190565b6020808252818101527f616d6f756e742073686f756c64203e206d696e5374616b696e67416d6f756e74604082015260600190565b60208082526021908201527f536166654d6174683a206d756c7469706c69636174696f6e206f766572666c6f6040820152607760f81b606082015260800190565b6020808252818101527f4f776e61626c653a2063616c6c6572206973206e6f7420746865206f776e6572604082015260600190565b6020808252601a908201527f746f6b656e277320646563696d616c73206d757374203c3d3138000000000000604082015260600190565b6020808252601a908201527f7365744f776e61626c652073686f756c64206e6f742062652030000000000000604082015260600190565b6020808252601290820152716e6f206d6f6e657920666f7220636c61696d60701b604082015260600190565b6020808252601a908201527f7374616b696e6754696d65416d6f756e742069732077726f6e67000000000000604082015260600190565b6020808252818101527f5468652070726f64756374546f6b656e2073686f756c64206e6f742062652030604082015260600190565b6020808252818101527f7374616b696e67706f6f6c546f6b656e41646472206d757374206e6f74203078604082015260600190565b6020808252601d908201527f416464726573733a2063616c6c20746f206e6f6e2d636f6e7472616374000000604082015260600190565b6020808252602a908201527f5361666545524332303a204552433230206f7065726174696f6e20646964206e6040820152691bdd081cdd58d8d9595960b21b606082015260800190565b602080825260169082015275054686520746f6b656e206164647265737320697320360541b604082015260600190565b6020808252601f908201527f5265656e7472616e637947756172643a207265656e7472616e742063616c6c00604082015260600190565b60208082526012908201527105f6f776e65722073686f756c6420626520360741b604082015260600190565b90815260200190565b9182526001600160a01b0316602082015260400190565b9283526001600160a01b03919091166020830152604082015260600190565b918252602082015260400190565b60405181810167ffffffffffffffff8111828210171561350757600080fd5b604052919050565b600067ffffffffffffffff821115613525578081fd5b5060209081020190565b60005b8381101561354a578181015183820152602001613532565b838111156124fe5750506000910152565b6001600160a01b03811681146122ea57600080fd5b80151581146122ea57600080fdfea26469706673582212205e0e0b642637ecb58475cb4ab20f0c595f84e3c83abee526b52217d5c029232a64736f6c634300060c0033",
  "immutableReferences": {},
  "source": "//SPDX-License-Identifier: SimPL-2.0\n\npragma solidity >=0.6.0 <0.7.0;\n\npragma experimental ABIEncoderV2;\n\n\n\nimport \"./IStakingPool.sol\";\n\nimport \"./IJoveVault.sol\";\n\nimport \"./PriceMetaInfoDB.sol\";\n\nimport \"./IUpgradable.sol\";\n\nimport \"./@openzeppelin/math/SafeMath.sol\";\n\nimport \"./@openzeppelin/math/Math.sol\";\n\nimport \"./@openzeppelin/utils/ReentrancyGuard.sol\";\n\n//import \"./ERC20TokenRegister.sol\";\n\nimport \"./CompatibleERC20.sol\";\n\nimport \"./@openzeppelin/utils/EnumerableSet.sol\";\n\n\n\nlibrary IterableMapping {\n\n    // Iterable mapping from address to uint;\n\n    struct Map {\n\n        address[] keys;\n\n        mapping(address => uint) values;\n\n        mapping(address => uint) indexOf;\n\n        mapping(address => bool) inserted;\n\n    }\n\n\n\n    function get(Map storage map, address key) public view returns (uint) {\n\n        return map.values[key];\n\n    }\n\n\n\n    function getKeyAtIndex(Map storage map, uint index) public view returns (address) {\n\n        return map.keys[index];\n\n    }\n\n\n\n    function size(Map storage map) public view returns (uint) {\n\n        return map.keys.length;\n\n    }\n\n\n\n    function set(Map storage map, address key, uint val) public {\n\n        if (map.inserted[key]) {\n\n            map.values[key] = val;\n\n        } else {\n\n            map.inserted[key] = true;\n\n            map.values[key] = val;\n\n            map.indexOf[key] = map.keys.length;\n\n            map.keys.push(key);\n\n        }\n\n    }\n\n\n\n    function remove(Map storage map, address key) public {\n\n        if (!map.inserted[key]) {\n\n            return;\n\n        }\n\n\n\n        delete map.inserted[key];\n\n        delete map.values[key];\n\n\n\n        uint index = map.indexOf[key];\n\n        uint lastIndex = map.keys.length - 1;\n\n        address lastKey = map.keys[lastIndex];\n\n\n\n        map.indexOf[lastKey] = index;\n\n        delete map.indexOf[key];\n\n\n\n        map.keys[index] = lastKey;\n\n        map.keys.pop();\n\n    }\n\n}\n\n\n\ncontract StakingPool is IStakingPool, IUpgradable, ReentrancyGuard\n\n{\n\n    using SafeMath for uint256;\n\n    using CompatibleERC20 for address;\n\n    using IterableMapping for IterableMapping.Map;\n\n    using EnumerableSet for EnumerableSet.AddressSet;\n\n\n\n    address [] private tokenHolderIds;  \n\n    bytes8 coinName;\n\n    address public tokenAddress;\n\n    IJoveVault public joveVault;\n\n\n\n\n\n    mapping(address/*account*/=>uint256) _timestamps; \n\n    mapping(address/*account*/=>uint256) _tokenStakingTimeAmount;\n\n    \n\n    \n\n    IStakingPoolToken public stakingPoolToken;\n\n    //ERC20TokenRegister _tokenRegister;\n\n    PriceMetaInfoDB  _priceMetaInfoDb;\n    \n    address public controllerAddr;\n\n    uint256 public minStakingAmount; \n\n\n\n\tuint256 public capacityLimitPercent; \n\n\n\n    //uint256 private _totalStakingAmount; \n\n\n\n    uint256 public _totalStakingTimeAmount; \n\n\n\n    uint256 private _totalNeedPayFromStaking; \n\n\n\n    uint256 private _totalRealPayFromStaking; \n\n    \n\n    uint256 public expireTimestamp;\n\n\n\n    mapping(address=>uint256) private _payAmount;\n\n    mapping(address=>bool) public _isClosed;\n\n    mapping(address=>bool) public claimEnable;\n\n    \n\n    uint256 totalPoolTokenPremiums;\n\n\n\n    uint256 _totalPremiumsAfterClose;\n\n    \n\n    bool public needPayFlag;\n\n    \n\n    IterableMapping.Map private _claimQuantity;\n\n    IterableMapping.Map private _claimexpireTimestamp;\n\n    EnumerableSet.AddressSet private productTokenAddrs;\n\n    \n\n    \n\n    //address[] public productTokenAddrs;\n\n    uint256 _totalClaimQuantity;\n\n\n\n    constructor(uint256 minStakingAmount_, uint256 capacityLimitPercent_, bytes8 _coinName, address _tokenAddress, address _joveVaultAddress, address _controllerAddr) ReentrancyGuard() public{\n\n        minStakingAmount = minStakingAmount_;\n\n        capacityLimitPercent = capacityLimitPercent_;\n\n        _totalClaimQuantity = 0;\n\n        totalPoolTokenPremiums=0;\n\n        coinName = _coinName;\n\n        tokenAddress = _tokenAddress;\n\n        joveVault = IJoveVault(_joveVaultAddress);\n        \n        controllerAddr = _controllerAddr;\n\n    }\n\n\n\n    function sqrt(uint256 x) internal pure returns (uint256) {\n\n    \tuint256 z = (x + 1) / 2;\n\n    \tuint256 y = x;\n\n    \twhile(z < y) {\n\n    \t    y = z;\n\n    \t    z = (x / z + z) / 2;\n\n    \t}\n\n    \t\n\n    \treturn y;\n\n    }\n\n\n\n    function getTimesStamps(address account) view public returns(uint256) {\n\n    \treturn _timestamps[account]; \n\n    } \n\n    \n\n    function calculateCapacity() view public override returns(uint256) {\n\n        uint256 activeCovers = 0;\n\n        for(uint256 i=0;i<productTokenAddrs.length();++i) {\n\n            IJoveProductToken productToken = IJoveProductToken(productTokenAddrs.at(i));\n\n            activeCovers = activeCovers.add(productToken.totalSellQuantity());\n\n        }\n\n        uint256 _totalStakingAmount = joveVault.balance();\n\n        uint256 maxMCRCapacity = _totalStakingAmount.mul(capacityLimitPercent).div(100);\n\n        maxMCRCapacity = maxMCRCapacity.sub(_totalClaimQuantity);\n\n        uint256 availableCapacity = activeCovers >= maxMCRCapacity ? 0 : maxMCRCapacity.sub(activeCovers);\n\n        return availableCapacity;\n\n    }\n\n\n\n    function productTokenRemainingAmount(address productTokenAddr) view public override returns(uint256){ \n\n        require(productTokenAddr!=address(0),\"The productToken should not be 0\");\n\n        return calculateCapacity();\n\n    }\n\n\n\n    function tokenHolderIdLength() view public returns(uint256){\n\n        return tokenHolderIds.length;\n\n    }    \n\n\n\n    \n\n    function setProductToken(address[] memory productAddress) onlyOwner public returns(bool){\n\n        for(uint256 i=0;i<productAddress.length;++i) {\n\n            address tokenAddr = productAddress[i];\n\n            require(tokenAddr != address(0),\"The token address is 0\");\n\n            productTokenAddrs.add(tokenAddr);\n\n        }\n\n\t\treturn true;\n\n\t}\n\n    \n\n    modifier onlyPoolToken(){\n\n        require(address(stakingPoolToken)==address(_msgSender()));\n\n        _;\n\n    }\n\n    modifier onlyController(){\n\n        require(controllerAddr == _msgSender());\n\n        _;\n            \t\n    }\n\n    modifier onlyProductToken(){\n\n        require(productTokenAddrs.contains(_msgSender()));\n\n        _;\n\n    }    \n\n    modifier onlyOwnerAndController(){\n    \n        require(productTokenAddrs.contains(_msgSender()) || controllerAddr == _msgSender());\n\n        _;\n    }\n\n    function setExpireTimestamp(uint256 closeTimeStamp) onlyOwner public {\n\n        expireTimestamp = closeTimeStamp;\n\n    }\n\n\n\n    function updateTokenHolder(address account, uint256[] memory holderInfo, uint256 timestamp) onlyPoolToken nonReentrant public override {\n\n        uint256 old_amount = holderInfo[0];\n        uint256 new_amount = holderInfo[1];\n        uint256 principal = holderInfo[2];\n\n        uint256 difference = new_amount.sub(old_amount);\n\n        require(difference>=minStakingAmount,\"amount should > minStakingAmount\");\n\n        if(_timestamps[account] == 0) {\n\n            tokenHolderIds.push(account);\n\n        }\n\n        joveVault.deposit(principal);\n\n        uint256 period = expireTimestamp.sub(timestamp);\n\n        uint256 stakingTimeAmount = difference.mul(period).mul(period);\n\n        _totalStakingTimeAmount = _totalStakingTimeAmount.add(stakingTimeAmount);\n\n        _tokenStakingTimeAmount[account] = _tokenStakingTimeAmount[account].add(stakingTimeAmount);\n\n        uint256 timestamp2 = _tokenStakingTimeAmount[account].div(new_amount);\n\n        timestamp2 = sqrt(timestamp2);\n\n        _timestamps[account]=timestamp2;\n\n    }\n\n\n\n    function removeTokenHolder(address account, uint256[] memory holderInfo, uint256 stakingtimeamount) onlyPoolToken nonReentrant public override{ \n\n        uint256 old_amount = holderInfo[0];\n        uint256 new_amount = holderInfo[1];\n        uint256 principal = holderInfo[2];\n\n        uint256 period = expireTimestamp.sub(_timestamps[account]);\n\n        if(new_amount == 0) {\n\n            _timestamps[account] = 0;\n\n            //tokenHolderIds.pop(account);\n\n        }\n\n        joveVault.withdraw(old_amount.sub(new_amount));\n\n        uint256 stakingTimeAmount = _tokenStakingTimeAmount[account];\n\n        require(stakingTimeAmount == stakingtimeamount, \"stakingTimeAmount is wrong\");\n\n        uint256 diffstakingTimeAmount = principal.mul(period).mul(period);\n\n        _totalStakingTimeAmount = _totalStakingTimeAmount.sub(diffstakingTimeAmount);\n\n        _tokenStakingTimeAmount[account] = stakingtimeamount.sub(diffstakingTimeAmount);\n\n    }\n\n\n\n    function  updateDependentContractAddress() public override{\n\n        _priceMetaInfoDb=PriceMetaInfoDB(register.getContract(\"MIDB\"));\n\n        //stakingPoolToken=IStakingPoolToken(register.getContract(\"SKPT\"));\n\n        //require(address(stakingPoolToken)!=address(0),\"updateDependentContractAddress - staking pool token does not init\");\n\n        //_tokenRegister=ERC20TokenRegister(register.getContract(\"TKRG\"));\n\n    }\n\n\n\n    function setStakingPoolToken(address stakingpoolTokenAddr) onlyOwner public {\n\n    \trequire(stakingpoolTokenAddr != address(0), \"stakingpoolTokenAddr must not 0x\");\n\n    \tstakingPoolToken=IStakingPoolToken(stakingpoolTokenAddr);\n\n    }\n\n    \n\n    function calcPremiumsRewards(uint256 accumulateTimeStampsRewards) view public override returns(uint256){\n\n        if (_totalStakingTimeAmount == 0) {\n\n            return 0;\n\n        }\n\n        return totalPoolTokenPremiums.mul(accumulateTimeStampsRewards).div(_totalStakingTimeAmount); \n\n    }\n\n    \n\n    function updataPremiumsRewards(uint256 reward) onlyProductToken public override{\n\n        totalPoolTokenPremiums = totalPoolTokenPremiums.add(reward);\n\n    }\n\n    \n\n    function deletePremiumsRewards(uint256 reward) onlyProductToken public override{\n\n        totalPoolTokenPremiums = totalPoolTokenPremiums.sub(reward);\n\n    }    \n\n\n\n    function totalNeedPayFromStaking() view public override returns(uint256){\n\n        return _totalNeedPayFromStaking;\n\n    }\n\n\n\n    function totalRealPayFromStaking() view public override returns(uint256){\n\n        return _totalRealPayFromStaking;\n\n    }\n\n\n\n    function payAmount(address productTokenAddr) view public override returns(uint256){\n\n        return _payAmount[productTokenAddr];\n\n    }\n\n\n\n    function productTokenExpireTimestamp(address productAddr) view public override returns(uint256) {\n\n        if(_claimexpireTimestamp.inserted[productAddr]) {\n\n            return _claimexpireTimestamp.get(productAddr);\n\n        }else{\n\n            return expireTimestamp;\n\n        }\n\n    }\n\n\n\n    function hasClaimQuantity() view public returns(address[] memory, uint256[] memory, uint256[] memory) { // \n\n        address[] memory productTokenAddrArray;\n\n        uint256[] memory amountsArray;\n\n        uint256[] memory expireTimestampsArray;\n\n        \n\n        require(_claimQuantity.size() == _claimexpireTimestamp.size());\n\n        \n\n        for (uint i = 0; i < _claimQuantity.size(); i++) {\n\n            address key = _claimQuantity.getKeyAtIndex(i);\n\n            productTokenAddrArray[i] = key;\n\n            amountsArray[i] = _claimQuantity.get(key);\n\n            expireTimestampsArray[i] = _claimexpireTimestamp.get(key);\n\n        }\n\n        \n\n        return (productTokenAddrArray, amountsArray, expireTimestampsArray);\n\n    }\n\n\n\n    function getTokenAddress() view public override returns(address) {\n\n    \treturn tokenAddress;\n\n    }\n\n\n\n    function getTotalStakingTimeAmount() view public returns(uint256) {\n\n    \treturn _totalStakingTimeAmount;\n\n    }\n\n    function setNeedPayFlagAll(bool[] memory needPay, address[] memory productTokenAddr, uint256[] memory timestamp) onlyController nonReentrant public override{\n        for(uint i = 0; i < needPay.length; ++i) {\n            setNeedPayFlag(needPay[i], productTokenAddr[i], timestamp[i]);\n        }\n    }\n\n    function setNeedPayFlag(bool needPay, address productTokenAddr, uint256 timestamp) onlyOwnerAndController nonReentrant public override{\n\n        IJoveProductToken productToken = IJoveProductToken(productTokenAddr);\n\n        if(needPay) {\n\n            productToken.approvePaid();\n\n        }else{\n\n            productToken.rejectPaid();\n\n            uint256 totalPremiums = tokenAddress.balanceOfERC20(address(this));\n\n            joveVault.deposit(totalPremiums);\n\n        }\n\n        uint256 totalSellQuantity = _claimQuantity.get(productTokenAddr);\n\n        if(needPay && totalSellQuantity>0) { \n\n            require(timestamp <= _claimexpireTimestamp.get(productTokenAddr));\n\n            needPayFlag =  needPay;\n\n            claimEnable[productTokenAddr] = true;\n\n            //uint256 totalPremiums = _tokenRegister.getTokenBalance(coinName, address(this));\n\n            uint256 totalPremiums = tokenAddress.balanceOfERC20(address(this));\n\n            uint256 totalNeedPayAmount = totalSellQuantity.sub(totalPremiums);\n\n            uint256 totalRealPayAmount = joveVault.balance();\n\n            if(totalRealPayAmount<=totalNeedPayAmount) {\n\n                _totalNeedPayFromStaking = totalRealPayAmount;\n\n            }else{\n\n                _totalNeedPayFromStaking = totalNeedPayAmount;   \n\n            }\n\n    \n\n            if(_totalNeedPayFromStaking>0){\n\n                //address tokenAddress = _tokenRegister.getToken(coinName);\n\n                joveVault.withdraw(_totalNeedPayFromStaking);\n\n                tokenAddress.transferERC20(address(stakingPoolToken),totalPremiums);\n\n                _totalPremiumsAfterClose=totalPremiums;\n\n                stakingPoolToken.bookkeepingFromPool(_totalNeedPayFromStaking.add(_totalPremiumsAfterClose), productTokenAddr);\n\n            }\n\n            updatePayAmount(productTokenAddr);\n\n        }\n\n    }\n\n\n\n    function updatePayAmount(address productTokenAddr) public {\n\n        require(claimEnable[productTokenAddr], \"productToken is not claimed\");\n\n        //uint256 totalAmount = _tokenRegister.getTokenBalance(coinName, address(this));\n\n        uint256 totalAmount = tokenAddress.balanceOfERC20(address(this));\n\n        uint256 totalSellQuantity = _claimQuantity.get(productTokenAddr);\n\n        if(totalSellQuantity > 0) {\n\n            _payAmount[productTokenAddr] = totalAmount.add(_totalNeedPayFromStaking).add(_totalPremiumsAfterClose).div(totalSellQuantity);\n\n        }else{\n\n            _payAmount[productTokenAddr] = 0;\n\n        }\n\n        if (totalAmount>0){\n\n            //address tokenAddress = _tokenRegister.getToken(coinName);\n\n            _totalPremiumsAfterClose=_totalPremiumsAfterClose.add(totalAmount);\n\n            tokenAddress.transferERC20(address(stakingPoolToken),totalAmount);\n\n            stakingPoolToken.bookkeepingFromPool(totalAmount, productTokenAddr);\n\n        }\n\n        \n\n    }\n\n    \n\n    function getTotalPoolTokenPremiums() view public returns(uint256) {\n\n    \treturn totalPoolTokenPremiums;\n\n    }\n\n\n\n    function productNeedClaim(uint256 quantity, uint256 expireTimestamp, address productAddr) external override onlyController{\n\n        _claimQuantity.set(productAddr, quantity); \n\n        _claimexpireTimestamp.set(productAddr, expireTimestamp);\n\n        _totalClaimQuantity = _totalClaimQuantity.add(quantity);    \t\t\t\n\n    }\n\n/*\n\n    function closeProduct() external onlyOwner {\n\n        for(uint256 i=0;i < productTokenAddrs.length();++i) {\n\n            address productAddr = productTokenAddrs.at(i);\n\n            IJoveProductToken productToken = IJoveProductToken(productAddr);\n\n            productToken.isClaim();\n\n            if(productToken.isClaim()) {\n\n                uint256 quantity = productToken.totalSellQuantity();\n\n                _claimQuantity.set(productAddr, quantity); \n\n                _claimexpireTimestamp.set(productAddr, productToken.getExpireTimestamp());\n\n                _totalClaimQuantity = _totalClaimQuantity.add(quantity);\n\n            }else{\n\n                productToken.rejectPaid();\n\n            }\n\n        }\n\n    } \n\n*/\n\n        \n\n    function productToken(address productAddr) external view override returns(IJoveProductToken){\n\n        require(productAddr != address(0), \"product address is not 0\");\n\n        IJoveProductToken productToken = IJoveProductToken(productAddr);\n\n        return productToken;\n\n    }\n\n\n\n    function queryAndCheckClaimAmount(address userAccount, address productTokenAddr) view external override returns(uint256,uint256/*token balance*/){\n\n        require(claimEnable[productTokenAddr],\"claim not enable\");\n\n        require(_payAmount[productTokenAddr]>0,\"no money for claim\");\n\n        IJoveProductToken productToken = IJoveProductToken(productTokenAddr);\n\n        uint256 productTokenQuantity = productToken.balanceOf(userAccount);\n\n        return (productTokenQuantity.mul(_payAmount[productTokenAddr]),productTokenQuantity);\n\n    }\n\n}\n",
  "sourcePath": "/home/huanglinjia/MyDapp/test_truffle/JoveInsurance/contracts/StakingPool.sol",
  "compiler": {
    "name": "solc",
    "version": "0.6.12+commit.27d51765.Emscripten.clang"
  },
  "schemaVersion": "3.3.3",
  "updatedAt": "2021-06-20T06:03:13.433Z",
  "devdoc": {
    "kind": "dev",
    "methods": {
      "owner()": {
        "details": "Returns the address of the current owner."
      },
      "renounceOwnership()": {
        "details": "Leaves the contract without owner. It will not be possible to call `onlyOwner` functions anymore. Can only be called by the current owner. NOTE: Renouncing ownership will leave the contract without an owner, thereby removing any functionality that is only available to the owner."
      },
      "transferOwnership(address)": {
        "details": "Transfers ownership of the contract to a new account (`newOwner`). Can only be called by the current owner."
      }
    },
    "version": 1
  },
  "userdoc": {
    "kind": "user",
    "methods": {},
    "version": 1
  }
}