{
  "contractName": "StakingTokenHolder",
  "abi": [
    {
      "inputs": [
        {
          "internalType": "address",
          "name": "",
          "type": "address"
        }
      ],
      "name": "_coinHolders",
      "outputs": [
        {
          "internalType": "uint256",
          "name": "amount",
          "type": "uint256"
        },
        {
          "internalType": "uint256",
          "name": "beginTimestamp",
          "type": "uint256"
        },
        {
          "internalType": "uint256",
          "name": "stakingTimeRewards",
          "type": "uint256"
        },
        {
          "internalType": "string",
          "name": "coin",
          "type": "string"
        },
        {
          "internalType": "address",
          "name": "pool",
          "type": "address"
        }
      ],
      "stateMutability": "view",
      "type": "function"
    },
    {
      "inputs": [
        {
          "internalType": "address",
          "name": "addr",
          "type": "address"
        }
      ],
      "name": "setOperator",
      "outputs": [],
      "stateMutability": "nonpayable",
      "type": "function"
    },
    {
      "inputs": [
        {
          "internalType": "address",
          "name": "account",
          "type": "address"
        },
        {
          "internalType": "uint256",
          "name": "supply",
          "type": "uint256"
        },
        {
          "internalType": "uint256",
          "name": "balance",
          "type": "uint256"
        }
      ],
      "name": "canReleaseTokenHolderAmount",
      "outputs": [
        {
          "internalType": "uint256",
          "name": "",
          "type": "uint256"
        }
      ],
      "stateMutability": "view",
      "type": "function"
    },
    {
      "inputs": [
        {
          "internalType": "address",
          "name": "account",
          "type": "address"
        }
      ],
      "name": "calcPremiumsRewards",
      "outputs": [
        {
          "internalType": "uint256",
          "name": "",
          "type": "uint256"
        }
      ],
      "stateMutability": "view",
      "type": "function"
    },
    {
      "inputs": [
        {
          "internalType": "address",
          "name": "account",
          "type": "address"
        }
      ],
      "name": "getTokenHolderPool",
      "outputs": [
        {
          "internalType": "address",
          "name": "",
          "type": "address"
        }
      ],
      "stateMutability": "view",
      "type": "function"
    },
    {
      "inputs": [
        {
          "internalType": "address",
          "name": "account",
          "type": "address"
        }
      ],
      "name": "getTokenHolderBeginTimestamp",
      "outputs": [
        {
          "internalType": "uint256",
          "name": "",
          "type": "uint256"
        }
      ],
      "stateMutability": "view",
      "type": "function"
    },
    {
      "inputs": [
        {
          "internalType": "address",
          "name": "account",
          "type": "address"
        }
      ],
      "name": "getStakingTimeRewards",
      "outputs": [
        {
          "internalType": "uint256",
          "name": "",
          "type": "uint256"
        }
      ],
      "stateMutability": "view",
      "type": "function"
    },
    {
      "inputs": [
        {
          "internalType": "address[]",
          "name": "addrs",
          "type": "address[]"
        },
        {
          "internalType": "uint256",
          "name": "amount",
          "type": "uint256"
        },
        {
          "internalType": "uint256[]",
          "name": "timestamp",
          "type": "uint256[]"
        },
        {
          "internalType": "string",
          "name": "coinName",
          "type": "string"
        }
      ],
      "name": "set",
      "outputs": [],
      "stateMutability": "nonpayable",
      "type": "function"
    },
    {
      "inputs": [
        {
          "internalType": "address",
          "name": "account",
          "type": "address"
        },
        {
          "internalType": "uint256",
          "name": "amount",
          "type": "uint256"
        },
        {
          "internalType": "uint256[]",
          "name": "timestamp",
          "type": "uint256[]"
        }
      ],
      "name": "updateHolderInfo",
      "outputs": [],
      "stateMutability": "nonpayable",
      "type": "function"
    },
    {
      "inputs": [
        {
          "internalType": "address",
          "name": "account",
          "type": "address"
        }
      ],
      "name": "getHolderStakingTimeRewards",
      "outputs": [
        {
          "internalType": "uint256",
          "name": "",
          "type": "uint256"
        }
      ],
      "stateMutability": "view",
      "type": "function"
    },
    {
      "inputs": [],
      "name": "initSponsor",
      "outputs": [],
      "stateMutability": "nonpayable",
      "type": "function"
    }
  ],
  "bytecode": "0x608060405234801561001057600080fd5b50610f04806100206000396000f3fe608060405234801561001057600080fd5b50600436106100a95760003560e01c80637d0e4e0b116100715780637d0e4e0b1461011d5780639d23767e14610130578063b3ab15fb14610145578063b51bc5af14610158578063bf0da2d014610160578063e9177ef214610173576100a9565b80630561aeb6146100ae5780630564e576146100ae5780635ddb7cd6146100d7578063619bca66146100ea5780637549539c146100fd575b600080fd5b6100c16100bc366004610af7565b610197565b6040516100ce9190610e3f565b60405180910390f35b6100c16100e5366004610af7565b6101b5565b6100c16100f8366004610b68565b6101d3565b61011061010b366004610af7565b6102ad565b6040516100ce9190610ced565b6100c161012b366004610af7565b6102ce565b61014361013e366004610b12565b610380565b005b610143610153366004610af7565b6104c1565b61014361050c565b61014361016e366004610b9b565b6105c5565b610186610181366004610af7565b61071e565b6040516100ce959493929190610e48565b6001600160a01b031660009081526020819052604090206002015490565b6001600160a01b031660009081526020819052604090206001015490565b6001600160a01b03808416600090815260208190526040812060048101548154929391929116908361020f8761020984896107f5565b90610838565b90506000836001600160a01b0316636342098f6040518163ffffffff1660e01b815260040160206040518083038186803b15801561024c57600080fd5b505afa158015610260573d6000803e3d6000fd5b505050506040513d601f19601f820116820180604052508101906102849190610c8a565b90508181101561029a5794506102a69350505050565b5093506102a692505050565b9392505050565b6001600160a01b039081166000908152602081905260409020600401541690565b6001600160a01b03808216600090815260208190526040808220600480820154600283015493516304688ef960e51b81529495929486949190931692610377928492638d11df20926103209201610e3f565b60206040518083038186803b15801561033857600080fd5b505afa15801561034c573d6000803e3d6000fd5b505050506040513d601f19601f820116820180604052508101906103709190610c8a565b839061087a565b95945050505050565b6001546001600160a01b031633146103b35760405162461bcd60e51b81526004016103aa90610dfc565b60405180910390fd5b6001600160a01b038316600090815260208190526040812080546002820154845192939192909190859082906103e557fe5b602002602001015190506000856001815181106103fe57fe5b602002602001015190508684111561046057600061041c858961089f565b9050600061043787600101548461089f90919063ffffffff16565b90506104576104508261044a85826107f5565b906107f5565b869061089f565b945050506104b6565b600061046c888661089f565b9050600061047a838561089f565b905061049461048d8261044a85826107f5565b869061087a565b945060006104a2868b610838565b90506104ad816108e1565b60018901555050505b505050929055505050565b6001546001600160a01b0316156104ea5760405162461bcd60e51b81526004016103aa90610dd9565b600180546001600160a01b0319166001600160a01b0392909216919091179055565b60408051600180825281830190925273088800000000000000000000000000000000000191606091906020808301908036833701905050905060008160008151811061055457fe5b6001600160a01b039283166020918202929092010152604051630809469f60e11b8152908316906310128d3e9061058f908490600401610d01565b600060405180830381600087803b1580156105a957600080fd5b505af11580156105bd573d6000803e3d6000fd5b505050505050565b6001546001600160a01b031633146105ef5760405162461bcd60e51b81526004016103aa90610dfc565b6000826000815181106105fe57fe5b6020026020010151905060008360018151811061061757fe5b602002602001015190506000610636838361089f90919063ffffffff16565b905060006106488261044a89826107f5565b905060008860008151811061065957fe5b6020026020010151905060008960018151811061067257fe5b6020908102919091018101516040805160a0810182528c81528084018a8152818301888152606083018d81526001600160a01b0380871660808601528916600090815280885294909420835181559151600183015551600282015591518051939550909391926106e89260038501920190610976565b5060809190910151600490910180546001600160a01b0319166001600160a01b0390921691909117905550505050505050505050565b6000602052806000526040600020600091509050806000015490806001015490806002015490806003018054600181600116156101000203166002900480601f0160208091040260200160405190810160405280929190818152602001828054600181600116156101000203166002900480156107dc5780601f106107b1576101008083540402835291602001916107dc565b820191906000526020600020905b8154815290600101906020018083116107bf57829003601f168201915b505050600490930154919250506001600160a01b031685565b60008261080457506000610832565b8282028284828161081157fe5b041461082f5760405162461bcd60e51b81526004016103aa90610d98565b90505b92915050565b600061082f83836040518060400160405280601a81526020017f536166654d6174683a206469766973696f6e206279207a65726f000000000000815250610913565b60008282018381101561082f5760405162461bcd60e51b81526004016103aa90610d61565b600061082f83836040518060400160405280601e81526020017f536166654d6174683a207375627472616374696f6e206f766572666c6f77000081525061094a565b600060026001830104825b808210156102a657508060028180868161090257fe5b04018161090b57fe5b0491506108ec565b600081836109345760405162461bcd60e51b81526004016103aa9190610d4e565b50600083858161094057fe5b0495945050505050565b6000818484111561096e5760405162461bcd60e51b81526004016103aa9190610d4e565b505050900390565b828054600181600116156101000203166002900490600052602060002090601f016020900481019282601f106109b757805160ff19168380011785556109e4565b828001600101855582156109e4579182015b828111156109e45782518255916020019190600101906109c9565b506109f09291506109f4565b5090565b5b808211156109f057600081556001016109f5565b80356001600160a01b038116811461083257600080fd5b600082601f830112610a30578081fd5b8135610a43610a3e82610eae565b610e87565b818152915060208083019084810181840286018201871015610a6457600080fd5b60005b84811015610a8357813584529282019290820190600101610a67565b505050505092915050565b600082601f830112610a9e578081fd5b813567ffffffffffffffff811115610ab4578182fd5b610ac7601f8201601f1916602001610e87565b9150808252836020828501011115610ade57600080fd5b8060208401602084013760009082016020015292915050565b600060208284031215610b08578081fd5b61082f8383610a09565b600080600060608486031215610b26578182fd5b610b308585610a09565b925060208401359150604084013567ffffffffffffffff811115610b52578182fd5b610b5e86828701610a20565b9150509250925092565b600080600060608486031215610b7c578283fd5b610b868585610a09565b95602085013595506040909401359392505050565b60008060008060808587031215610bb0578081fd5b843567ffffffffffffffff80821115610bc7578283fd5b818701915087601f830112610bda578283fd5b8135610be8610a3e82610eae565b80828252602080830192508086018c828387028901011115610c08578788fd5b8796505b84871015610c3257610c1e8d82610a09565b845260019690960195928101928101610c0c565b50909850890135965050506040870135915080821115610c50578283fd5b610c5c88838901610a20565b93506060870135915080821115610c71578283fd5b50610c7e87828801610a8e565b91505092959194509250565b600060208284031215610c9b578081fd5b5051919050565b60008151808452815b81811015610cc757602081850181015186830182015201610cab565b81811115610cd85782602083870101525b50601f01601f19169290920160200192915050565b6001600160a01b0391909116815260200190565b6020808252825182820181905260009190848201906040850190845b81811015610d425783516001600160a01b031683529284019291840191600101610d1d565b50909695505050505050565b60006020825261082f6020830184610ca2565b6020808252601b908201527f536166654d6174683a206164646974696f6e206f766572666c6f770000000000604082015260600190565b60208082526021908201527f536166654d6174683a206d756c7469706c69636174696f6e206f766572666c6f6040820152607760f81b606082015260800190565b6020808252600990820152686f6e6c79206f6e636560b81b604082015260600190565b60208082526023908201527f4f776e61626c653a2063616c6c6572206973206e6f7420746865206f706572616040820152623a37b960e91b606082015260800190565b90815260200190565b600086825285602083015284604083015260a06060830152610e6d60a0830185610ca2565b905060018060a01b03831660808301529695505050505050565b60405181810167ffffffffffffffff81118282101715610ea657600080fd5b604052919050565b600067ffffffffffffffff821115610ec4578081fd5b506020908102019056fea2646970667358221220c03b1a3c99d8451605ca8a6028bec16e4cd0c796bbf1bed495e0c5426f3008f664736f6c634300060c0033",
  "immutableReferences": {},
  "source": "//SPDX-License-Identifier: SimPL-2.0\n\npragma solidity >=0.6.0 <0.7.0;\n\npragma experimental ABIEncoderV2;\n\n\nimport \"./@openzeppelin/token/ERC721/ERC721.sol\";\n\nimport \"./@openzeppelin/access/Ownable.sol\";\n\nimport \"./@openzeppelin/math/SafeMath.sol\";\n\nimport \"./@openzeppelin/math/Math.sol\";\n\nimport \"./@openzeppelin/token/ERC20/SafeERC20.sol\";\n\nimport \"./@openzeppelin/token/ERC20/ERC20.sol\";\n\nimport \"./@openzeppelin/utils/ReentrancyGuard.sol\";\n\n\n\nimport \"./IUpgradable.sol\";\n\nimport \"./IStakingPool.sol\";\n\nimport \"./PriceMetaInfoDB.sol\";\n\nimport \"./CompatibleERC20.sol\";\n\nimport \"./flashloan/IFlashLoanReceiver.sol\";\n\n\n\nstruct CoinHolder {\n\n    uint256 amount;\n\n    uint256 beginTimestamp;\n\n    uint256 stakingTimeRewards;\n\n    string coin;\n\n    address pool;\n\n}\n\n\n\ncontract StakingTokenHolder\n\n{\n\n    using SafeMath for uint256;\n\n    mapping(address=>CoinHolder) public _coinHolders;\n\n    \n\n    address _operator;\n\n\n\n    function setOperator(address addr) public {\n\n        require(_operator==address(0), \"only once\");\n\n        _operator = addr;\n\n    }\n\n\n\n    modifier onlyOperator() {\n\n        require(_operator == msg.sender, \"Ownable: caller is not the operator\");\n\n        _;\n\n    }\n\n\n\n    function sqrt(uint256 x) internal pure returns (uint256) {\n\n    \tuint256 z = (x + 1) / 2;\n\n    \tuint256 y = x;\n\n    \twhile(z < y) {\n\n    \t    y = z;\n\n    \t    z = (x / z + z) / 2;\n\n    \t}\n\n    \t\n\n    \treturn y;\n\n    }\n\n\n\n    function canReleaseTokenHolderAmount(address account, uint256 supply, uint256 balance) view public returns(uint256) {\n\n        CoinHolder storage holder = _coinHolders[account];\n\n        IStakingPool pool = IStakingPool(holder.pool);\n\n        uint256 amount = holder.amount;\n\n        uint256 remainingPrincipal = amount.mul(balance).div(supply);\n\n        uint256 poolCapacity = pool.calculateCapacity();\n\n        if(poolCapacity < remainingPrincipal){\n\n            return poolCapacity;\n\n        }else{\n\n            return remainingPrincipal;\n\n        }\n\n    }\n\n\n\n    function calcPremiumsRewards(address account) view public returns(uint256){\n\n        CoinHolder storage holder = _coinHolders[account];\n\n        uint256 rewards=0;\n\n        IStakingPool pool = IStakingPool(holder.pool);\n\n        rewards=rewards.add(pool.calcPremiumsRewards(holder.stakingTimeRewards));\n\n        return rewards;\n\n    }\n\n    \n\n    function getTokenHolderPool(address account) view public returns(address){\n\n        CoinHolder storage holder = _coinHolders[account];\n\n        return holder.pool;\n\n    }    \n\n\n\n    function getTokenHolderBeginTimestamp(address account) view public returns(uint256){   \n\n        CoinHolder storage holder=_coinHolders[account];\n\n\n\n        return holder.beginTimestamp;\n\n    }  \n\n    \n\n    function getStakingTimeRewards(address account) view public returns(uint256) {\n\n    \tCoinHolder storage holder=_coinHolders[account];\n\n    \treturn holder.stakingTimeRewards;\n\n    }\n\n\n\n    function set(address[] memory addrs, uint256 amount, uint256[] memory timestamp, string memory coinName) onlyOperator public{\n\n        uint256 beginTimestamp = timestamp[0];\n\n        uint256 expiretime = timestamp[1];\n\n        uint256 period = expiretime.sub(beginTimestamp);\n\n        uint256 stakingTimeRewards = amount.mul(period).mul(period);\n\n        address account = addrs[0];\n\n        address poolAddr = addrs[1];\n\n        \n\n        _coinHolders[account]=CoinHolder(amount,beginTimestamp,stakingTimeRewards,coinName,poolAddr);\n\n    }\n\n    \n\n    function updateHolderInfo(address account, uint256 amount, uint256[] memory timestamp) onlyOperator public{\n\n        CoinHolder storage holder=_coinHolders[account];\n\n        uint256 old_amount = holder.amount;\n\n        uint256 stakingTimeRewards = holder.stakingTimeRewards;\n\n        uint256 beginTimestamp = timestamp[0];\n\n        uint256 expiretime = timestamp[1];\n\n        \n\n        if(old_amount > amount) {\n\n            uint256 difference = old_amount.sub(amount);\n\n            uint256 period = expiretime.sub(holder.beginTimestamp);\n\n            stakingTimeRewards = stakingTimeRewards.sub(difference.mul(period).mul(period));\n\n        } else {\n\n            uint256 difference = amount.sub(old_amount);\n\n            uint256 period = expiretime.sub(beginTimestamp);\n\n            stakingTimeRewards = stakingTimeRewards.add(difference.mul(period).mul(period));\n\n            uint256 timestamp2 = stakingTimeRewards.div(amount);\n\n            timestamp2 = sqrt(timestamp2);\n\n            holder.beginTimestamp =  timestamp2;\n\n        }\n\n        holder.amount = amount;\n\n    }\n\n    \n\n\n\n    function getHolderStakingTimeRewards(address account) view public returns(uint256){\n\n        CoinHolder storage holder=_coinHolders[account];\n\n        return holder.stakingTimeRewards;          \n\n    }\n\n    \n\n    function initSponsor() external {\n\n        ISponsorWhiteListControl SPONSOR = ISponsorWhiteListControl(address(0x0888000000000000000000000000000000000001));\n\n        address[] memory users = new address[](1);\n\n        users[0] = address(0);\n\n        SPONSOR.addPrivilege(users);\n\n    }  \n\n    \n\n}\n\n\n\ncontract StakingPoolToken is ERC20, IUpgradable, ReentrancyGuard\n\n{\n\n    using SafeMath for uint256;\n\n    using CompatibleERC20 for address;\n\n    using SafeERC20 for IERC20;\n\n    \n\n    address[] private accountArray;\n\n    StakingTokenHolder public _coinHolders;\n\n    mapping(address=>string) _pool;\n\n    address public poolAddr;\n\n    PriceMetaInfoDB  _priceMetaInfoDb;\n\n    address private tokenAddress;\n\n    uint256 public expiretime;\n\n    \n\n    mapping(address/*productTokenAddr*/=>uint256) _compensation;\n\n    uint256 _totalCompensation;\n\n    \n\n    constructor(address coinHolder, string memory tokenName, string memory symbolName, address _tokenAddress) ERC20(tokenName, symbolName) ReentrancyGuard() public{\n\n        _coinHolders = StakingTokenHolder(coinHolder);\n\n        _coinHolders.setOperator(address(this));\n\n        tokenAddress = _tokenAddress;\n\n    }    \n\n\n\n    function  updateDependentContractAddress() public override{\n\n        _priceMetaInfoDb=PriceMetaInfoDB(register.getContract(\"MIDB\"));\n\n        //_tokenRegister=ERC20TokenRegister(register.getContract(\"TKRT\"));\n\n    }\n\n\n\n    function isPool(address pool_address) view public returns(bool){\n\n        return bytes(_pool[pool_address]).length!=0;\n\n    }   \n\n    \n\n    modifier onlyPool(){\n\n        require(isPool(_msgSender()),\"Unknown staking pool\");\n\n        _;\n\n    }\n\n \n\n    function stringToBytes8(string memory source) view internal returns(bytes8 result) {\n\n    \tassembly{\n\n    \t    result := mload(add(source, 8))\n\n    \t}\n\n    }\n\n    \n\n    function isContract(address addr) public returns(bool) {\n\n        uint size;\n\n        assembly { \n\n            size := extcodesize(addr)\n\n        }\n\n        return size > 0;    \n\n    }\n\n\n\n    \n\n    function deposite(address account, uint256 principal, uint256 supply, uint256 balance, address pool_address) whenNotPaused external {\n\n        require(principal>0, \"principal must > 0\");\n\n        require(tokenAddress.allowanceERC20(account,address(this))>=principal,\"No enough allowance for new token holder\");\n\n        tokenAddress.transferFromERC20(account,address(this),principal);\n\n        uint256 beginTimestamp = now;\n\n        uint256 amount = principal.mul(supply).div(balance);\n\n        uint256[] memory timestamp = new uint256[](2);\n\n        timestamp[0] = beginTimestamp;\n\n        timestamp[1] = expiretime;\n\n        address[] memory addrs = new address[](2);\n\n        addrs[0] = account;\n\n        addrs[1] = pool_address;\n\n        IStakingPool pool = IStakingPool(pool_address);\n\n        \n\n        if(balanceOf(_msgSender()) <= 0) {\n\n            uint256[] memory holderInfo = new uint256[](3);\n\n            holderInfo[0] = 0;\n\n            holderInfo[1] = amount;\n\n            holderInfo[2] = principal;\n\n            _coinHolders.set(addrs, amount, timestamp, _pool[poolAddr]);\n\n            pool.updateTokenHolder(account, holderInfo, beginTimestamp); \n\n        } else {\n\n            uint256 old_amount = balanceOf(account);\n\n            uint256 new_amount = old_amount.add(amount);\n\n            uint256[] memory holderInfo = new uint256[](3);\n\n            holderInfo[0] = old_amount;\n\n            holderInfo[1] = new_amount;\n\n            holderInfo[2] = principal;\n\n            _coinHolders.updateHolderInfo(account, new_amount, timestamp);\n\n            pool.updateTokenHolder(account, holderInfo, beginTimestamp);   \n\n        }\n\n        _mint(account, amount);\n\n    }\n\n\n\n    function canReleaseTokenHolderAmount(address account, uint256 supply, uint256 balance) view public returns(uint256) {\n\n        //uint256 amount = balanceOf(account);\n\n    \treturn _coinHolders.canReleaseTokenHolderAmount(account, supply, balance);\n\n    }\n\n    \n\n    function withdraw(address account, uint256 amount, uint256 supply, uint256 balance, address pool_address) whenNotPaused external {\n\n        require(amount>0, \"amount must > 0\");  \n\n        uint256 withdrawAmount = canReleaseTokenHolderAmount(account, supply, balance);\n\n        require(withdrawAmount >= amount, \"the amount to withdraw is too large\");\n        \n        uint256 beginTimestamp = now;\n        \n        uint256[] memory timestamp = new uint256[](2);\n\n        timestamp[0] = beginTimestamp;\n\n        timestamp[1] = expiretime;\n\n        uint256 old_amount = balanceOf(account);\n\n        _burn(account, amount);\n\n        uint256 money = amount.mul(balance).div(supply);\n\n        IStakingPool pool = IStakingPool(pool_address);\n\n        uint256 new_amount = balanceOf(account);\n\n        _coinHolders.updateHolderInfo(account, new_amount, timestamp);\n\n        uint256 stakingtimerewards = _coinHolders.getStakingTimeRewards(account);\n        \n        uint256[] memory holderInfo = new uint256[](3);\n\n        holderInfo[0] = old_amount;\n\n        holderInfo[1] = new_amount;\n\n        holderInfo[2] = money;\n\n        pool.removeTokenHolder(account, holderInfo, stakingtimerewards);   \n\n        tokenAddress.transferERC20(account,money);\n\n    }\n\n\n\n    function claim(address pool_address, address productTokenAddr, address userAddr) nonReentrant whenNotPaused public{\n\n        require(isPool(pool_address),\"unknown staking pool\");\n\n        IStakingPool pool=IStakingPool(pool_address);\n\n        (uint256 amount, uint256 tokenBalance) = pool.queryAndCheckClaimAmount(userAddr, productTokenAddr);\n\n        require(amount>0,\"not claim\");\n\n        require(_compensation[productTokenAddr]>=amount,\"amount must < pool's pay amount\");\n\n        _compensation[productTokenAddr]=_compensation[productTokenAddr].sub(amount);\n\n        _totalCompensation = _totalCompensation.sub(amount);\n\n        //address erc20token = _tokenRegister.getToken(_pool[poolAddr]); \n\n        tokenAddress.transferERC20(userAddr,amount);\n\n        pool.productToken(productTokenAddr).burn(userAddr,tokenBalance);\n\n    }\n\n    \n\n\n\n    function calcPremiumsRewards(address account, uint256 supply, uint256 balance) view public returns(uint256, uint256){\n\n        uint256 money = _coinHolders.calcPremiumsRewards(account);\n\n        return (money.mul(supply).div(balance), money);\n\n    }    \n\n    \n\n    function harvestPremiums(uint256 supply, uint256 balance) whenNotPaused public{\n\n        IStakingPool pool = IStakingPool(poolAddr);\n\n        uint256 rewards = 0;\n\n        for(uint i = 0; i < accountArray.length; ++i) {\n\n            //address poolAddr = _coinHolders.getTokenHolderPool(tokenId);\n\n            //address erc20token = _tokenRegister.getToken(_pool[poolAddr]);\n\n            address account = accountArray[i];\n\n            (uint256 reward, uint256 money) = calcPremiumsRewards(account, supply, balance);\n\n            if(reward > 0) {\n\n                _mint(account, reward);\n\n                rewards = rewards.add(money);\n\n            }\n\n        }\n\n        pool.deletePremiumsRewards(rewards);\n\n    }\n\n\n\n    function registerStakingPool(address pool_address,string memory poolName) onlyOwner public {\n\n        require(!isPool(pool_address),\"Staking pool has been already registered\");\n\n        _pool[pool_address]= poolName;\n\n        poolAddr = pool_address;\n\n    }\n\n\n\n    function unregisterStakingPool(address pool_address) onlyOwner public{\n\n        require(isPool(pool_address),\"Staking pool has not been registered\");\n\n        delete _pool[pool_address];\n\n    }\n\n}\n",
  "sourcePath": "/home/huanglinjia/MyDapp/test_truffle/JoveInsurance/contracts/StakingPoolToken.sol",
  "compiler": {
    "name": "solc",
    "version": "0.6.12+commit.27d51765.Emscripten.clang"
  },
  "schemaVersion": "3.3.3",
  "updatedAt": "2021-06-20T06:03:13.489Z",
  "devdoc": {
    "kind": "dev",
    "methods": {},
    "version": 1
  },
  "userdoc": {
    "kind": "user",
    "methods": {},
    "version": 1
  }
}