{
  "contractName": "StakingPoolToken",
  "abi": [
    {
      "inputs": [
        {
          "internalType": "address",
          "name": "coinHolder",
          "type": "address"
        },
        {
          "internalType": "string",
          "name": "tokenName",
          "type": "string"
        },
        {
          "internalType": "string",
          "name": "symbolName",
          "type": "string"
        },
        {
          "internalType": "address",
          "name": "_tokenAddress",
          "type": "address"
        }
      ],
      "stateMutability": "nonpayable",
      "type": "constructor"
    },
    {
      "anonymous": false,
      "inputs": [
        {
          "indexed": true,
          "internalType": "address",
          "name": "owner",
          "type": "address"
        },
        {
          "indexed": true,
          "internalType": "address",
          "name": "spender",
          "type": "address"
        },
        {
          "indexed": false,
          "internalType": "uint256",
          "name": "value",
          "type": "uint256"
        }
      ],
      "name": "Approval",
      "type": "event"
    },
    {
      "anonymous": false,
      "inputs": [
        {
          "indexed": true,
          "internalType": "address",
          "name": "previousOwner",
          "type": "address"
        },
        {
          "indexed": true,
          "internalType": "address",
          "name": "newOwner",
          "type": "address"
        }
      ],
      "name": "OwnershipTransferred",
      "type": "event"
    },
    {
      "anonymous": false,
      "inputs": [
        {
          "indexed": false,
          "internalType": "address",
          "name": "account",
          "type": "address"
        }
      ],
      "name": "Paused",
      "type": "event"
    },
    {
      "anonymous": false,
      "inputs": [
        {
          "indexed": true,
          "internalType": "address",
          "name": "from",
          "type": "address"
        },
        {
          "indexed": true,
          "internalType": "address",
          "name": "to",
          "type": "address"
        },
        {
          "indexed": false,
          "internalType": "uint256",
          "name": "value",
          "type": "uint256"
        }
      ],
      "name": "Transfer",
      "type": "event"
    },
    {
      "anonymous": false,
      "inputs": [
        {
          "indexed": false,
          "internalType": "address",
          "name": "account",
          "type": "address"
        }
      ],
      "name": "Unpaused",
      "type": "event"
    },
    {
      "inputs": [],
      "name": "_coinHolders",
      "outputs": [
        {
          "internalType": "contract StakingTokenHolder",
          "name": "",
          "type": "address"
        }
      ],
      "stateMutability": "view",
      "type": "function"
    },
    {
      "inputs": [],
      "name": "admin",
      "outputs": [
        {
          "internalType": "address",
          "name": "",
          "type": "address"
        }
      ],
      "stateMutability": "view",
      "type": "function"
    },
    {
      "inputs": [
        {
          "internalType": "address",
          "name": "owner",
          "type": "address"
        },
        {
          "internalType": "address",
          "name": "spender",
          "type": "address"
        }
      ],
      "name": "allowance",
      "outputs": [
        {
          "internalType": "uint256",
          "name": "",
          "type": "uint256"
        }
      ],
      "stateMutability": "view",
      "type": "function"
    },
    {
      "inputs": [
        {
          "internalType": "address",
          "name": "spender",
          "type": "address"
        },
        {
          "internalType": "uint256",
          "name": "amount",
          "type": "uint256"
        }
      ],
      "name": "approve",
      "outputs": [
        {
          "internalType": "bool",
          "name": "",
          "type": "bool"
        }
      ],
      "stateMutability": "nonpayable",
      "type": "function"
    },
    {
      "inputs": [
        {
          "internalType": "address",
          "name": "account",
          "type": "address"
        }
      ],
      "name": "balanceOf",
      "outputs": [
        {
          "internalType": "uint256",
          "name": "",
          "type": "uint256"
        }
      ],
      "stateMutability": "view",
      "type": "function"
    },
    {
      "inputs": [],
      "name": "decimals",
      "outputs": [
        {
          "internalType": "uint8",
          "name": "",
          "type": "uint8"
        }
      ],
      "stateMutability": "view",
      "type": "function"
    },
    {
      "inputs": [
        {
          "internalType": "address",
          "name": "spender",
          "type": "address"
        },
        {
          "internalType": "uint256",
          "name": "subtractedValue",
          "type": "uint256"
        }
      ],
      "name": "decreaseAllowance",
      "outputs": [
        {
          "internalType": "bool",
          "name": "",
          "type": "bool"
        }
      ],
      "stateMutability": "nonpayable",
      "type": "function"
    },
    {
      "inputs": [],
      "name": "expiretime",
      "outputs": [
        {
          "internalType": "uint256",
          "name": "",
          "type": "uint256"
        }
      ],
      "stateMutability": "view",
      "type": "function"
    },
    {
      "inputs": [
        {
          "internalType": "address",
          "name": "spender",
          "type": "address"
        },
        {
          "internalType": "uint256",
          "name": "addedValue",
          "type": "uint256"
        }
      ],
      "name": "increaseAllowance",
      "outputs": [
        {
          "internalType": "bool",
          "name": "",
          "type": "bool"
        }
      ],
      "stateMutability": "nonpayable",
      "type": "function"
    },
    {
      "inputs": [],
      "name": "initSponsor",
      "outputs": [],
      "stateMutability": "nonpayable",
      "type": "function"
    },
    {
      "inputs": [
        {
          "internalType": "address",
          "name": "addr",
          "type": "address"
        }
      ],
      "name": "isOwner",
      "outputs": [
        {
          "internalType": "bool",
          "name": "",
          "type": "bool"
        }
      ],
      "stateMutability": "view",
      "type": "function"
    },
    {
      "inputs": [],
      "name": "name",
      "outputs": [
        {
          "internalType": "string",
          "name": "",
          "type": "string"
        }
      ],
      "stateMutability": "view",
      "type": "function"
    },
    {
      "inputs": [],
      "name": "owner",
      "outputs": [
        {
          "internalType": "address",
          "name": "",
          "type": "address"
        }
      ],
      "stateMutability": "view",
      "type": "function"
    },
    {
      "inputs": [],
      "name": "pause",
      "outputs": [],
      "stateMutability": "nonpayable",
      "type": "function"
    },
    {
      "inputs": [],
      "name": "paused",
      "outputs": [
        {
          "internalType": "bool",
          "name": "",
          "type": "bool"
        }
      ],
      "stateMutability": "view",
      "type": "function"
    },
    {
      "inputs": [],
      "name": "poolAddr",
      "outputs": [
        {
          "internalType": "address",
          "name": "",
          "type": "address"
        }
      ],
      "stateMutability": "view",
      "type": "function"
    },
    {
      "inputs": [],
      "name": "register",
      "outputs": [
        {
          "internalType": "contract JoveRegister",
          "name": "",
          "type": "address"
        }
      ],
      "stateMutability": "view",
      "type": "function"
    },
    {
      "inputs": [],
      "name": "registerAddress",
      "outputs": [
        {
          "internalType": "address",
          "name": "",
          "type": "address"
        }
      ],
      "stateMutability": "view",
      "type": "function"
    },
    {
      "inputs": [],
      "name": "renounceOwnership",
      "outputs": [],
      "stateMutability": "nonpayable",
      "type": "function"
    },
    {
      "inputs": [],
      "name": "symbol",
      "outputs": [
        {
          "internalType": "string",
          "name": "",
          "type": "string"
        }
      ],
      "stateMutability": "view",
      "type": "function"
    },
    {
      "inputs": [],
      "name": "totalSupply",
      "outputs": [
        {
          "internalType": "uint256",
          "name": "",
          "type": "uint256"
        }
      ],
      "stateMutability": "view",
      "type": "function"
    },
    {
      "inputs": [
        {
          "internalType": "address",
          "name": "recipient",
          "type": "address"
        },
        {
          "internalType": "uint256",
          "name": "amount",
          "type": "uint256"
        }
      ],
      "name": "transfer",
      "outputs": [
        {
          "internalType": "bool",
          "name": "",
          "type": "bool"
        }
      ],
      "stateMutability": "nonpayable",
      "type": "function"
    },
    {
      "inputs": [
        {
          "internalType": "address",
          "name": "sender",
          "type": "address"
        },
        {
          "internalType": "address",
          "name": "recipient",
          "type": "address"
        },
        {
          "internalType": "uint256",
          "name": "amount",
          "type": "uint256"
        }
      ],
      "name": "transferFrom",
      "outputs": [
        {
          "internalType": "bool",
          "name": "",
          "type": "bool"
        }
      ],
      "stateMutability": "nonpayable",
      "type": "function"
    },
    {
      "inputs": [
        {
          "internalType": "address",
          "name": "newOwner",
          "type": "address"
        }
      ],
      "name": "transferOwnership",
      "outputs": [],
      "stateMutability": "nonpayable",
      "type": "function"
    },
    {
      "inputs": [],
      "name": "unpause",
      "outputs": [],
      "stateMutability": "nonpayable",
      "type": "function"
    },
    {
      "inputs": [
        {
          "internalType": "address",
          "name": "registerAddr",
          "type": "address"
        }
      ],
      "name": "updateRegisterAddress",
      "outputs": [],
      "stateMutability": "nonpayable",
      "type": "function"
    },
    {
      "inputs": [],
      "name": "updateDependentContractAddress",
      "outputs": [],
      "stateMutability": "nonpayable",
      "type": "function"
    },
    {
      "inputs": [
        {
          "internalType": "address",
          "name": "pool_address",
          "type": "address"
        }
      ],
      "name": "isPool",
      "outputs": [
        {
          "internalType": "bool",
          "name": "",
          "type": "bool"
        }
      ],
      "stateMutability": "view",
      "type": "function"
    },
    {
      "inputs": [
        {
          "internalType": "address",
          "name": "addr",
          "type": "address"
        }
      ],
      "name": "isContract",
      "outputs": [
        {
          "internalType": "bool",
          "name": "",
          "type": "bool"
        }
      ],
      "stateMutability": "nonpayable",
      "type": "function"
    },
    {
      "inputs": [
        {
          "internalType": "address",
          "name": "account",
          "type": "address"
        },
        {
          "internalType": "uint256",
          "name": "principal",
          "type": "uint256"
        },
        {
          "internalType": "uint256",
          "name": "supply",
          "type": "uint256"
        },
        {
          "internalType": "uint256",
          "name": "balance",
          "type": "uint256"
        },
        {
          "internalType": "address",
          "name": "pool_address",
          "type": "address"
        }
      ],
      "name": "deposite",
      "outputs": [],
      "stateMutability": "nonpayable",
      "type": "function"
    },
    {
      "inputs": [
        {
          "internalType": "address",
          "name": "account",
          "type": "address"
        },
        {
          "internalType": "uint256",
          "name": "supply",
          "type": "uint256"
        },
        {
          "internalType": "uint256",
          "name": "balance",
          "type": "uint256"
        }
      ],
      "name": "canReleaseTokenHolderAmount",
      "outputs": [
        {
          "internalType": "uint256",
          "name": "",
          "type": "uint256"
        }
      ],
      "stateMutability": "view",
      "type": "function"
    },
    {
      "inputs": [
        {
          "internalType": "address",
          "name": "account",
          "type": "address"
        },
        {
          "internalType": "uint256",
          "name": "amount",
          "type": "uint256"
        },
        {
          "internalType": "uint256",
          "name": "supply",
          "type": "uint256"
        },
        {
          "internalType": "uint256",
          "name": "balance",
          "type": "uint256"
        },
        {
          "internalType": "address",
          "name": "pool_address",
          "type": "address"
        }
      ],
      "name": "withdraw",
      "outputs": [],
      "stateMutability": "nonpayable",
      "type": "function"
    },
    {
      "inputs": [
        {
          "internalType": "address",
          "name": "pool_address",
          "type": "address"
        },
        {
          "internalType": "address",
          "name": "productTokenAddr",
          "type": "address"
        },
        {
          "internalType": "address",
          "name": "userAddr",
          "type": "address"
        }
      ],
      "name": "claim",
      "outputs": [],
      "stateMutability": "nonpayable",
      "type": "function"
    },
    {
      "inputs": [
        {
          "internalType": "address",
          "name": "account",
          "type": "address"
        },
        {
          "internalType": "uint256",
          "name": "supply",
          "type": "uint256"
        },
        {
          "internalType": "uint256",
          "name": "balance",
          "type": "uint256"
        }
      ],
      "name": "calcPremiumsRewards",
      "outputs": [
        {
          "internalType": "uint256",
          "name": "",
          "type": "uint256"
        },
        {
          "internalType": "uint256",
          "name": "",
          "type": "uint256"
        }
      ],
      "stateMutability": "view",
      "type": "function"
    },
    {
      "inputs": [
        {
          "internalType": "uint256",
          "name": "supply",
          "type": "uint256"
        },
        {
          "internalType": "uint256",
          "name": "balance",
          "type": "uint256"
        }
      ],
      "name": "harvestPremiums",
      "outputs": [],
      "stateMutability": "nonpayable",
      "type": "function"
    },
    {
      "inputs": [
        {
          "internalType": "address",
          "name": "pool_address",
          "type": "address"
        },
        {
          "internalType": "string",
          "name": "poolName",
          "type": "string"
        }
      ],
      "name": "registerStakingPool",
      "outputs": [],
      "stateMutability": "nonpayable",
      "type": "function"
    },
    {
      "inputs": [
        {
          "internalType": "address",
          "name": "pool_address",
          "type": "address"
        }
      ],
      "name": "unregisterStakingPool",
      "outputs": [],
      "stateMutability": "nonpayable",
      "type": "function"
    }
  ],
  "bytecode": "0x60806040523480156200001157600080fd5b50604051620037e3380380620037e38339810160408190526200003491620002f2565b8251839083906200004d90600390602085019062000191565b5080516200006390600490602084019062000191565b50506005805460ff191660121790555060006200007f6200018d565b60058054610100600160a81b0319166101006001600160a01b03841690810291909117909155604051919250906000907f8be0079c531659141344cd1fd0a4f28419497f9722a3daafe3b4186f6b6457e0908290a3506007805460ff60a01b191690556001600a55600c80546001600160a01b0319166001600160a01b03868116919091179182905560405163b3ab15fb60e01b815291169063b3ab15fb906200012e90309060040162000381565b600060405180830381600087803b1580156200014957600080fd5b505af11580156200015e573d6000803e3d6000fd5b5050601080546001600160a01b0319166001600160a01b03949094169390931790925550620003959350505050565b3390565b828054600181600116156101000203166002900490600052602060002090601f016020900481019282601f10620001d457805160ff191683800117855562000204565b8280016001018555821562000204579182015b8281111562000204578251825591602001919060010190620001e7565b506200021292915062000216565b5090565b5b8082111562000212576000815560010162000217565b80516001600160a01b03811681146200024557600080fd5b92915050565b600082601f8301126200025c578081fd5b81516001600160401b038082111562000273578283fd5b6040516020601f8401601f191682018101838111838210171562000295578586fd5b80604052508194508382528681858801011115620002b257600080fd5b600092505b83831015620002d65785830181015182840182015291820191620002b7565b83831115620002e85760008185840101525b5050505092915050565b6000806000806080858703121562000308578384fd5b6200031486866200022d565b60208601519094506001600160401b038082111562000331578485fd5b6200033f888389016200024b565b9450604087015191508082111562000355578384fd5b5062000364878288016200024b565b9250506200037686606087016200022d565b905092959194509250565b6001600160a01b0391909116815260200190565b61343e80620003a56000396000f3fe608060405234801561001057600080fd5b50600436106102275760003560e01c8063619bca661161013057806395d89b41116100b8578063d84ff8421161007c578063d84ff84214610441578063dd62ed3e14610454578063e9c161a414610467578063f2fde38b1461046f578063f851a4401461048257610227565b806395d89b41146103f8578063a457c2d714610400578063a9059cbb14610413578063b51bc5af14610426578063cf431e2e1461042e57610227565b8063838bfa68116100ff578063838bfa68146103ac57806384218c93146103cd5780638456cb59146103e057806385d4efd8146103e85780638da5cb5b146103f057610227565b8063619bca661461036b57806370a082311461037e578063715018a614610391578063771d090a1461039957610227565b8063313ce567116101b35780633f4ba83a116101825780633f4ba83a1461032d5780635b16ebb7146103355780635c975abb146103485780635e1c75e1146103505780636046cd991461036357610227565b8063313ce567146102ea57806335d3a9bc146102ff578063360e3e9214610307578063395093511461031a57610227565b80631832425f116101fa5780631832425f146102925780631aa3a008146102a75780631fd79f5a146102af57806323b872dd146102c45780632f54bf6e146102d757610227565b806306fdde031461022c578063095ea7b31461024a578063162790551461026a57806318160ddd1461027d575b600080fd5b61023461048a565b6040516102419190612c13565b60405180910390f35b61025d610258366004612868565b610520565b6040516102419190612c08565b61025d6102783660046126c0565b61053e565b610285610548565b6040516102419190613301565b61029a61054e565b6040516102419190612a47565b61029a61055d565b6102c26102bd3660046127ba565b61056c565b005b61025d6102d236600461277a565b610622565b61025d6102e53660046126c0565b6106aa565b6102f26106c6565b6040516102419190613318565b6102c26106cf565b6102c26103153660046126c0565b61076f565b61025d610328366004612868565b610867565b6102c26108b5565b61025d6103433660046126c0565b610960565b61025d610990565b6102c261035e366004612730565b6109a0565b61029a610c42565b610285610379366004612893565b610c51565b61028561038c3660046126c0565b610cde565b6102c2610cf9565b6102c26103a73660046126c0565b610d83565b6103bf6103ba366004612893565b610e06565b60405161024192919061330a565b6102c26103db3660046128c7565b610eac565b6102c261130f565b61029a6113aa565b61029a6113b9565b6102346113cd565b61025d61040e366004612868565b61142e565b61025d610421366004612868565b611496565b6102c26114aa565b6102c261043c366004612954565b611563565b6102c261044f3660046128c7565b61166d565b6102856104623660046126f8565b61196e565b610285611999565b6102c261047d3660046126c0565b61199f565b61029a611a66565b60038054604080516020601f60026000196101006001881615020190951694909404938401819004810282018101909252828152606093909290918301828280156105165780601f106104eb57610100808354040283529160200191610516565b820191906000526020600020905b8154815290600101906020018083116104f957829003601f168201915b5050505050905090565b600061053461052d611a75565b8484611a79565b5060015b92915050565b803b15155b919050565b60025490565b6009546001600160a01b031681565b6008546001600160a01b031681565b610574611a75565b60055461010090046001600160a01b039081169116146105af5760405162461bcd60e51b81526004016105a690612f9e565b60405180910390fd5b6105b882610960565b156105d55760405162461bcd60e51b81526004016105a690612cb7565b6001600160a01b0382166000908152600d6020908152604090912082516105fe928401906125ed565b5050600e80546001600160a01b0319166001600160a01b0392909216919091179055565b600061062f848484611b2d565b61069f8461063b611a75565b61069a856040518060600160405280602881526020016133bc602891396001600160a01b038a16600090815260016020526040812090610679611a75565b6001600160a01b031681526020810191909152604001600020549190611c42565b611a79565b5060015b9392505050565b60055461010090046001600160a01b0390811690821614919050565b60055460ff1690565b600854604051632fd8bff960e01b81526001600160a01b0390911690632fd8bff9906106fd90600401612e1b565b60206040518083038186803b15801561071557600080fd5b505afa158015610729573d6000803e3d6000fd5b505050506040513d601f19601f8201168201806040525081019061074d91906126dc565b600f80546001600160a01b0319166001600160a01b0392909216919091179055565b6008546001600160a01b031615610821576008546001600160a01b0316632f54bf6e610799611a75565b6040518263ffffffff1660e01b81526004016107b59190612a47565b60206040518083038186803b1580156107cd57600080fd5b505afa1580156107e1573d6000803e3d6000fd5b505050506040513d601f19601f82011682018060405250810190610805919061291c565b6108215760405162461bcd60e51b81526004016105a690612cff565b600880546001600160a01b0319166001600160a01b03831617905561084581611c6e565b600980546001600160a01b0319166001600160a01b0392909216919091179055565b6000610534610874611a75565b8461069a8560016000610885611a75565b6001600160a01b03908116825260208083019390935260409182016000908120918c168152925290205490611ce1565b6108bd611a75565b6007546001600160a01b039081169116146108ea5760405162461bcd60e51b81526004016105a690612f26565b600754600160a01b900460ff166109135760405162461bcd60e51b81526004016105a690612c89565b6007805460ff60a01b191690557f5db9ee0a495bf2e6ff9c91a7834c1ba4fdd244a5e8aa4e537bd38aeae4b073aa610949611a75565b6040516109569190612a47565b60405180910390a1565b6001600160a01b03166000908152600d602052604090205460026001821615610100026000190190911604151590565b600754600160a01b900460ff1690565b6002600a5414156109c35760405162461bcd60e51b81526004016105a690613267565b6002600a55600754600160a01b900460ff16156109f25760405162461bcd60e51b81526004016105a690612e62565b6109fb83610960565b610a175760405162461bcd60e51b81526004016105a690612ef8565b6040516330d7666560e01b8152839060009081906001600160a01b038416906330d7666590610a4c9087908990600401612a5b565b604080518083038186803b158015610a6357600080fd5b505afa158015610a77573d6000803e3d6000fd5b505050506040513d601f19601f82011682018060405250810190610a9b9190612975565b9150915060008211610abf5760405162461bcd60e51b81526004016105a69061310b565b6001600160a01b038516600090815260126020526040902054821115610af75760405162461bcd60e51b81526004016105a690612e2b565b6001600160a01b038516600090815260126020526040902054610b1a9083611d06565b6001600160a01b038616600090815260126020526040902055601354610b409083611d06565b601355601054610b5a906001600160a01b03168584611d48565b60405163b0f51c1360e01b81526001600160a01b0384169063b0f51c1390610b86908890600401612a47565b60206040518083038186803b158015610b9e57600080fd5b505afa158015610bb2573d6000803e3d6000fd5b505050506040513d601f19601f82011682018060405250810190610bd691906126dc565b6001600160a01b0316639dc29fac85836040518363ffffffff1660e01b8152600401610c03929190612acd565b600060405180830381600087803b158015610c1d57600080fd5b505af1158015610c31573d6000803e3d6000fd5b50506001600a555050505050505050565b600e546001600160a01b031681565b600c546040516330cde53360e11b81526000916001600160a01b03169063619bca6690610c8690879087908790600401612b16565b60206040518083038186803b158015610c9e57600080fd5b505afa158015610cb2573d6000803e3d6000fd5b505050506040513d601f19601f82011682018060405250810190610cd6919061293c565b949350505050565b6001600160a01b031660009081526020819052604090205490565b610d01611a75565b60055461010090046001600160a01b03908116911614610d335760405162461bcd60e51b81526004016105a690612f9e565b60055460405160009161010090046001600160a01b0316907f8be0079c531659141344cd1fd0a4f28419497f9722a3daafe3b4186f6b6457e0908390a360058054610100600160a81b0319169055565b610d8b611a75565b60055461010090046001600160a01b03908116911614610dbd5760405162461bcd60e51b81526004016105a690612f9e565b610dc681610960565b610de25760405162461bcd60e51b81526004016105a690613041565b6001600160a01b0381166000908152600d60205260408120610e039161266b565b50565b600c54604051637d0e4e0b60e01b8152600091829182916001600160a01b031690637d0e4e0b90610e3b908990600401612a47565b60206040518083038186803b158015610e5357600080fd5b505afa158015610e67573d6000803e3d6000fd5b505050506040513d601f19601f82011682018060405250810190610e8b919061293c565b9050610ea184610e9b8388611e0d565b90611e47565b969095509350505050565b600754600160a01b900460ff1615610ed65760405162461bcd60e51b81526004016105a690612e62565b60008411610ef65760405162461bcd60e51b81526004016105a6906131f3565b6010548490610f0f906001600160a01b03168730611e89565b1015610f2d5760405162461bcd60e51b81526004016105a69061321f565b601054610f45906001600160a01b0316863087611f7e565b426000610f5684610e9b8888611e0d565b6040805160028082526060808301845293945090916020830190803683370190505090508281600081518110610f8857fe5b60200260200101818152505060115481600181518110610fa457fe5b602090810291909101015260408051600280825260608281019093528160200160208202803683370190505090508881600081518110610fe057fe5b60200260200101906001600160a01b031690816001600160a01b031681525050848160018151811061100e57fe5b6001600160a01b039092166020928302919091019091015284600061103461038c611a75565b1161118f576040805160038082526080820190925260609160208201838036833701905050905060008160008151811061106a57fe5b602002602001018181525050848160018151811061108457fe5b602002602001018181525050898160028151811061109e57fe5b602090810291909101810191909152600c54600e546001600160a01b039081166000908152600d9093526040928390209251630bf0da2d60e41b815291169163bf0da2d0916110f59187918a918a91600401612b4a565b600060405180830381600087803b15801561110f57600080fd5b505af1158015611123573d6000803e3d6000fd5b5050604051637208830d60e11b81526001600160a01b038516925063e411061a9150611157908e9085908b90600401612a99565b600060405180830381600087803b15801561117157600080fd5b505af1158015611185573d6000803e3d6000fd5b50505050506112f9565b600061119a8b610cde565b905060006111a88287611ce1565b604080516003808252608082019092529192506060919060208201838036833701905050905082816000815181106111dc57fe5b60200260200101818152505081816001815181106111f657fe5b6020026020010181815250508b8160028151811061121057fe5b602002602001018181525050600c60009054906101000a90046001600160a01b03166001600160a01b0316639d23767e8e84896040518463ffffffff1660e01b815260040161126193929190612ae6565b600060405180830381600087803b15801561127b57600080fd5b505af115801561128f573d6000803e3d6000fd5b50505050836001600160a01b031663e411061a8e838b6040518463ffffffff1660e01b81526004016112c393929190612a99565b600060405180830381600087803b1580156112dd57600080fd5b505af11580156112f1573d6000803e3d6000fd5b505050505050505b6113038a85612048565b50505050505050505050565b611317611a75565b6007546001600160a01b039081169116146113445760405162461bcd60e51b81526004016105a690612f26565b600754600160a01b900460ff161561136e5760405162461bcd60e51b81526004016105a690612e62565b6007805460ff60a01b1916600160a01b1790557f62e78cea01bee320cd4e420270b5ea74000d11b0c9f74754ebdbfc544b05a258610949611a75565b600c546001600160a01b031681565b60055461010090046001600160a01b031690565b60048054604080516020601f60026000196101006001881615020190951694909404938401819004810282018101909252828152606093909290918301828280156105165780601f106104eb57610100808354040283529160200191610516565b600061053461143b611a75565b8461069a856040518060600160405280602581526020016133e46025913960016000611465611a75565b6001600160a01b03908116825260208083019390935260409182016000908120918d16815292529020549190611c42565b60006105346114a3611a75565b8484611b2d565b6040805160018082528183019092527308880000000000000000000000000000000000019160609190602080830190803683370190505090506000816000815181106114f257fe5b6001600160a01b039283166020918202929092010152604051630809469f60e11b8152908316906310128d3e9061152d908490600401612b37565b600060405180830381600087803b15801561154757600080fd5b505af115801561155b573d6000803e3d6000fd5b505050505050565b600754600160a01b900460ff161561158d5760405162461bcd60e51b81526004016105a690612e62565b600e546001600160a01b03166000805b600b54811015611608576000600b82815481106115b657fe5b60009182526020822001546001600160a01b03169150806115d8838989610e06565b909250905081156115fa576115ed8383612048565b6115f78582611ce1565b94505b50505080600101905061159d565b5060405163b732b52160e01b81526001600160a01b0383169063b732b52190611635908490600401613301565b600060405180830381600087803b15801561164f57600080fd5b505af1158015611663573d6000803e3d6000fd5b5050505050505050565b600754600160a01b900460ff16156116975760405162461bcd60e51b81526004016105a690612e62565b600084116116b75760405162461bcd60e51b81526004016105a690612ecf565b60006116c4868585610c51565b9050848110156116e65760405162461bcd60e51b81526004016105a690612e8c565b60408051600280825260608083018452429390929190602083019080368337019050509050818160008151811061171957fe5b6020026020010181815250506011548160018151811061173557fe5b602002602001018181525050600061174c89610cde565b90506117588989612108565b600061176888610e9b8b8a611e0d565b90508560006117768c610cde565b600c54604051634e91bb3f60e11b81529192506001600160a01b031690639d23767e906117ab908f9085908a90600401612ae6565b600060405180830381600087803b1580156117c557600080fd5b505af11580156117d9573d6000803e3d6000fd5b505050506000600c60009054906101000a90046001600160a01b03166001600160a01b0316630564e5768e6040518263ffffffff1660e01b81526004016118209190612a47565b60206040518083038186803b15801561183857600080fd5b505afa15801561184c573d6000803e3d6000fd5b505050506040513d601f19601f82011682018060405250810190611870919061293c565b604080516003808252608082019092529192506060919060208201838036833701905050905085816000815181106118a457fe5b60200260200101818152505082816001815181106118be57fe5b60200260200101818152505084816002815181106118d857fe5b602002602001018181525050836001600160a01b031663ca1d6bbb8f83856040518463ffffffff1660e01b815260040161191493929190612a99565b600060405180830381600087803b15801561192e57600080fd5b505af1158015611942573d6000803e3d6000fd5b505060105461195e92506001600160a01b031690508f87611d48565b5050505050505050505050505050565b6001600160a01b03918216600090815260016020908152604080832093909416825291909152205490565b60115481565b6119a7611a75565b60055461010090046001600160a01b039081169116146119d95760405162461bcd60e51b81526004016105a690612f9e565b6001600160a01b0381166119ff5760405162461bcd60e51b81526004016105a690612d5c565b6005546040516001600160a01b0380841692610100900416907f8be0079c531659141344cd1fd0a4f28419497f9722a3daafe3b4186f6b6457e090600090a3600580546001600160a01b0390921661010002610100600160a81b0319909216919091179055565b6007546001600160a01b031690565b3390565b6001600160a01b038316611a9f5760405162461bcd60e51b81526004016105a69061312e565b6001600160a01b038216611ac55760405162461bcd60e51b81526004016105a690612da2565b6001600160a01b0380841660008181526001602090815260408083209487168084529490915290819020849055517f8c5be1e5ebec7d5bd14f71427d1e84f3dd0314c0f7b2291e5b200ac8c7c3b92590611b20908590613301565b60405180910390a3505050565b6001600160a01b038316611b535760405162461bcd60e51b81526004016105a6906130c6565b6001600160a01b038216611b795760405162461bcd60e51b81526004016105a690612c46565b611b848383836121de565b611bc181604051806060016040528060268152602001613396602691396001600160a01b0386166000908152602081905260409020549190611c42565b6001600160a01b038085166000908152602081905260408082209390935590841681522054611bf09082611ce1565b6001600160a01b0380841660008181526020819052604090819020939093559151908516907fddf252ad1be2c89b69c2b068fc378daa952ba7f163c4a11628f55a4df523b3ef90611b20908590613301565b60008184841115611c665760405162461bcd60e51b81526004016105a69190612c13565b505050900390565b6001600160a01b038116611c945760405162461bcd60e51b81526004016105a69061300a565b6006546001600160a01b031615611cbd5760405162461bcd60e51b81526004016105a6906132d5565b600680546001600160a01b0319166001600160a01b038316179055610e03816121e3565b6000828201838110156106a35760405162461bcd60e51b81526004016105a690612de4565b60006106a383836040518060400160405280601e81526020017f536166654d6174683a207375627472616374696f6e206f766572666c6f770000815250611c42565b6000611d5384612254565b90506001600160a01b03841673dac17f958d2ee523a2206206994597c13d831ec71415611de8576001600160a01b03841663a9059cbb84611d948585611e47565b6040518363ffffffff1660e01b8152600401611db1929190612acd565b600060405180830381600087803b158015611dcb57600080fd5b505af1158015611ddf573d6000803e3d6000fd5b50505050611e07565b611e0783611df68484611e47565b6001600160a01b038716919061228f565b50505050565b600082611e1c57506000610538565b82820282848281611e2957fe5b04146106a35760405162461bcd60e51b81526004016105a690612f5d565b60006106a383836040518060400160405280601a81526020017f536166654d6174683a206469766973696f6e206279207a65726f0000000000008152506122e5565b600080611e9585612254565b90506001600160a01b03851673dac17f958d2ee523a2206206994597c13d831ec71415611f4c57611f4481866001600160a01b031663dd62ed3e87876040518363ffffffff1660e01b8152600401611eee929190612a5b565b60206040518083038186803b158015611f0657600080fd5b505afa158015611f1a573d6000803e3d6000fd5b505050506040513d601f19601f82011682018060405250810190611f3e919061293c565b90611e0d565b9150506106a3565b611f4481866001600160a01b031663dd62ed3e87876040518363ffffffff1660e01b8152600401611eee929190612a5b565b6000611f8985612254565b90506001600160a01b03851673dac17f958d2ee523a2206206994597c13d831ec71415612020576001600160a01b0385166323b872dd8585611fcb8686611e47565b6040518463ffffffff1660e01b8152600401611fe993929190612a75565b600060405180830381600087803b15801561200357600080fd5b505af1158015612017573d6000803e3d6000fd5b50505050612041565b612041848461202f8585611e47565b6001600160a01b03891692919061231c565b5050505050565b6001600160a01b03821661206e5760405162461bcd60e51b81526004016105a69061329e565b61207a600083836121de565b6002546120879082611ce1565b6002556001600160a01b0382166000908152602081905260409020546120ad9082611ce1565b6001600160a01b0383166000818152602081905260408082209390935591519091907fddf252ad1be2c89b69c2b068fc378daa952ba7f163c4a11628f55a4df523b3ef906120fc908590613301565b60405180910390a35050565b6001600160a01b03821661212e5760405162461bcd60e51b81526004016105a690613085565b61213a826000836121de565b61217781604051806060016040528060228152602001613374602291396001600160a01b0385166000908152602081905260409020549190611c42565b6001600160a01b03831660009081526020819052604090205560025461219d9082611d06565b6002556040516000906001600160a01b038416907fddf252ad1be2c89b69c2b068fc378daa952ba7f163c4a11628f55a4df523b3ef906120fc908590613301565b505050565b6001600160a01b0381166122095760405162461bcd60e51b81526004016105a69061300a565b6007546001600160a01b0316156122325760405162461bcd60e51b81526004016105a6906132d5565b600780546001600160a01b0319166001600160a01b0392909216919091179055565b6000806122608361233d565b905060128111156122835760405162461bcd60e51b81526004016105a690612fd3565b601203600a0a92915050565b6121de8363a9059cbb60e01b84846040516024016122ae929190612acd565b60408051601f198184030181529190526020810180516001600160e01b03166001600160e01b031990931692909217909152612457565b600081836123065760405162461bcd60e51b81526004016105a69190612c13565b50600083858161231257fe5b0495945050505050565b611e07846323b872dd60e01b8585856040516024016122ae93929190612a75565b60006001600160a01b03821673dac17f958d2ee523a2206206994597c13d831ec714156123dc57816001600160a01b031663313ce5676040518163ffffffff1660e01b815260040160206040518083038186803b15801561239d57600080fd5b505afa1580156123b1573d6000803e3d6000fd5b505050506040513d601f19601f820116820180604052508101906123d5919061293c565b9050610543565b816001600160a01b031663313ce5676040518163ffffffff1660e01b815260040160206040518083038186803b15801561241557600080fd5b505afa158015612429573d6000803e3d6000fd5b505050506040513d601f19601f8201168201806040525081019061244d9190612998565b60ff169050610543565b60606124ac826040518060400160405280602081526020017f5361666545524332303a206c6f772d6c6576656c2063616c6c206661696c6564815250856001600160a01b03166124e69092919063ffffffff16565b8051909150156121de57808060200190518101906124ca919061291c565b6121de5760405162461bcd60e51b81526004016105a6906131a9565b6060610cd6848460008560606124fb856125b4565b6125175760405162461bcd60e51b81526004016105a690613172565b60006060866001600160a01b031685876040516125349190612a2b565b60006040518083038185875af1925050503d8060008114612571576040519150601f19603f3d011682016040523d82523d6000602084013e612576565b606091505b5091509150811561258a579150610cd69050565b80511561259a5780518082602001fd5b8360405162461bcd60e51b81526004016105a69190612c13565b6000813f7fc5d2460186f7233c927e7db2dcc703c0e500b653ca82273b7bfad8045d85a470818114801590610cd6575050151592915050565b828054600181600116156101000203166002900490600052602060002090601f016020900481019282601f1061262e57805160ff191683800117855561265b565b8280016001018555821561265b579182015b8281111561265b578251825591602001919060010190612640565b506126679291506126ab565b5090565b50805460018160011615610100020316600290046000825580601f106126915750610e03565b601f016020900490600052602060002090810190610e0391905b5b8082111561266757600081556001016126ac565b6000602082840312156126d1578081fd5b81356106a38161335e565b6000602082840312156126ed578081fd5b81516106a38161335e565b6000806040838503121561270a578081fd5b82356127158161335e565b915060208301356127258161335e565b809150509250929050565b600080600060608486031215612744578081fd5b833561274f8161335e565b9250602084013561275f8161335e565b9150604084013561276f8161335e565b809150509250925092565b60008060006060848603121561278e578283fd5b83356127998161335e565b925060208401356127a98161335e565b929592945050506040919091013590565b600080604083850312156127cc578182fd5b82356127d78161335e565b915060208381013567ffffffffffffffff808211156127f4578384fd5b818601915086601f830112612807578384fd5b813581811115612815578485fd5b604051601f8201601f1916810185018381118282101715612834578687fd5b604052818152838201850189101561284a578586fd5b81858501868301378585838301015280955050505050509250929050565b6000806040838503121561287a578182fd5b82356128858161335e565b946020939093013593505050565b6000806000606084860312156128a7578283fd5b83356128b28161335e565b95602085013595506040909401359392505050565b600080600080600060a086880312156128de578081fd5b85356128e98161335e565b9450602086013593506040860135925060608601359150608086013561290e8161335e565b809150509295509295909350565b60006020828403121561292d578081fd5b815180151581146106a3578182fd5b60006020828403121561294d578081fd5b5051919050565b60008060408385031215612966578182fd5b50508035926020909101359150565b60008060408385031215612987578182fd5b505080516020909101519092909150565b6000602082840312156129a9578081fd5b815160ff811681146106a3578182fd5b6000815180845260208085019450808401835b838110156129f15781516001600160a01b0316875295820195908201906001016129cc565b509495945050505050565b6000815180845260208085019450808401835b838110156129f157815187529582019590820190600101612a0f565b60008251612a3d818460208701613332565b9190910192915050565b6001600160a01b0391909116815260200190565b6001600160a01b0392831681529116602082015260400190565b6001600160a01b039384168152919092166020820152604081019190915260600190565b6001600160a01b0384168152606060208201819052600090612abd908301856129fc565b9050826040830152949350505050565b6001600160a01b03929092168252602082015260400190565b600060018060a01b038516825283602083015260606040830152612b0d60608301846129fc565b95945050505050565b6001600160a01b039390931683526020830191909152604082015260600190565b6000602082526106a360208301846129b9565b600060808252612b5d60808301876129b9565b602086818501528382036040850152612b7682876129fc565b91508382036060850152828554600180821660008114612b9d5760018114612bbd57612bf8565b612bad607f600285041687613301565b60ff198416815285019350612bf8565b60028304612bcb8188613301565b612bd48b613326565b895b83811015612bef57815483820152908501908801612bd6565b91909101955050505b50919a9950505050505050505050565b901515815260200190565b6000602082528251806020840152612c32816040850160208701613332565b601f01601f19169190910160400192915050565b60208082526023908201527f45524332303a207472616e7366657220746f20746865207a65726f206164647260408201526265737360e81b606082015260800190565b60208082526014908201527314185d5cd8589b194e881b9bdd081c185d5cd95960621b604082015260600190565b60208082526028908201527f5374616b696e6720706f6f6c20686173206265656e20616c726561647920726560408201526719da5cdd195c995960c21b606082015260800190565b6020808252603e908201527f4a757374207468652072656769737465722773206f776e65722063616e20636160408201527f6c6c207468652075706461746552656769737465724164647265737328290000606082015260800190565b60208082526026908201527f4f776e61626c653a206e6577206f776e657220697320746865207a65726f206160408201526564647265737360d01b606082015260800190565b60208082526022908201527f45524332303a20617070726f766520746f20746865207a65726f206164647265604082015261737360f01b606082015260800190565b6020808252601b908201527f536166654d6174683a206164646974696f6e206f766572666c6f770000000000604082015260600190565b6326a4a22160e11b815260200190565b6020808252601f908201527f616d6f756e74206d757374203c20706f6f6c27732070617920616d6f756e7400604082015260600190565b60208082526010908201526f14185d5cd8589b194e881c185d5cd95960821b604082015260600190565b60208082526023908201527f74686520616d6f756e7420746f20776974686472617720697320746f6f206c6160408201526272676560e81b606082015260800190565b6020808252600f908201526e0616d6f756e74206d757374203e203608c1b604082015260600190565b6020808252601490820152731d5b9adb9bdddb881cdd185ada5b99c81c1bdbdb60621b604082015260600190565b60208082526019908201527f796f7520617265206e6f74207468652061646d696e7374657200000000000000604082015260600190565b60208082526021908201527f536166654d6174683a206d756c7469706c69636174696f6e206f766572666c6f6040820152607760f81b606082015260800190565b6020808252818101527f4f776e61626c653a2063616c6c6572206973206e6f7420746865206f776e6572604082015260600190565b6020808252601a908201527f746f6b656e277320646563696d616c73206d757374203c3d3138000000000000604082015260600190565b6020808252601a908201527f7365744f776e61626c652073686f756c64206e6f742062652030000000000000604082015260600190565b60208082526024908201527f5374616b696e6720706f6f6c20686173206e6f74206265656e20726567697374604082015263195c995960e21b606082015260800190565b60208082526021908201527f45524332303a206275726e2066726f6d20746865207a65726f206164647265736040820152607360f81b606082015260800190565b60208082526025908201527f45524332303a207472616e736665722066726f6d20746865207a65726f206164604082015264647265737360d81b606082015260800190565b6020808252600990820152686e6f7420636c61696d60b81b604082015260600190565b60208082526024908201527f45524332303a20617070726f76652066726f6d20746865207a65726f206164646040820152637265737360e01b606082015260800190565b6020808252601d908201527f416464726573733a2063616c6c20746f206e6f6e2d636f6e7472616374000000604082015260600190565b6020808252602a908201527f5361666545524332303a204552433230206f7065726174696f6e20646964206e6040820152691bdd081cdd58d8d9595960b21b606082015260800190565b60208082526012908201527107072696e636970616c206d757374203e20360741b604082015260600190565b60208082526028908201527f4e6f20656e6f75676820616c6c6f77616e636520666f72206e657720746f6b6560408201526737103437b63232b960c11b606082015260800190565b6020808252601f908201527f5265656e7472616e637947756172643a207265656e7472616e742063616c6c00604082015260600190565b6020808252601f908201527f45524332303a206d696e7420746f20746865207a65726f206164647265737300604082015260600190565b60208082526012908201527105f6f776e65722073686f756c6420626520360741b604082015260600190565b90815260200190565b918252602082015260400190565b60ff91909116815260200190565b60009081526020902090565b60005b8381101561334d578181015183820152602001613335565b83811115611e075750506000910152565b6001600160a01b0381168114610e0357600080fdfe45524332303a206275726e20616d6f756e7420657863656564732062616c616e636545524332303a207472616e7366657220616d6f756e7420657863656564732062616c616e636545524332303a207472616e7366657220616d6f756e74206578636565647320616c6c6f77616e636545524332303a2064656372656173656420616c6c6f77616e63652062656c6f77207a65726fa26469706673582212206eccab8ea7bc8c840391616fbe231061a6b4f80ee856dd60468d58490e49fe3664736f6c634300060c0033",
  "immutableReferences": {},
  "source": "//SPDX-License-Identifier: SimPL-2.0\n\npragma solidity >=0.6.0 <0.7.0;\n\npragma experimental ABIEncoderV2;\n\n\nimport \"./@openzeppelin/token/ERC721/ERC721.sol\";\n\nimport \"./@openzeppelin/access/Ownable.sol\";\n\nimport \"./@openzeppelin/math/SafeMath.sol\";\n\nimport \"./@openzeppelin/math/Math.sol\";\n\nimport \"./@openzeppelin/token/ERC20/SafeERC20.sol\";\n\nimport \"./@openzeppelin/token/ERC20/ERC20.sol\";\n\nimport \"./@openzeppelin/utils/ReentrancyGuard.sol\";\n\n\n\nimport \"./IUpgradable.sol\";\n\nimport \"./IStakingPool.sol\";\n\nimport \"./PriceMetaInfoDB.sol\";\n\nimport \"./CompatibleERC20.sol\";\n\nimport \"./flashloan/IFlashLoanReceiver.sol\";\n\n\n\nstruct CoinHolder {\n\n    uint256 amount;\n\n    uint256 beginTimestamp;\n\n    uint256 stakingTimeRewards;\n\n    string coin;\n\n    address pool;\n\n}\n\n\n\ncontract StakingTokenHolder\n\n{\n\n    using SafeMath for uint256;\n\n    mapping(address=>CoinHolder) public _coinHolders;\n\n    \n\n    address _operator;\n\n\n\n    function setOperator(address addr) public {\n\n        require(_operator==address(0), \"only once\");\n\n        _operator = addr;\n\n    }\n\n\n\n    modifier onlyOperator() {\n\n        require(_operator == msg.sender, \"Ownable: caller is not the operator\");\n\n        _;\n\n    }\n\n\n\n    function sqrt(uint256 x) internal pure returns (uint256) {\n\n    \tuint256 z = (x + 1) / 2;\n\n    \tuint256 y = x;\n\n    \twhile(z < y) {\n\n    \t    y = z;\n\n    \t    z = (x / z + z) / 2;\n\n    \t}\n\n    \t\n\n    \treturn y;\n\n    }\n\n\n\n    function canReleaseTokenHolderAmount(address account, uint256 supply, uint256 balance) view public returns(uint256) {\n\n        CoinHolder storage holder = _coinHolders[account];\n\n        IStakingPool pool = IStakingPool(holder.pool);\n\n        uint256 amount = holder.amount;\n\n        uint256 remainingPrincipal = amount.mul(balance).div(supply);\n\n        uint256 poolCapacity = pool.calculateCapacity();\n\n        if(poolCapacity < remainingPrincipal){\n\n            return poolCapacity;\n\n        }else{\n\n            return remainingPrincipal;\n\n        }\n\n    }\n\n\n\n    function calcPremiumsRewards(address account) view public returns(uint256){\n\n        CoinHolder storage holder = _coinHolders[account];\n\n        uint256 rewards=0;\n\n        IStakingPool pool = IStakingPool(holder.pool);\n\n        rewards=rewards.add(pool.calcPremiumsRewards(holder.stakingTimeRewards));\n\n        return rewards;\n\n    }\n\n    \n\n    function getTokenHolderPool(address account) view public returns(address){\n\n        CoinHolder storage holder = _coinHolders[account];\n\n        return holder.pool;\n\n    }    \n\n\n\n    function getTokenHolderBeginTimestamp(address account) view public returns(uint256){   \n\n        CoinHolder storage holder=_coinHolders[account];\n\n\n\n        return holder.beginTimestamp;\n\n    }  \n\n    \n\n    function getStakingTimeRewards(address account) view public returns(uint256) {\n\n    \tCoinHolder storage holder=_coinHolders[account];\n\n    \treturn holder.stakingTimeRewards;\n\n    }\n\n\n\n    function set(address[] memory addrs, uint256 amount, uint256[] memory timestamp, string memory coinName) onlyOperator public{\n\n        uint256 beginTimestamp = timestamp[0];\n\n        uint256 expiretime = timestamp[1];\n\n        uint256 period = expiretime.sub(beginTimestamp);\n\n        uint256 stakingTimeRewards = amount.mul(period).mul(period);\n\n        address account = addrs[0];\n\n        address poolAddr = addrs[1];\n\n        \n\n        _coinHolders[account]=CoinHolder(amount,beginTimestamp,stakingTimeRewards,coinName,poolAddr);\n\n    }\n\n    \n\n    function updateHolderInfo(address account, uint256 amount, uint256[] memory timestamp) onlyOperator public{\n\n        CoinHolder storage holder=_coinHolders[account];\n\n        uint256 old_amount = holder.amount;\n\n        uint256 stakingTimeRewards = holder.stakingTimeRewards;\n\n        uint256 beginTimestamp = timestamp[0];\n\n        uint256 expiretime = timestamp[1];\n\n        \n\n        if(old_amount > amount) {\n\n            uint256 difference = old_amount.sub(amount);\n\n            uint256 period = expiretime.sub(holder.beginTimestamp);\n\n            stakingTimeRewards = stakingTimeRewards.sub(difference.mul(period).mul(period));\n\n        } else {\n\n            uint256 difference = amount.sub(old_amount);\n\n            uint256 period = expiretime.sub(beginTimestamp);\n\n            stakingTimeRewards = stakingTimeRewards.add(difference.mul(period).mul(period));\n\n            uint256 timestamp2 = stakingTimeRewards.div(amount);\n\n            timestamp2 = sqrt(timestamp2);\n\n            holder.beginTimestamp =  timestamp2;\n\n        }\n\n        holder.amount = amount;\n\n    }\n\n    \n\n\n\n    function getHolderStakingTimeRewards(address account) view public returns(uint256){\n\n        CoinHolder storage holder=_coinHolders[account];\n\n        return holder.stakingTimeRewards;          \n\n    }\n\n    \n\n    function initSponsor() external {\n\n        ISponsorWhiteListControl SPONSOR = ISponsorWhiteListControl(address(0x0888000000000000000000000000000000000001));\n\n        address[] memory users = new address[](1);\n\n        users[0] = address(0);\n\n        SPONSOR.addPrivilege(users);\n\n    }  \n\n    \n\n}\n\n\n\ncontract StakingPoolToken is ERC20, IUpgradable, ReentrancyGuard\n\n{\n\n    using SafeMath for uint256;\n\n    using CompatibleERC20 for address;\n\n    using SafeERC20 for IERC20;\n\n    \n\n    address[] private accountArray;\n\n    StakingTokenHolder public _coinHolders;\n\n    mapping(address=>string) _pool;\n\n    address public poolAddr;\n\n    PriceMetaInfoDB  _priceMetaInfoDb;\n\n    address private tokenAddress;\n\n    uint256 public expiretime;\n\n    \n\n    mapping(address/*productTokenAddr*/=>uint256) _compensation;\n\n    uint256 _totalCompensation;\n\n    \n\n    constructor(address coinHolder, string memory tokenName, string memory symbolName, address _tokenAddress) ERC20(tokenName, symbolName) ReentrancyGuard() public{\n\n        _coinHolders = StakingTokenHolder(coinHolder);\n\n        _coinHolders.setOperator(address(this));\n\n        tokenAddress = _tokenAddress;\n\n    }    \n\n\n\n    function  updateDependentContractAddress() public override{\n\n        _priceMetaInfoDb=PriceMetaInfoDB(register.getContract(\"MIDB\"));\n\n        //_tokenRegister=ERC20TokenRegister(register.getContract(\"TKRT\"));\n\n    }\n\n\n\n    function isPool(address pool_address) view public returns(bool){\n\n        return bytes(_pool[pool_address]).length!=0;\n\n    }   \n\n    \n\n    modifier onlyPool(){\n\n        require(isPool(_msgSender()),\"Unknown staking pool\");\n\n        _;\n\n    }\n\n \n\n    function stringToBytes8(string memory source) view internal returns(bytes8 result) {\n\n    \tassembly{\n\n    \t    result := mload(add(source, 8))\n\n    \t}\n\n    }\n\n    \n\n    function isContract(address addr) public returns(bool) {\n\n        uint size;\n\n        assembly { \n\n            size := extcodesize(addr)\n\n        }\n\n        return size > 0;    \n\n    }\n\n\n\n    \n\n    function deposite(address account, uint256 principal, uint256 supply, uint256 balance, address pool_address) whenNotPaused external {\n\n        require(principal>0, \"principal must > 0\");\n\n        require(tokenAddress.allowanceERC20(account,address(this))>=principal,\"No enough allowance for new token holder\");\n\n        tokenAddress.transferFromERC20(account,address(this),principal);\n\n        uint256 beginTimestamp = now;\n\n        uint256 amount = principal.mul(supply).div(balance);\n\n        uint256[] memory timestamp = new uint256[](2);\n\n        timestamp[0] = beginTimestamp;\n\n        timestamp[1] = expiretime;\n\n        address[] memory addrs = new address[](2);\n\n        addrs[0] = account;\n\n        addrs[1] = pool_address;\n\n        IStakingPool pool = IStakingPool(pool_address);\n\n        \n\n        if(balanceOf(_msgSender()) <= 0) {\n\n            uint256[] memory holderInfo = new uint256[](3);\n\n            holderInfo[0] = 0;\n\n            holderInfo[1] = amount;\n\n            holderInfo[2] = principal;\n\n            _coinHolders.set(addrs, amount, timestamp, _pool[poolAddr]);\n\n            pool.updateTokenHolder(account, holderInfo, beginTimestamp); \n\n        } else {\n\n            uint256 old_amount = balanceOf(account);\n\n            uint256 new_amount = old_amount.add(amount);\n\n            uint256[] memory holderInfo = new uint256[](3);\n\n            holderInfo[0] = old_amount;\n\n            holderInfo[1] = new_amount;\n\n            holderInfo[2] = principal;\n\n            _coinHolders.updateHolderInfo(account, new_amount, timestamp);\n\n            pool.updateTokenHolder(account, holderInfo, beginTimestamp);   \n\n        }\n\n        _mint(account, amount);\n\n    }\n\n\n\n    function canReleaseTokenHolderAmount(address account, uint256 supply, uint256 balance) view public returns(uint256) {\n\n        //uint256 amount = balanceOf(account);\n\n    \treturn _coinHolders.canReleaseTokenHolderAmount(account, supply, balance);\n\n    }\n\n    \n\n    function withdraw(address account, uint256 amount, uint256 supply, uint256 balance, address pool_address) whenNotPaused external {\n\n        require(amount>0, \"amount must > 0\");  \n\n        uint256 withdrawAmount = canReleaseTokenHolderAmount(account, supply, balance);\n\n        require(withdrawAmount >= amount, \"the amount to withdraw is too large\");\n        \n        uint256 beginTimestamp = now;\n        \n        uint256[] memory timestamp = new uint256[](2);\n\n        timestamp[0] = beginTimestamp;\n\n        timestamp[1] = expiretime;\n\n        uint256 old_amount = balanceOf(account);\n\n        _burn(account, amount);\n\n        uint256 money = amount.mul(balance).div(supply);\n\n        IStakingPool pool = IStakingPool(pool_address);\n\n        uint256 new_amount = balanceOf(account);\n\n        _coinHolders.updateHolderInfo(account, new_amount, timestamp);\n\n        uint256 stakingtimerewards = _coinHolders.getStakingTimeRewards(account);\n        \n        uint256[] memory holderInfo = new uint256[](3);\n\n        holderInfo[0] = old_amount;\n\n        holderInfo[1] = new_amount;\n\n        holderInfo[2] = money;\n\n        pool.removeTokenHolder(account, holderInfo, stakingtimerewards);   \n\n        tokenAddress.transferERC20(account,money);\n\n    }\n\n\n\n    function claim(address pool_address, address productTokenAddr, address userAddr) nonReentrant whenNotPaused public{\n\n        require(isPool(pool_address),\"unknown staking pool\");\n\n        IStakingPool pool=IStakingPool(pool_address);\n\n        (uint256 amount, uint256 tokenBalance) = pool.queryAndCheckClaimAmount(userAddr, productTokenAddr);\n\n        require(amount>0,\"not claim\");\n\n        require(_compensation[productTokenAddr]>=amount,\"amount must < pool's pay amount\");\n\n        _compensation[productTokenAddr]=_compensation[productTokenAddr].sub(amount);\n\n        _totalCompensation = _totalCompensation.sub(amount);\n\n        //address erc20token = _tokenRegister.getToken(_pool[poolAddr]); \n\n        tokenAddress.transferERC20(userAddr,amount);\n\n        pool.productToken(productTokenAddr).burn(userAddr,tokenBalance);\n\n    }\n\n    \n\n\n\n    function calcPremiumsRewards(address account, uint256 supply, uint256 balance) view public returns(uint256, uint256){\n\n        uint256 money = _coinHolders.calcPremiumsRewards(account);\n\n        return (money.mul(supply).div(balance), money);\n\n    }    \n\n    \n\n    function harvestPremiums(uint256 supply, uint256 balance) whenNotPaused public{\n\n        IStakingPool pool = IStakingPool(poolAddr);\n\n        uint256 rewards = 0;\n\n        for(uint i = 0; i < accountArray.length; ++i) {\n\n            //address poolAddr = _coinHolders.getTokenHolderPool(tokenId);\n\n            //address erc20token = _tokenRegister.getToken(_pool[poolAddr]);\n\n            address account = accountArray[i];\n\n            (uint256 reward, uint256 money) = calcPremiumsRewards(account, supply, balance);\n\n            if(reward > 0) {\n\n                _mint(account, reward);\n\n                rewards = rewards.add(money);\n\n            }\n\n        }\n\n        pool.deletePremiumsRewards(rewards);\n\n    }\n\n\n\n    function registerStakingPool(address pool_address,string memory poolName) onlyOwner public {\n\n        require(!isPool(pool_address),\"Staking pool has been already registered\");\n\n        _pool[pool_address]= poolName;\n\n        poolAddr = pool_address;\n\n    }\n\n\n\n    function unregisterStakingPool(address pool_address) onlyOwner public{\n\n        require(isPool(pool_address),\"Staking pool has not been registered\");\n\n        delete _pool[pool_address];\n\n    }\n\n}\n",
  "sourcePath": "/home/huanglinjia/MyDapp/test_truffle/JoveInsurance/contracts/StakingPoolToken.sol",
  "compiler": {
    "name": "solc",
    "version": "0.6.12+commit.27d51765.Emscripten.clang"
  },
  "schemaVersion": "3.3.3",
  "updatedAt": "2021-06-20T06:03:13.463Z",
  "devdoc": {
    "kind": "dev",
    "methods": {
      "allowance(address,address)": {
        "details": "See {IERC20-allowance}."
      },
      "approve(address,uint256)": {
        "details": "See {IERC20-approve}. Requirements: - `spender` cannot be the zero address."
      },
      "balanceOf(address)": {
        "details": "See {IERC20-balanceOf}."
      },
      "decimals()": {
        "details": "Returns the number of decimals used to get its user representation. For example, if `decimals` equals `2`, a balance of `505` tokens should be displayed to a user as `5,05` (`505 / 10 ** 2`). Tokens usually opt for a value of 18, imitating the relationship between Ether and Wei. This is the value {ERC20} uses, unless {_setupDecimals} is called. NOTE: This information is only used for _display_ purposes: it in no way affects any of the arithmetic of the contract, including {IERC20-balanceOf} and {IERC20-transfer}."
      },
      "decreaseAllowance(address,uint256)": {
        "details": "Atomically decreases the allowance granted to `spender` by the caller. This is an alternative to {approve} that can be used as a mitigation for problems described in {IERC20-approve}. Emits an {Approval} event indicating the updated allowance. Requirements: - `spender` cannot be the zero address. - `spender` must have allowance for the caller of at least `subtractedValue`."
      },
      "increaseAllowance(address,uint256)": {
        "details": "Atomically increases the allowance granted to `spender` by the caller. This is an alternative to {approve} that can be used as a mitigation for problems described in {IERC20-approve}. Emits an {Approval} event indicating the updated allowance. Requirements: - `spender` cannot be the zero address."
      },
      "name()": {
        "details": "Returns the name of the token."
      },
      "owner()": {
        "details": "Returns the address of the current owner."
      },
      "renounceOwnership()": {
        "details": "Leaves the contract without owner. It will not be possible to call `onlyOwner` functions anymore. Can only be called by the current owner. NOTE: Renouncing ownership will leave the contract without an owner, thereby removing any functionality that is only available to the owner."
      },
      "symbol()": {
        "details": "Returns the symbol of the token, usually a shorter version of the name."
      },
      "totalSupply()": {
        "details": "See {IERC20-totalSupply}."
      },
      "transfer(address,uint256)": {
        "details": "See {IERC20-transfer}. Requirements: - `recipient` cannot be the zero address. - the caller must have a balance of at least `amount`."
      },
      "transferFrom(address,address,uint256)": {
        "details": "See {IERC20-transferFrom}. Emits an {Approval} event indicating the updated allowance. This is not required by the EIP. See the note at the beginning of {ERC20}; Requirements: - `sender` and `recipient` cannot be the zero address. - `sender` must have a balance of at least `amount`. - the caller must have allowance for ``sender``'s tokens of at least `amount`."
      },
      "transferOwnership(address)": {
        "details": "Transfers ownership of the contract to a new account (`newOwner`). Can only be called by the current owner."
      }
    },
    "version": 1
  },
  "userdoc": {
    "kind": "user",
    "methods": {},
    "version": 1
  }
}